:100000000C9469000C9443060C941C060C942B076A
:100010000C942B070C942B070C9491000C949100DA
:100020000C9491000C9491000C9491000C946A062D
:100030000C9491000C9491000C9491000C949100FC
:100040000C94D2050C9491000C9499020C947302B8
:100050000C9491000C9491000C9491000C949100DC
:100060000C9491000C949100FC0BBC0A0C0B270B18
:10007000800BB70AB90A00000000240027002A00FC
:100080000000000800020100000304070000000057
:100090000000000000000000250028002B000000E8
:1000A00000002300260029000404040404040404BE
:1000B0000202020202020303030303030102040813
:1000C00010204080010204081020010204081020C2
:1000D0000A0C11241FBECFEFD8E0DEBFCDBF11E068
:1000E000A0E0B1E0ECEFFFE102C005900D92A83670
:1000F000B107D9F722E0A8E6B1E001C01D92AC3902
:10010000B207E1F710E0C9E6D0E004C02197FE0194
:100110000E94B00EC836D107C9F70E942F090C946F
:10012000FC0F0C940000FC01538D448D252F30E012
:10013000842F90E0821B930B541710F0CF960895F4
:1001400001970895FC01918D828D981761F0828D41
:10015000DF01A80FB11D5D968C91928D9F5F9F73FB
:10016000928F90E008958FEF9FEF0895FC01918D9D
:10017000828D981731F0828DE80FF11D858D90E00A
:1001800008958FEF9FEF0895FC01918D228D892FA7
:1001900090E0805C9F4F821B91098F73992708958F
:1001A00080EC91E00E94C40021E0892B09F420E05A
:1001B000822F0895FC01848DDF01A80FB11DA35A81
:1001C000BF4F2C91848D90E001968F739927848F77
:1001D000A689B7892C93A089B1898C9180648C936E
:1001E000938D848D981306C00288F389E02D808159
:1001F0008F7D80830895EF92FF920F931F93CF938B
:10020000DF93EC0181E0888F9B8D8C8D981305C066
:10021000E889F989808185FD24C0F62E0B8D10E0D8
:100220000F5F1F4F0F731127E02E8C8DE8120CC04B
:100230000FB607FCFACFE889F989808185FFF5CFF1
:10024000CE010E94DA00F1CF8B8DFE01E80FF11D87
:10025000E35AFF4FF0820B8FEA89FB89808180622D
:1002600007C0EE89FF896083E889F989808180640D
:10027000808381E090E0DF91CF911F910F91FF90FB
:10028000EF900895CF93DF93EC01888D8823C9F018
:10029000EA89FB89808185FD05C0A889B9898C918F
:1002A00086FD0FC00FB607FCF5CF808185FFF2CF2A
:1002B000A889B9898C9185FFEDCFCE010E94DA0023
:1002C000E7CFDF91CF91089580E090E0892B29F06E
:1002D0000E94D00081110C9400000895833081F0B9
:1002E00028F4813099F08230A1F008958730A9F088
:1002F0008830B9F08430D1F4809180008F7D03C0C4
:10030000809180008F7780938000089584B58F77E7
:1003100002C084B58F7D84BD08958091B0008F7731
:1003200003C08091B0008F7D8093B00008953FB7E7
:10033000F8948091B6019091B701A091B801B09165
:10034000B90126B5A89B05C02F3F19F00196A11D44
:10035000B11D3FBFBA2FA92F982F8827820F911D5B
:10036000A11DB11DBC01CD0142E0660F771F881FA2
:10037000991F4A95D1F70895089520915F02309111
:1003800060022817390771F490915D0280915E0236
:10039000981741F0E0915D02F0E0E059FE4F808156
:1003A00090E008958FEF9FEF089508951F93CF93E6
:1003B000DF93DC015C962D913C915D972115310511
:1003C00039F481E090E013969C938E9312973DC090
:1003D0005196ED91FC91529750969C915097892F90
:1003E00080951FB75E964C915E9741FB772770F919
:1003F00041FD6095F8944081772311F0492B01C0AD
:1004000048234083E9012197F1F748E0508160FFDC
:1004100002C0592B01C058235083E9012197F1F7FD
:100420006695415099F7772321F090818923808345
:1004300003C08081982B90831FBF5C968D919C9107
:100440005D970197F1F721E030E0C901DF91CF918D
:100450001F91089520915F0230916002281739079B
:1004600071F480915E0220915D0290E0805C9F4F6C
:10047000821B910960E470E00E949C0E089580E068
:1004800090E0089520915F023091600228173907AB
:10049000B9F490915D0280915E02981789F0E09125
:1004A0005D02F0E0E059FE4F808120915D0230E076
:1004B0002F5F3F4F2F73332720935D0290E0089505
:1004C0008FEF9FEF0895089580E090E00895809168
:1004D0006E0190916F01019690936F0180936E0170
:1004E00008950E94F70F1F920F920FB60F921124DA
:1004F0002F933F934F935F936F937F938F939F932C
:10050000AF93BF93EF93FF9380EC91E00E94DA00EA
:10051000FF91EF91BF91AF919F918F917F916F91DB
:100520005F914F913F912F910F900FBE0F901F90B1
:1005300018951F920F920FB60F9211242F938F933D
:100540009F93EF93FF93E091D001F091D1018081CF
:10055000E091D601F091D70182FD12C09081809187
:10056000D9018F5F8F732091DA01821751F0E091EA
:10057000D901F0E0E054FE4F958F8093D90101C07E
:100580008081FF91EF919F918F912F910F900FBEDE
:100590000F901F901895CF93DF93282F30E0F9012B
:1005A000E058FF4F8491F901E454FF4FD491F901D1
:1005B000E855FF4FC491CC2391F081110E946E0148
:1005C000EC2FF0E0EE0FFF1FE256FF4FA591B49124
:1005D000EC91ED2381E090E021F480E002C080E026
:1005E00090E0DF91CF9108951F93CF93DF93282F51
:1005F00030E0F901E058FF4F8491F901E454FF4FD6
:10060000D491F901E855FF4FC491CC23C9F0162FBE
:1006100081110E946E01EC2FF0E0EE0FFF1FEC56EF
:10062000FF4FA591B4918FB7F894111105C09C911B
:10063000ED2FE095E92302C0EC91ED2BEC938FBFF9
:10064000DF91CF911F910895CF93DF93EB0110922B
:100650006F0110926E0161E0892B09F460E080E186
:100660000E94F40261E0CD2B09F460E081E1DF91AA
:10067000CF910C94F402CF93DF9390E0FC01E4540B
:10068000FF4F2491FC01E855FF4F8491882361F1CD
:1006900090E0880F991FFC01EA58FF4FC591D49153
:1006A000FC01EC56FF4FA591B491611109C09FB7B1
:1006B000F8948881209582238883EC912E230BC0A7
:1006C000623061F49FB7F8943881822F809583233C
:1006D0008883EC912E2B2C939FBF06C08FB7F89484
:1006E000E8812E2B28838FBFDF91CF910895CF9380
:1006F000DF93EC01862F69834A832B8361E00E949C
:100700003B0361E08A810E943B0360E089810E9493
:10071000F40260E08A810E94F40260E08B81DF9144
:10072000CF910C943B038F929F92AF92BF92CF9246
:10073000DF92EF92FF926B017C010E9497014B01C7
:100740005C01C114D104E104F104F1F00E949701AD
:10075000DC01CB0188199909AA09BB09883E93409D
:10076000A105B10570F321E0C21AD108E108F10832
:1007700088EE880E83E0981EA11CB11CC114D10420
:10078000E104F10419F7DDCFFF90EF90DF90CF90F7
:10079000BF90AF909F908F9008954F925F926F920D
:1007A0007F92AF92BF92CF92DF92EF92FF920F9320
:1007B0001F93CF93DF93CDB7DEB7A5970FB6F8940D
:1007C000DEBF0FBECDBF87E692E09093010180931C
:1007D000000180916900836080936900E89A68EE67
:1007E00073E080E090E00E94930360E070E080E0BE
:1007F00090E00E94240364EF71E080E090E00E94AA
:10080000930380916E0190916F01909369018093A1
:10081000680161E070E081E090E00E94240364EFF1
:1008200071E080E090E00E94930380916E019091CE
:100830006F0190936B0180936A0161E070E080E04A
:1008400090E00E94240364EF71E080E090E00E9459
:10085000930380916E0190916F0190936D0180934D
:100860006C0160E070E081E090E00E94240358E6B3
:10087000A52E51E0B52E02E111E06AE0462E512C82
:10088000612C712CF501619171915F01F801219149
:100890003191419151918F01072E000C880B990BDA
:1008A0002AA33BA34CA35DA30E941B0D2AA13BA13D
:1008B0004CA15DA10E947A0D0E945A0E6B01770F28
:1008C000EE08FF08F7FE26C0E091C001F091C101DB
:1008D0000190F081E02D6DE280EC91E009952227F6
:1008E0003327A9012C193D094E095F0919A2CE0130
:1008F00081967C01CA01B901A30192010E94380EC0
:10090000605DF70162937F012115310541055105B5
:1009100089F715C0A701960119A2CE0181967C0125
:10092000CA01B901A30192010E94380E605DF7016E
:1009300062937F01211531054105510589F7C701F2
:100940000E94D00782E491E00E94D007F1E00E31CE
:100950001F0709F097CF6091680170916901072E18
:10096000000C880B990B0E941B0D22E538EB4EE919
:100970005EE30E947A0D2B013C0180916A01909107
:100980006B01BC01990F880B990B0E941B0D2CEE7B
:1009900031E548EB5EE30E947A0D9B01AC01EE2449
:1009A000E394F12CC301B2010E94140D87FFE12CE6
:1009B0008701F701EE0FFF1FE859FE4F608171813B
:1009C000072E000C880B990B0E941B0DF701EE0FF0
:1009D000FF1FEE0FFF1FEE5EFE4F2081318142812F
:1009E00053810E947A0D6B017C0180916C01909182
:1009F0006D01BC01990F880B990B0E941B0D24EA15
:100A000030E74DEB5EE30E947A0D9B01AC01C7011C
:100A1000B6010E94140D87FF02C002E010E060E002
:100A200070E080E090E00E94240364EF71E080E0D9
:100A300090E00E949303A0906E01B0906F01B0927D
:100A40006901A092680161E070E081E090E00E949D
:100A5000240364EF71E080E090E00E949303E09053
:100A60006E01F0906F01F0926B01E0926A0161E01B
:100A700070E080E090E00E94240364EF71E080E089
:100A800090E00E949303C0906E01D0906F01D092CD
:100A90006D01C0926C0160E070E081E090E00E9426
:100AA0002403B501BB0C880B990B0E941B0D22E59A
:100AB00038EB4EE95EE30E947A0D2B013C01B70151
:100AC000FF0C880B990B0E941B0D2CEE31E548EBB7
:100AD0005EE30E947A0D9B01AC01AA24A394B12C81
:100AE000C301B2010E94140D87FFA12C7501F5010D
:100AF000EE0FFF1FE859FE4F60817181072E000C39
:100B0000880B990B0E941B0DF501EE0FFF1FEE0FD6
:100B1000FF1FEE5EFE4F20813181428153810E9492
:100B20007A0D2B013C01B601DD0C880B990B0E945C
:100B30001B0D24EA30E74DEB5EE30E947A0D9B012A
:100B4000AC01C301B2010E94140D87FF03C082E013
:100B5000E82EF12C0E151F0519F481E0800F01C05D
:100B600084E0A5960FB6F894DEBF0FBECDBFDF912F
:100B7000CF911F910F91FF90EF90DF90CF90BF909A
:100B8000AF907F906F905F904F9008952FB7F8943B
:100B90006091B2017091B3018091B4019091B5015F
:100BA0002FBF08951F920F920FB60F9211242F930B
:100BB0003F938F939F93AF93BF938091B201909196
:100BC000B301A091B401B091B5013091B10123E01E
:100BD000230F2D3720F40196A11DB11D05C026E875
:100BE000230F0296A11DB11D2093B1018093B20184
:100BF0009093B301A093B401B093B5018091B60175
:100C00009091B701A091B801B091B9010196A11DD1
:100C1000B11D8093B6019093B701A093B801B09332
:100C2000B901BF91AF919F918F913F912F910F90FB
:100C30000FBE0F901F9018951F920F920FB60F9234
:100C400011242F933F934F935F936F937F938F93D1
:100C50009F93AF93BF93EF93FF93E0910201F091C5
:100C600003010995FF91EF91BF91AF919F918F91F2
:100C70007F916F915F914F913F912F910F900FBE98
:100C80000F901F9018951F920F920FB60F9211247C
:100C90002F933F934F935F936F937F938F939F9384
:100CA000AF93BF93EF93FF93E0910001F0910101A7
:100CB0000995FF91EF91BF91AF919F918F917F9196
:100CC0006F915F914F913F912F910F900FBE0F90B9
:100CD0001F9018951F920F920FB60F9211242F9309
:100CE0003F934F935F936F937F938F939F93AF93B4
:100CF000BF93EF93FF938091B00187FF05C01092DF
:100D00008500109284001BC02091B001022E000CBF
:100D1000330B8091850290E02817390784F4809185
:100D2000B001082E000C990BFC01EE0FFF1F8E0F77
:100D30009F1FFC01EF59FD4F808186FD15C08091FA
:100D4000B0018F5F8093B0012091B001022E000CA2
:100D5000330B8091850290E028173907C4F4809105
:100D6000B0018C3064F113C08091B001082E000CEA
:100D7000990BFC01EE0FFF1F8E0F9F1FFC01EF5917
:100D8000FD4F808160E08F730E94F402D8CF809184
:100D9000840090918500049680349C4918F480E486
:100DA0009CE905C080918400909185000496909301
:100DB0008900809388008FEF8093B0013BC0209121
:100DC0008400309185008091B001082E000C990BB1
:100DD000FC01EE0FFF1F8E0F9F1FFC01EF59FD4F0F
:100DE00081819281820F931F909389008093880064
:100DF0008091B001082E000C990BFC01EE0FFF1F33
:100E00008E0F9F1FFC01EF59FD4F808186FF12C09E
:100E10008091B001082E000C990BFC01EE0FFF1F12
:100E20008E0F9F1FFC01EF59FD4F808161E08F7392
:100E30000E94F402FF91EF91BF91AF919F918F912A
:100E40007F916F915F914F913F912F910F900FBEC6
:100E50000F901F9018951F920F920FB60F921124AA
:100E60002F933F934F935F936F937F938F939F93B2
:100E7000AF93BF93EF93FF93E0915F02F091600215
:100E8000309709F451C0968DA685B785858591FF69
:100E900004C09C91892329F447C09C91892309F0BF
:100EA00043C0A389B4899C918589809589238C93BB
:100EB000868997890197F1F7608D718DA685B78531
:100EC000558538E020E0CB010197F1F7822F90E0C3
:100ED00095958795282F4C91452309F0206831502E
:100EE00091F7868D81FD209580915E0290E00196BC
:100EF0008F73992730915D02381749F0A0915E02F7
:100F0000B0E0A059BE4F2C9380935E0203C0868D43
:100F10008160868F828D938D0197F1F7A389B489C3
:100F20009C918589892B8C93FF91EF91BF91AF9113
:100F30009F918F917F916F915F914F913F912F91F1
:100F40000F900FBE0F901F901895CF92DF92EF92E7
:100F5000FF920F931F93CF93DF936C017A018B0164
:100F6000C0E0D0E0CE15DF0589F0D8016D918D018C
:100F7000D601ED91FC910190F081E02DC60109951B
:100F8000892B11F47E0102C02196ECCFC701DF91BD
:100F9000CF911F910F91FF90EF90DF90CF90089528
:100FA000009769F0FC0101900020E9F73197AF014B
:100FB000481B590BBC0180EC91E00C94A50780E024
:100FC00090E00895CF93DF930E94D007EC0182E474
:100FD00091E00E94D0078C0F9D1FDF91CF91089563
:100FE000AC01909193029C3090F58091940228E896
:100FF00030E0281B310987FD3395220F331F220F64
:10100000331F4217530784F08091950228E532E0A0
:10101000281B310987FD3395220F331F220F331F01
:10102000421753070CF49A0122503109220F331F43
:101030004FB7F894892F90E0FC01EE0FFF1F8E0F41
:101040009F1FFC01EF59FD4F328321834FBF08954D
:101050008F929F92AF92BF92CF92DF92EF92FF92C8
:101060000F931F93CF93DF93CDB7DEB72A970FB6B9
:10107000F894DEBF0FBECDBF80EC91E00E9442012C
:101080000E94C605CE0101967C018AE0F70111920B
:101090008A95E9F70E94C6054B015C01D12C00E05E
:1010A000C12C0E94C605DC01CB0188199909AA0947
:1010B000BB09893E9340A105B105F0F51D2D80ECDB
:1010C00091E00E94C40018161906A4F4DD24D394FC
:1010D000DC0C80EC91E00E94A200F701EC0DF11D08
:1010E0008083F9E0FD1508F4D12C1A3008F41F5F55
:1010F000CD2CE5CFD12E1230A0F2802F90E0F70159
:10110000E80FF91F20812F3461F4093010F40196A3
:1011100002C080E090E0F701E80FF91F80818B3476
:1011200049F0093010F40F5F01C000E0DD24DA94CB
:10113000D10EB7CF81E001C080E02A960FB6F894B7
:10114000DEBF0FBECDBFDF91CF911F910F91FF90FA
:10115000EF90DF90CF90BF90AF909F908F900895C9
:101160004F925F926F927F928F929F92AF92BF92B7
:10117000EF92FF921F93CF93DF93EC012A013B0183
:101180000E94C6054B015C0110E00E94C605DC010F
:10119000CB0188199909AA09BB09481659066A069C
:1011A0007B0628F18B81113091F00E94CB020197D0
:1011B00029F40E94C6057B0111E0E7CF61E0898137
:1011C0000E94F40261E08A810E94F402DDCF0E9455
:1011D000CB020197C9F60E94C605DC01CB018E192E
:1011E0009F09A109B1094497A105B10570F260E01A
:1011F00089810E94F40260E08A81DF91CF911F9182
:10120000FF90EF90BF90AF909F908F907F906F90E6
:101210005F904F900C94F402CF92DF92EF92FF9286
:10122000CF93DF93EC016A017B0161E089810E9429
:10123000F40260E08A810E94F402C701B6010E94B4
:10124000930360E089810E94F40260E08A81DF916B
:10125000CF91FF90EF90DF90CF900C94F402CF935A
:10126000DF93CDB7DEB728970FB6F894DEBF0FBE79
:10127000CDBF789484B5826084BD84B5816084BD1F
:1012800085B5826085BD85B5816085BD80916E0024
:10129000816080936E001092810080918100826055
:1012A0008093810080918100816080938100809192
:1012B00080008160809380008091B1008460809381
:1012C000B1008091B00081608093B00080917A007D
:1012D000846080937A0080917A00826080937A00A3
:1012E00080917A00816080937A0080917A00806892
:1012F00080937A001092C100809193028C3008F0A4
:1013000051C061E089E00E943B0380919302E82F85
:10131000F0E09F01220F331FE20FF31FEF59FD4F43
:101320009081907C99609083109294021092950223
:101330006CE00E94900E9CE0899FB001112440E077
:1013400050E09A01260F371FF901EE0FFF1F2E0FF5
:101350003F1FF901EF59FD4F908196FD16C04F5F79
:101360005F4F4C30510569F781110FC0109280001A
:1013700082E0809381001092850010928400B19ADF
:1013800080916F00826080936F00E0919302F0E0A3
:10139000CF01880F991FE80FF91FEF59FD4F80818A
:1013A0008064808388EC95E00E94F0072BE044E0A5
:1013B00063E08FE892E00E9477032AE046E065E070
:1013C0008BE892E00E9477032CE048E067E087E832
:1013D00092E00E94770348EB5BE060E070E08FE80A
:1013E00092E00E94B00868EE73E080E090E00E9416
:1013F000930348EB5BE060E070E08BE892E00E94D2
:10140000B00868EE73E080E090E00E94930348EB40
:101410005BE060E070E087E892E00E94B00868EE70
:1014200073E080E090E00E949303E091D001F0919E
:10143000D10182E08083E091CC01F091CD01108256
:10144000E091CE01F091CF018FEC80831092D80112
:10145000E091D401F091D50186E08083E091D20142
:10146000F091D301808180618083E091D201F0917D
:10147000D301808188608083E091D201F091D30113
:10148000808180688083E091D201F091D3018081D6
:101490008F7D808348E050E064E071E080EC91E073
:1014A0000E94A5070E942808BE016F5F7F4F88E059
:1014B000FB0111928A95E9F78EE7898383E08A839D
:1014C00083E38B8384E08D8348E050E080EC91E0FF
:1014D0000E94A5070E94280860E08DE00E943B035F
:1014E00061E08EE00E943B0361E08FE00E943B03DD
:1014F00061E080E10E943B0361E081E10E943B03E7
:1015000060E082E00E943B0360E08EE00E94F40213
:1015100061E08FE00E94F40268EE73E080E090E00A
:101520000E9493031092BF011092BE0185E0682EC5
:10153000712C94E0A92EB12CEE24E394F12C33E02D
:10154000832E912C42E0C42ED12C52E0552E4424FF
:10155000439463E0362EE091BE01F091BF01E73085
:10156000F10508F04EC1EC5CFF4F0C94B00E10E09A
:10157000FDC00E94CD0349C18091BC01813091F032
:1015800018F0823039F140C08DE00E94CB02892BE7
:10159000D9F50E94C6057093BB016093BA014092D1
:1015A000BC0132C08DE00E94CB02892BC1F40E94A5
:1015B000C6052091BA013091BB01DC01CB01821B31
:1015C000930BA109B1094E97A105B105E8F050921E
:1015D000BC011AC08DE00E94CB02892B19F0109239
:1015E000BC0112C00E94C6052091BA013091BB0116
:1015F000DC01CB01821B930BA109B109CC97A1059A
:10160000B10510F03092BC018091BC01833009F02B
:10161000F3C01092BC0111C01092BD018DE00E9478
:10162000CB02019709F4E8C00E94CD038093BD016D
:10163000882309F4E1C0843029F0D092BF01C09220
:10164000BE01E3C09092BF018092BE01DEC048E5BA
:1016500052E060E070E08FE892E00E940C096CE4D8
:1016600074E080E090E00E94930340E253E060E089
:1016700070E08FE892E00E94B0086CE474E080E0D3
:1016800090E00E94930346E252E060E070E08BE855
:1016900092E00E940C096CE474E080E090E00E940B
:1016A00093034CEB52E060E070E08BE892E00E9424
:1016B000B0086CE474E080E090E00E94930346E29E
:1016C00052E060E070E087E892E00E940C096CE470
:1016D00074E080E090E00E94930348EE53E060E005
:1016E00070E087E892E00E94B0086CE474E080E06B
:1016F00090E00E949303B092BF01A092BE0185C00A
:101700008091BD01823059F0833081F08130D9F46D
:1017100085E491E00E94E20780E293E01AC08CE445
:1017200091E00E94E20784E398E013C083E591E032
:101730000E94E20784E398E00E94F00764EC79E0FD
:1017400080E090E00CC08AE591E00E94E20788EC1E
:1017500095E00E94F0076CED75E080E090E00E945B
:1017600093037092BF016092BE014FC01130F0F739
:101770008DE00E94CB020197C9F70E94C6058B013C
:101780008DE00E94CB02019709F042C00E94C6057D
:10179000DC01CB01801B910BA109B1094E97A1057A
:1017A000B10570F38DE00E94CB02019789F50E948C
:1017B000C605DC01CB01801B910BA109B109CC97B7
:1017C000A105B10578F388EC95E00E94F0078091BF
:1017D000BD01813088F0833038F0833069F460EDEA
:1017E00077E080E090E004C06CED75E080E090E090
:1017F0000E9493031092BD01F092BF01E092BE01DE
:1018000004C01092BF011092BE010E946401A3CED9
:1018100010E0AECF1F93CF93DF931092C3011092CD
:10182000C20188EE93E0A0E0B0E08093C401909301
:10183000C501A093C601B093C70182E291E09093E5
:10184000C1018093C00185EC90E09093CD0180931D
:10185000CC0184EC90E09093CF018093CE0180EC9A
:1018600090E09093D1018093D00181EC90E090932F
:10187000D3018093D20182EC90E09093D5018093C4
:10188000D40186EC90E09093D7018093D60110921A
:10189000D9011092DA011092DB011092DC018091E3
:1018A00085028C30A0F491E0980F9093850280938C
:1018B000930290E0FC01EE0FFF1F8E0F9F1FFC01B3
:1018C000EF59FD4F88EB9BE09283818303C08FEF3C
:1018D0008093930211E010938F0282E080938B0239
:1018E00083E0809387028FE190E00E94CA0EEC01B2
:1018F0001B821A8288EE93E0A0E0B0E08C839D8387
:10190000AE83BF8384E391E0998388831F8A1E8A14
:10191000198E188E1B8E1A8E1D8E1C8E8E8D8E7FAC
:101920008D7F8E8F86958170682F612783E10E945D
:10193000F40261E083E10E943B03EFECF0E0E4910C
:10194000E88BEBEBF0E0E491F0E0EE0FFF1FEC56DC
:10195000FF4F859194919A8B898B60E082E10E9480
:101960003B038E8D81FD04C061E082E10E94F402A0
:1019700082E18C87EEECF0E0E491ED87EAEBF0E0B9
:10198000E491F0E0EE0FFF1FE256FF4F8591949136
:101990009F878E87D0939702C09396028FE190E045
:1019A0009D8F8C8F21E030E03F8B2E8B2DE130E03E
:1019B000398F288F2DE030E03B8F2A8F20916800EF
:1019C0002260209368002CE630E03C8B2B8B20E1DA
:1019D0002D8B0197F1F78A8D9B8D892B09F1E09171
:1019E0005F02F0916002EC17FD07D1F0309739F0FB
:1019F000A389B4899C918589809589238C938E8D48
:101A00008E7F8E8F10925E0210925D02D0936002E4
:101A1000C0935F02EB89FC8990818D89892B80833B
:101A2000DF91CF911F9108950E94560D08F481E037
:101A30000895E89409C097FB3EF4909580957095C1
:101A400061957F4F8F4F9F4F9923A9F0F92F96E90A
:101A5000BB279395F695879577956795B795F1117F
:101A6000F8CFFAF4BB0F11F460FF1BC06F5F7F4F1C
:101A70008F4F9F4F16C0882311F096E911C077232E
:101A800021F09EE8872F762F05C0662371F096E837
:101A9000862F70E060E02AF09A95660F771F881F06
:101AA000DAF7880F9695879597F90895990F0008AA
:101AB000550FAA0BE0E8FEEF16161706E807F90720
:101AC000C0F012161306E407F50798F0621B730BBB
:101AD000840B950B39F40A2661F0232B242B252B3C
:101AE00021F408950A2609F4A140A6958FEF811DDF
:101AF000811D08950E948D0D0C94FE0D0E94F00D25
:101B000038F00E94F70D20F0952311F00C94E70DAA
:101B10000C94ED0D11240C94320E0E940F0E70F3F4
:101B2000959FC1F3950F50E0551F629FF001729F82
:101B3000BB27F00DB11D639FAA27F00DB11DAA1F91
:101B4000649F6627B00DA11D661F829F2227B00DDE
:101B5000A11D621F739FB00DA11D621F839FA00D69
:101B6000611D221F749F3327A00D611D231F849FB9
:101B7000600D211D822F762F6A2F11249F57504010
:101B80009AF0F1F088234AF0EE0FFF1FBB1F661F8B
:101B9000771F881F91505040A9F79E3F510580F054
:101BA0000C94E70D0C94320E5F3FE4F3983ED4F3AF
:101BB000869577956795B795F795E7959F5FC1F7F8
:101BC000FE2B880F911D9695879597F9089597F9A3
:101BD0009F6780E870E060E008959FEF80EC0895D3
:101BE00000240A94161617061806090608950024FC
:101BF0000A9412161306140605060895092E039476
:101C0000000C11F4882352F0BB0F40F4BF2B11F4E9
:101C100060FF04C06F5F7F4F8F4F9F4F089557FD48
:101C20009058440F551F59F05F3F71F04795880F4A
:101C300097FB991F61F09F3F79F0879508951216E1
:101C400013061406551FF2CF4695F1DF08C016168D
:101C500017061806991FF1CF86957105610508943E
:101C60000895E894BB2766277727CB0197F9089555
:101C7000A1E21A2EAA1BBB1BFD010DC0AA1FBB1F90
:101C8000EE1FFF1FA217B307E407F50720F0A21B02
:101C9000B30BE40BF50B661F771F881F991F1A946F
:101CA00069F760957095809590959B01AC01BD0199
:101CB000CF0108950E94610E6894B1110C94320E08
:101CC00008950E94170E88F09F5798F0B92F992712
:101CD000B751B0F0E1F0660F771F881F991F1AF017
:101CE000BA95C9F714C0B13091F00E94310EB1E03D
:101CF00008950C94310E672F782F8827B85F39F03C
:101D0000B93FCCF3869577956795B395D9F73EF4AF
:101D100090958095709561957F4F8F4F9F4F089557
:101D2000991B79E004C0991F961708F0961B881F2D
:101D30007A95C9F78095089597FB072E16F40094BD
:101D400007D077FD09D00E94B60E07FC05D03EF4FF
:101D5000909581959F4F0895709561957F4F089557
:101D6000EE0FFF1F0590F491E02D0994AA1BBB1BF9
:101D700051E107C0AA1FBB1FA617B70710F0A61B8B
:101D8000B70B881F991F5A95A9F780959095BC01AC
:101D9000CD010895CF93DF938230910510F482E056
:101DA00090E0E0919A02F0919B0220E030E0C0E0E8
:101DB000D0E0309711F14081518148175907C0F0A8
:101DC0004817590761F482819381209719F09B830A
:101DD0008A832BC090939B0280939A0226C0211580
:101DE000310519F04217530718F49A01BE01DF01BB
:101DF000EF010280F381E02DDCCF2115310509F1DF
:101E0000281B390B2430310590F412968D919C914A
:101E100013976115710521F0FB019383828304C040
:101E200090939B0280939A02FD01329644C0FD017B
:101E3000E20FF31F81939193225031092D933C932C
:101E40003AC02091980230919902232B41F42091BD
:101E50000E0130910F013093990220939802209146
:101E60000C0130910D012115310541F42DB73EB71C
:101E70004091100150911101241B350BE091980203
:101E8000F0919902E217F307A0F42E1B3F0B2817DD
:101E9000390778F0AC014E5F5F4F2417350748F0E3
:101EA0004E0F5F1F50939902409398028193919334
:101EB00002C0E0E0F0E0CF01DF91CF9108950F93F1
:101EC0001F93CF93DF93009709F48CC0FC013297E6
:101ED0001382128200919A0210919B020115110542
:101EE00081F420813181820F931F209198023091DB
:101EF00099022817390779F5F0939902E09398022F
:101F000071C0D80140E050E0AE17BF0750F4129600
:101F10002D913C911397AD012115310509F1D9019E
:101F2000F3CF9D01DA013383228360817181860FB3
:101F3000971F8217930769F4EC0128813981260FD6
:101F4000371F2E5F3F4F318320838A819B8193838C
:101F50008283452B29F4F0939B02E0939A0242C0BE
:101F60001396FC93EE931297ED01499159919E01BE
:101F7000240F351FE217F30771F480819181840FDC
:101F8000951F029611969C938E938281938113964E
:101F90009C938E931297E0E0F0E0D80112968D9119
:101FA0009C911397009719F0F8018C01F6CF8D9151
:101FB0009C9198012E5F3F4F820F931F20919802B2
:101FC000309199022817390769F4309729F4109253
:101FD0009B0210929A0202C01382128210939902FD
:101FE00000939802DF91CF911F910F91089581E0A6
:0C1FF00090E0F8940C94FC0FF894FFCFE4
:101FFC00BC01BC017E020EEF0000000000009C0240
:10200C00800052B89E3EEC51B83EA470BD3E00001C
:10201C000000FB00A50793004201C400A200B6001B
:10202C0000000000D601A5076402D5012A02420275
:10203C00BD010D0A00636173652031006361736536
:10204C002032006361736520330063617365206423
:08205C00656661756C740000FB
:107E0000112484B714BE81FFF0D085E080938100F7
:107E100082E08093C00088E18093C10086E0809377
:107E2000C20080E18093C4008EE0C9D0259A86E02C
:107E300020E33CEF91E0309385002093840096BBD3
:107E4000B09BFECF1D9AA8958150A9F7CC24DD24C4
:107E500088248394B5E0AB2EA1E19A2EF3E0BF2EE7
:107E6000A2D0813461F49FD0082FAFD0023811F036
:107E7000013811F484E001C083E08DD089C08234E0
:107E800011F484E103C0853419F485E0A6D080C0E4
:107E9000853579F488D0E82EFF2485D0082F10E0AE
:107EA000102F00270E291F29000F111F8ED06801E7
:107EB0006FC0863521F484E090D080E0DECF843638
:107EC00009F040C070D06FD0082F6DD080E0C81688
:107ED00080E7D80618F4F601B7BEE895C0E0D1E017
:107EE00062D089930C17E1F7F0E0CF16F0E7DF06D8
:107EF00018F0F601B7BEE89568D007B600FCFDCFD4
:107F0000A601A0E0B1E02C9130E011968C91119780
:107F100090E0982F8827822B932B1296FA010C0160
:107F200087BEE89511244E5F5F4FF1E0A038BF0790
:107F300051F7F601A7BEE89507B600FCFDCF97BE46
:107F4000E89526C08437B1F42ED02DD0F82E2BD052
:107F50003CD0F601EF2C8F010F5F1F4F84911BD097
:107F6000EA94F801C1F70894C11CD11CFA94CF0C13
:107F7000D11C0EC0853739F428D08EE10CD085E9AC
:107F80000AD08FE07ACF813511F488E018D01DD067
:107F900080E101D065CF982F8091C00085FFFCCF94
:107FA0009093C60008958091C00087FFFCCF809118
:107FB000C00084FD01C0A8958091C6000895E0E648
:107FC000F0E098E1908380830895EDDF803219F02E
:107FD00088E0F5DFFFCF84E1DECF1F93182FE3DFCA
:107FE0001150E9F7F2DF1F91089580E0E8DFEE27F6
:047FF000FF270994CA
:027FFE00040479
:0400000300007E007B
:00000001FF