:100000000C946A000C9438040C9411040C94200590
:100010000C9420050C9420050C9492000C949200F2
:100020000C9492000C9492000C9492000C945F0437
:100030000C9492000C9492000C9492000C949200F8
:100040000C94C7030C9492000C9487020C946102E8
:100050000C9492000C9492000C9492000C949200D8
:100060000C9492000C9492008D0E960EF00EEF10F0
:10007000D61146118311820E0000000024002700D3
:100080002A0000000008000201000003040700002D
:1000900000000000000000000000250028002B00E8
:1000A00000000000230026002900040404040404C6
:1000B0000404020202020202030303030303010217
:1000C00004081020408001020408102001020408E6
:1000D0001020E61111241FBECFEFD8E0DEBFCDBF48
:1000E00012E0A0E0B1E0EAEFFDE202C005900D925F
:1000F000AC35B107D9F723E0ACE5B2E001C01D9201
:10010000A039B207E1F710E0CAE6D0E004C02197B9
:10011000FE010E941013C936D107C9F70E94FC0CDA
:100120000C94FB160C9400008091AF029091B002E9
:1001300001969093B0028093AF020895FC01918DD7
:10014000828D981761F0828DDF01A80FB11D5D9639
:100150008C91928D9F5F9F73928F90E008958FEFA7
:100160009FEF0895FC01918D828D981731F0828D5B
:10017000E80FF11D858D90E008958FEF9FEF0895B2
:10018000FC01918D228D892F90E0805C9F4F821B16
:1001900091098F739927089584EB92E00E94C00023
:1001A00021E0892B09F420E0822F0895FC01848D41
:1001B000DF01A80FB11DA35ABF4F2C91848D90E091
:1001C00001968F739927848FA689B7892C93A0896C
:1001D000B1898C9180648C93938D848D981306C023
:1001E0000288F389E02D80818F7D80830895EF92CE
:1001F000FF920F931F93CF93DF93EC0181E0888FE1
:100200009B8D8C8D981305C0E889F989808185FDC7
:1002100024C0F62E0B8D10E00F5F1F4F0F731127B8
:10022000E02E8C8DE8120CC00FB607FCFACFE889DF
:10023000F989808185FFF5CFCE010E94D600F1CFEC
:100240008B8DFE01E80FF11DE35AFF4FF0820B8FFB
:10025000EA89FB898081806207C0EE89FF8960831B
:10026000E889F98980818064808381E090E0DF9172
:10027000CF911F910F91FF90EF900895CF93DF934F
:10028000EC01888D8823C9F0EA89FB89808185FD8E
:1002900005C0A889B9898C9186FD0FC00FB607FCEF
:1002A000F5CF808185FFF2CFA889B9898C9185FF30
:1002B000EDCFCE010E94D600E7CFDF91CF91089518
:1002C00080E090E0892B29F00E94CC0081110C94F1
:1002D00000000895833081F028F4813099F0823055
:1002E000A1F008958730A9F08830B9F08430D1F4B6
:1002F000809180008F7D03C0809180008F778093F4
:100300008000089584B58F7702C084B58F7D84BD49
:1003100008958091B0008F7703C08091B0008F7DE9
:100320008093B00008953FB7F8948091A202909115
:10033000A302A091A402B091A50226B5A89B05C076
:100340002F3F19F00196A11DB11D3FBFBA2FA92F54
:10035000982F8827820F911DA11DB11DBC01CD01D1
:1003600042E0660F771F881F991F4A95D1F70895BD
:10037000089520915303309154032817390771F4DD
:100380009091510380915203981741F0E0915103ED
:10039000F0E0E45AFD4F808190E008958FEF9FEFE9
:1003A000089508951F93CF93DF93DC015C962D9100
:1003B0003C915D972115310539F481E090E0139669
:1003C0009C938E9312973DC05196ED91FC9152975C
:1003D00050969C915097892F80951FB75E964C91AF
:1003E0005E9741FB772770F941FD6095F894408155
:1003F000772311F0492B01C048234083E90121975D
:10040000F1F748E0508160FF02C0592B01C058232A
:100410005083E9012197F1F76695415099F77723C9
:1004200021F090818923808303C08081982B908361
:100430001FBF5C968D919C915D970197F1F721E02C
:1004400030E0C901DF91CF911F91089520915303AE
:10045000309154032817390771F480915203209189
:10046000510390E0805C9F4F821B910960E470E033
:100470000E94FC12089580E090E0089520915303BB
:100480003091540328173907B9F4909151038091A2
:100490005203981789F0E0915103F0E0E45AFD4FC0
:1004A00080812091510330E02F5F3F4F2F7333271E
:1004B0002093510390E008958FEF9FEF08950E94DD
:1004C00069151F920F920FB60F9211242F933F932D
:1004D0004F935F936F937F938F939F93AF93BF934C
:1004E000EF93FF9384EB92E00E94D600FF91EF918F
:1004F000BF91AF919F918F917F916F915F914F913C
:100500003F912F910F900FBE0F901F9018951F9243
:100510000F920FB60F9211242F938F939F93EF9307
:10052000FF93E091C402F091C5028081E091CA027C
:10053000F091CB0282FD12C090818091CD028F5F3D
:100540008F732091CE02821751F0E091CD02F0E03E
:10055000EC54FD4F958F8093CD0201C08081FF91B7
:10056000EF919F918F912F910F900FBE0F901F9041
:100570001895CF93DF93282F30E0F901EE57FF4F06
:100580008491F901E254FF4FD491F901E655FF4FF0
:10059000C491CC2391F081110E946A01EC2FF0E00C
:1005A000EE0FFF1FE056FF4FA591B491EC91ED23A4
:1005B00081E090E021F480E002C080E090E0DF91F3
:1005C000CF9108951F93CF93DF93282F30E0F90147
:1005D000EE57FF4F8491F901E254FF4FD491F90196
:1005E000E655FF4FC491CC23C9F0162F81110E940C
:1005F0006A01EC2FF0E0EE0FFF1FEA56FF4FA591C6
:10060000B4918FB7F894111105C09C91ED2FE0952E
:10061000E92302C0EC91ED2BEC938FBFDF91CF91DA
:100620001F910895CF93DF93EB011092B0021092C7
:10063000AF0261E0892B09F460E080E10E94E202F0
:1006400061E0CD2B09F460E081E1DF91CF910C9462
:10065000E202CF93DF9390E0FC01E254FF4F24913C
:10066000FC01E655FF4F8491882361F190E0880FEB
:10067000991FFC01E858FF4FC591D491FC01EA563F
:10068000FF4FA591B491611109C09FB7F89488817B
:10069000209582238883EC912E230BC0623061F475
:1006A0009FB7F8943881822F809583238883EC91BB
:1006B0002E2B2C939FBF06C08FB7F894E8812E2B6A
:1006C00028838FBFDF91CF910895CF93DF93EC0103
:1006D000862F69834A832B8361E00E94290361E0AE
:1006E0008A810E94290360E089810E94E20260E021
:1006F0008A810E94E20260E08B81DF91CF910C94AD
:1007000029038F929F92AF92BF92CF92DF92EF9286
:10071000FF926B017C010E9493014B015C01C114AB
:10072000D104E104F104F1F00E949301DC01CB015A
:1007300088199909AA09BB09883E9340A105B1050A
:1007400070F321E0C21AD108E108F10888EE880EA2
:1007500083E0981EA11CB11CC114D104E104F10472
:1007600019F7DDCFFF90EF90DF90CF90BF90AF9063
:100770009F908F9008952FB7F89460919E0270918A
:100780009F028091A0029091A1022FBF08951F9215
:100790000F920FB60F9211242F933F938F939F9335
:1007A000AF93BF9380919E0290919F02A091A0026F
:1007B000B091A10230919D0223E0230F2D3720F448
:1007C0000196A11DB11D05C026E8230F0296A11DAB
:1007D000B11D20939D0280939E0290939F02A0934F
:1007E000A002B093A1028091A2029091A302A091D5
:1007F000A402B091A5020196A11DB11D8093A20291
:100800009093A302A093A402B093A502BF91AF91CD
:100810009F918F913F912F910F900FBE0F901F903E
:1008200018951F920F920FB60F9211242F933F939A
:100830004F935F936F937F938F939F93AF93BF93E8
:10084000EF93FF93E0910201F09103010995FF916D
:10085000EF91BF91AF919F918F917F916F915F9138
:100860004F913F912F910F900FBE0F901F901895B1
:100870001F920F920FB60F9211242F933F934F9315
:100880005F936F937F938F939F93AF93BF93EF93F8
:10089000FF93E0910001F09101010995FF91EF9123
:1008A000BF91AF919F918F917F916F915F914F9188
:1008B0003F912F910F900FBE0F901F9018951F9290
:1008C0000F920FB60F9211242F933F934F935F9384
:1008D0006F937F938F939F93AF93BF93EF93FF9308
:1008E00080919C0287FF05C01092850010928400C1
:1008F0001BC020919C02022E000C330B80917903C7
:1009000090E02817390784F480919C02082E000C8F
:10091000990BFC01EE0FFF1F8E0F9F1FFC01EB5A7E
:10092000FC4F808186FD15C080919C028F5F809373
:100930009C0220919C02022E000C330B80917903C3
:1009400090E028173907C4F480919C028C3064F140
:1009500013C080919C02082E000C990BFC01EE0F35
:10096000FF1F8E0F9F1FFC01EB5AFC4F808160E040
:100970008F730E94E202D8CF80918400909185000D
:10098000049680349C4918F480E49CE905C0809169
:10099000840090918500049690938900809388004C
:1009A0008FEF80939C023BC02091840030918500A2
:1009B00080919C02082E000C990BFC01EE0FFF1F8A
:1009C0008E0F9F1FFC01EB5AFC4F81819281820F99
:1009D000931F909389008093880080919C02082E39
:1009E000000C990BFC01EE0FFF1F8E0F9F1FFC01E7
:1009F000EB5AFC4F808186FF12C080919C02082E2A
:100A0000000C990BFC01EE0FFF1F8E0F9F1FFC01C6
:100A1000EB5AFC4F808161E08F730E94E202FF91EC
:100A2000EF91BF91AF919F918F917F916F915F9166
:100A30004F913F912F910F900FBE0F901F901895DF
:100A40001F920F920FB60F9211242F933F934F9343
:100A50005F936F937F938F939F93AF93BF93EF9326
:100A6000FF93E0915303F0915403309709F451C080
:100A7000968DA685B785858591FF04C09C918923B5
:100A800029F447C09C91892309F043C0A389B48904
:100A90009C918589809589238C9386899789019774
:100AA000F1F7608D718DA685B785558538E020E01A
:100AB000CB010197F1F7822F90E095958795282F2C
:100AC0004C91452309F02068315091F7868D81FDC6
:100AD00020958091520390E001968F739927309171
:100AE0005103381749F0A0915203B0E0A45ABD4F0A
:100AF0002C938093520303C0868D8160868F828DF4
:100B0000938D0197F1F7A389B4899C918589892BED
:100B10008C93FF91EF91BF91AF919F918F917F91B6
:100B20006F915F914F913F912F910F900FBE0F905A
:100B30001F9018950F931F93CF93DF9300D000D091
:100B400000D0CDB7DEB767E671E0CE0101960E9416
:100B5000C10B04E610E020E030E040E050E060E04F
:100B600070E0CE0101960E94EA09CE0101960E9432
:100B7000BC0B6BE671E0CE0101960E94C10B08EE42
:100B800013E020E030E040E050E060E070E0CE01B3
:100B900001960E94EA09CE0101960E94BC0B68E70B
:100BA00071E0CE0101960E94C10B0CE211E020E041
:100BB00030E040E050E060E070E0CE0101960E943D
:100BC000EA09CE0101960E94BC0B67E671E0CE01F6
:100BD00001960E94C10B20E030E040E050E060E070
:100BE00070E0CE0101960E94EA09CE0101960E94B2
:100BF000BC0B6DE771E0CE0101960E94C10B08EBC2
:100C00001BE020E030E040E050E060E070E0CE012A
:100C100001960E94EA09CE0101960E94BC0B68E78A
:100C200071E0CE0101960E94C10B0CE211E020E0C0
:100C300030E040E050E060E070E0CE0101960E94BC
:100C4000EA09CE0101960E94BC0B67E671E0CE0175
:100C500001960E94C10B20E030E040E050E060E0EF
:100C600070E0CE0101960E94EA09CE0101960E9431
:100C7000BC0B6BE871E0CE0101960E94C10B20E035
:100C800030E040E050E060E070E0CE0101960E946C
:100C9000EA09CE0101960E94BC0B6DE971E0CE011C
:100CA00001960E94C10B04EC19E020E030E040E026
:100CB00050E060E070E0CE0101960E94EA09CE01AA
:100CC00001960E94BC0B68E771E0CE0101960E947C
:100CD000C10B0CE211E020E030E040E050E060E0C9
:100CE00070E0CE0101960E94EA09CE0101960E94B1
:100CF000BC0B67E671E0CE0101960E94C10B20E0BB
:100D000030E040E050E060E070E0CE0101960E94EB
:100D1000EA09CE0101960E94BC0B6BEA71E0CE019C
:100D200001960E94C10B08EB1BE020E030E040E0A0
:100D300050E060E070E0CE0101960E94EA09CE0129
:100D400001960E94BC0B68E771E0CE0101960E94FB
:100D5000C10B0CE211E020E030E040E050E060E048
:100D600070E0CE0101960E94EA09CE0101960E9430
:100D7000BC0B67E671E0CE0101960E94C10B20E03A
:100D800030E040E050E060E070E0CE0101960E946B
:100D9000EA09CE0101960E94BC0B6AEB71E0CE011C
:100DA00001960E94C10B08EE13E020E030E040E025
:100DB00050E060E070E0CE0101960E94EA09CE01A9
:100DC00001960E94BC0B68E771E0CE0101960E947B
:100DD000C10B0CE211E020E030E040E050E060E0C8
:100DE00070E0CE0101960E94EA09CE0101960E94B0
:100DF000BC0B67E671E0CE0101960E94C10B20E0BA
:100E000030E040E050E060E070E0CE0101960E94EA
:100E1000EA09CE0101960E94BC0B68EC71E0CE019C
:100E200001960E94C10B04EC19E020E030E040E0A4
:100E300050E060E070E0CE0101960E94EA09CE0128
:100E400001960E94BC0B68E771E0CE0101960E94FA
:100E5000C10B0CE211E020E030E040E050E060E047
:100E600070E0CE0101960E94EA09CE0101960E942F
:100E7000BC0B67E671E0CE0101960E94C10B20E039
:100E800030E040E050E060E070E0CE0101960E946A
:100E9000EA09CE0101960E94BC0B66ED71E0CE011D
:100EA00001960E94C10B08EE13E020E030E040E024
:100EB00050E060E070E0CE0101960E94EA09CE01A8
:100EC00001960E94BC0B68E771E0CE0101960E947A
:100ED000C10B0CE211E020E030E040E050E060E0C7
:100EE00070E0CE0101960E94EA09CE0101960E94AF
:100EF000BC0B67E671E0CE0101960E94C10B20E0B9
:100F000030E040E050E060E070E0CE0101960E94E9
:100F1000EA09CE0101960E94BC0B63EE71E0CE019E
:100F200001960E94C10B20E030E040E050E060E01C
:100F300070E0CE0101960E94EA09CE0101960E945E
:100F4000BC0B60EF71E0CE0101960E94C10B04EC76
:100F500019E020E030E040E050E060E070E0CE01D9
:100F600001960E94EA09CE0101960E94BC0B68E737
:100F700071E0CE0101960E94C10B0CE211E020E06D
:100F800030E040E050E060E070E0CE0101960E9469
:100F9000EA09CE0101960E94BC0B67E671E0CE0122
:100FA00001960E94C10B20E030E040E050E060E09C
:100FB00070E0CE0101960E94EA09CE0101960E94DE
:100FC000BC0B64E072E0CE0101960E94C10B04EC00
:100FD00019E020E030E040E050E060E070E0CE0159
:100FE00001960E94EA09CE0101960E94BC0B68E7B7
:100FF00071E0CE0101960E94C10B0CE211E020E0ED
:1010000030E040E050E060E070E0CE0101960E94E8
:10101000EA09CE0101960E94BC0B67E671E0CE01A1
:1010200001960E94C10B20E030E040E050E060E01B
:1010300070E0CE0101960E94EA09CE0101960E945D
:10104000BC0B63E172E0CE0101960E94C10B04EC7F
:1010500019E020E030E040E050E060E070E0CE01D8
:1010600001960E94EA09CE0101960E94BC0B68E736
:1010700071E0CE0101960E94C10B0CE211E020E06C
:1010800030E040E050E060E070E0CE0101960E9468
:10109000EA09CE0101960E94BC0B80E026960FB6AD
:1010A000F894DEBF0FBECDBFDF91CF911F910F919E
:1010B00008954F925F926F927F928F929F92AF921C
:1010C000BF92CF92DF92EF92FF920F931F93CF9335
:1010D000DF93CDB7DEB72A970FB6F894DEBF0FBE09
:1010E000CDBF4C0184EB92E00E943E010E94BB0305
:1010F0008E010F5F1F4F8AE0F80111928A95E9F780
:101100000E94BB032B013C01C12CD12CF12CA12C42
:10111000B12C0E94BB03DC01CB0184199509A609FF
:10112000B70988169906AA06BB0608F443C0EC2C3A
:1011300084EB92E00E94C00018161906ACF4CC248F
:10114000C394CF0C84EB92E00E949E00F801EF0D57
:10115000F11D8083F9E0FC1508F4C12C89E08E159F
:1011600008F0E394FC2CE4CFCE2CE1E0EE1588F6F9
:101170002D2D30E0F801E20FF31F80818F3471F4E0
:10118000F8E0FD1518F02F5F3F4F02C020E030E07F
:10119000F801E20FF31F80818B3451F088E08D1548
:1011A00010F0D39401C0D12CCC24CA94CE0CB1CF72
:1011B00081E001C080E02A960FB6F894DEBF0FBE32
:1011C000CDBFDF91CF911F910F91FF90EF90DF90F6
:1011D000CF90BF90AF909F908F907F906F905F90D7
:1011E0004F9008951F93CF93DF93CDB7DEB7289725
:1011F0000FB6F894DEBF0FBECDBF182F84EB92E080
:101200000E943E0148E050E064E071E084EB92E02F
:101210000E949A0A8CED95E00E945908BE016F5F0A
:101220007F4F88E0FB0111928A95E9F78EE7898369
:1012300084E08A8384E48B8381E08C838FEE8E83C9
:101240001D8348E050E084EB92E00E949A0A8CED06
:1012500095E00E94590881E028960FB6F894DEBF09
:101260000FBECDBFDF91CF911F9108954F925F9236
:101270006F927F928F929F92AF92BF92CF92DF92A6
:10128000EF92FF920F931F93CF93DF93CDB7DEB70B
:1012900064970FB6F894DEBF0FBECDBF4B010E941E
:1012A000F20884EB92E00E943E010E94BB03CE0153
:1012B00001967C0184E1F70111928A95E9F70E9479
:1012C000BB032B013C01D12C10E000E0A12CB12C80
:1012D0000E94BB03DC01CB0184199509A609B7095B
:1012E00088169906AA06BB0608F456C084EB92E05D
:1012F0000E94C00018161906ACF4CC24C394C00E8A
:1013000084EB92E00E949E00F701E00FF11D8083C4
:10131000F3E1FC1508F4C12C83E18D1508F0D3949A
:101320000C2DE4CF93E09D1598F6812F90E0F70106
:10133000E80FF91F2081233541F5133120F49C017A
:101340002F5F3F4F02C020E030E0F701E20FF31FB4
:1013500020812435D1F4133120F49C012E5F3F4FBE
:1013600002C021E030E0F701E20FF31F20812F34AB
:1013700061F4133110F4039602C082E090E0F701AB
:10138000E80FF91F8081803539F0133110F41F5FA9
:1013900001C010E0DA949CCF68EE73E080E090E04A
:1013A0000E94810381E064960FB6F894DEBF0FBE01
:1013B000CDBFDF91CF911F910F91FF90EF90DF9004
:1013C000CF90BF90AF909F908F907F906F905F90E5
:1013D0004F9008952F923F924F925F926F927F921B
:1013E0008F929F92AF92BF92CF92DF92EF92FF9235
:1013F0000F931F93CF93DF93CDB7DEB72C970FB624
:10140000F894DEBF0FBECDBF9C878B8728013901C2
:101410004A0169877A8720907A0330907B03D10153
:10142000ED91FC91AB85BC8514964D915C9115971F
:101430006D917C910280F381E02DC101099562E4F8
:1014400071E0C1010E94D40C0E94BB037B018C019E
:1014500020E030E0A9016983FA820B831C832D838D
:101460003E834F835887312C0E94BB035B016C0184
:101470009B01A60160E070E080E090E0A980BA8066
:10148000CB80DC80ED80FE800F8118850E941613D2
:1014900052016301740109851A85A0917A03B09104
:1014A0007B03ED91FC9111970E941F1309F028F521
:1014B0000480F581E02DCD010995892BA9F2809159
:1014C0007A0390917B03DC01ED91FC910680F7811A
:1014D000E02D0995BFE63B120EC08B3661F480917A
:1014E0007A0390917B03DC01ED91FC910284F385FA
:1014F000E02D099590CF382EB7CF0284F385E02DEB
:10150000CD012C960FB6F894DEBF0FBECDBFDF9194
:10151000CF911F910F91FF90EF90DF90CF90BF90F0
:10152000AF909F908F907F906F905F904F903F9083
:101530002F900994CF92DF92EF92FF920F931F9317
:10154000CF93DF936C017A018B01C0E0D0E0CE1520
:10155000DF0589F0D8016D918D01D601ED91FC91E7
:101560000190F081E02DC6010995892B11F47E01CF
:1015700002C02196ECCFC701DF91CF911F910F914F
:10158000FF90EF90DF90CF900895EF92FF920F932E
:101590001F93CF93DF93EC017B018A0188819981AE
:1015A000009729F02A813B8124173507F8F4B80108
:1015B0006F5F7F4F0E949F14009759F09983888333
:1015C0001B830A832C813D81232B81F4FC01108233
:1015D0000DC088819981009711F00E94071419822B
:1015E00018821D821C821B821A8207C01D830C83F5
:1015F000B701888199810E947715CE01DF91CF9143
:101600001F910F91FF90EF9008954F925F926F920C
:101610007F928F929F92AF92BF92EF92FF921F9311
:10162000CF93DF93EC012A013B010E94BB034B01E6
:101630005C0110E00E94BB03DC01CB018819990911
:10164000AA09BB09481659066A067B0628F18B8150
:10165000113091F00E94B902019729F40E94BB0356
:101660007B0111E0E7CF61E089810E94E20261E045
:101670008A810E94E202DDCF0E94B9020197C9F679
:101680000E94BB03DC01CB018E199F09A109B1099E
:101690004497A105B10570F260E089810E94E202E1
:1016A00060E08A81DF91CF911F91FF90EF90BF9012
:1016B000AF909F908F907F906F905F904F900C9421
:1016C000E202AC01909189039C3090F580918A03ED
:1016D00028E830E0281B310987FD3395220F331F9E
:1016E000220F331F4217530784F080918B0328E5A4
:1016F00032E0281B310987FD3395220F331F220F5B
:10170000331F421753070CF49A0122503109220F5C
:10171000331F4FB7F894892F90E0FC01EE0FFF1FA5
:101720008E0F9F1FFC01EB5AFC4F328321834FBF6A
:101730000895CF92DF92EF92FF92CF93DF93EC0167
:101740006A017B0161E089810E94E20260E08A8196
:101750000E94E202C701B6010E94810360E0898114
:101760000E94E20260E08A81DF91CF91FF90EF90CA
:10177000DF90CF900C94E202FC01808191810C9467
:101780000714FC01118210821382128215821482C6
:101790006115710551F0FB0101900020E9F73197C7
:1017A000AF01461B570B0C94C50A08950F931F9366
:1017B000CF93DF93CDB7DEB72C970FB6F894DEBF8B
:1017C0000FBECDBF61E272E0CE0101960E94C10B57
:1017D00008E813E120E030E040E050E060E070E035
:1017E000CE0101960E94EA09CE0101960E94BC0B2F
:1017F00065E272E0CE0107960E94C10B1A8219823F
:101800001C821B821E821D826F8178856115710585
:1018100031F04B855C85CE0101960E94C50A08EB2C
:101820001BE020E030E040E050E060E070E0CE01FE
:1018300001960E94EA09CE0101960E94BC0BCE01DE
:1018400007960E94BC0B67E671E0CE0101960E94EC
:10185000C10B0CE211E020E030E040E050E060E03D
:1018600070E0CE0101960E94EA09CE0101960E9425
:10187000BC0B69E272E0CE0101960E94C10B20E030
:1018800030E040E050E060E070E0CE0101960E9460
:10189000EA09CE0101960E94BC0B65E372E0CE011D
:1018A00001960E94C10B20E030E040E050E060E093
:1018B00070E0CE0101960E94EA09CE0101960E94D5
:1018C000BC0B64E472E0CE0101960E94C10B20E0E3
:1018D00030E040E050E060E070E0CE0101960E9410
:1018E000EA09CE0101960E94BC0B68E771E0CE01C7
:1018F00001960E94C10B20E030E040E050E060E043
:1019000070E0CE0101960E94EA09CE0101960E9484
:10191000BC0B67E671E0CE0101960E94C10B20E08E
:1019200030E040E050E060E070E0CE0101960E94BF
:10193000EA09CE0101960E94BC0B68E472E0CE0178
:1019400001960E94C10B08EB1BE020E030E040E074
:1019500050E060E070E0CE0101960E94EA09CE01FD
:1019600001960E94BC0B68E771E0CE0101960E94CF
:10197000C10B0CE211E020E030E040E050E060E01C
:1019800070E0CE0101960E94EA09CE0101960E9404
:10199000BC0B2C960FB6F894DEBF0FBECDBFDF9107
:1019A000CF911F910F9108956115710579F0FB0199
:1019B00001900020E9F73197AF01461B570BDC017E
:1019C000ED91FC910280F381E02D099480E090E09C
:1019D0000895CF93DF93BC0184EB92E00E94D40C76
:1019E000EC0162E471E084EB92E00E94D40C8C0F75
:1019F0009D1FDF91CF910895CF93DF93CDB7DEB7D1
:101A0000A5970FB6F894DEBF0FBECDBF789484B50E
:101A1000826084BD84B5816084BD85B5826085BDEA
:101A200085B5816085BD80916E00816080936E0078
:101A3000109281008091810082608093810080916A
:101A4000810081608093810080918000816080931B
:101A500080008091B10084608093B1008091B000DB
:101A600081608093B00080917A00846080937A00D6
:101A700080917A00826080937A0080917A00816000
:101A800080937A0080917A00806880937A00109227
:101A9000C100809189038C3008F051C061E089E079
:101AA0000E94290380918903E82FF0E09F01220F13
:101AB000331FE20FF31FEB5AFC4F9081907C99602B
:101AC000908310928A0310928B036CE00E94F012B4
:101AD0009CE0899FB001112440E050E09A01260F5C
:101AE000371FF901EE0FFF1F2E0F3F1FF901EB5AB1
:101AF000FC4F908196FD16C04F5F5F4F4C305105F3
:101B000069F781110FC01092800082E080938100FC
:101B10001092850010928400B19A80916F008260CB
:101B200080936F00E0918903F0E0CF01880F991F47
:101B3000E80FF91FEB5AFC4F80818064808388ECAA
:101B400095E00E94610B2BE044E063E085E893E0C0
:101B50000E9465032AE046E065E081E893E00E9488
:101B600065032CE048E067E08DE793E00E946503A1
:101B700048EB5BE060E070E085E893E00E94050BD5
:101B800068EE73E080E090E00E94810348EB5BE048
:101B900060E070E081E893E00E94050B68EE73E07E
:101BA00080E090E00E94810348EB5BE060E070E041
:101BB0008DE793E00E94050B68EE73E080E090E013
:101BC0000E948103E091C402F091C50282E080830B
:101BD000E091C002F091C1021082E091C202F09146
:101BE000C3028FEC80831092CC02E091C802F09186
:101BF000C90286E08083E091C602F091C70280812D
:101C000080618083E091C602F091C7028081886084
:101C10008083E091C602F091C70280818068808352
:101C2000E091C602F091C70280818F7D808348E0F9
:101C300050E064E071E084EB92E00E949A0A88EE42
:101C400093E00E945908BE016F5F7F4F88E0FB015F
:101C500011928A95E9F78EE7898383E08A8383E38B
:101C60008B8384E08D8348E050E084EB92E00E9417
:101C70009A0A88EE93E00E94590860E08DE00E9485
:101C8000290361E08EE00E94290361E08FE00E9459
:101C9000290361E080E10E94290361E081E10E9463
:101CA000290360E082E00E94290360E08EE00E9448
:101CB000E20261E08FE00E94E2020E94D60B68EE31
:101CC00073E080E090E00E94810368EE73E080E0C2
:101CD00090E00E94810387E090E09093B3028093AC
:101CE000B2026AE0862E912CA12CB12CE091B202B6
:101CF000F091B302E830F10508F05FC3EC5CFF4FF0
:101D00000C9410130E94D60B68EE73E080E090E014
:101D10000E9481030E949A05F7CF68E873E181E091
:101D20000E94360968E873E184E164C08091A802EA
:101D3000813099F018F0823039F141C08DE00E9475
:101D4000B902892BE1F50E94BB037093A70260934F
:101D5000A602F1E0F093A80232C08DE00E94B90221
:101D6000892BB9F40E94BB032091A6023091A702EF
:101D7000DC01CB01821B930BA109B1094E97A10590
:101D8000B105E8F082E019C08DE00E94B902892B0C
:101D900019F01092A80213C00E94BB032091A60262
:101DA0003091A702DC01CB01821B930BA109B10981
:101DB000CC97A105B10518F083E08093A80280912B
:101DC000A802833009F0F2C21092A80281E10E94B9
:101DD000F20868EB7BE080E090E00E948103F9C1AB
:101DE0001092B1028DE00E94B902019731F468E9C6
:101DF0007AE38AE00E943609D9C284E990E09093A0
:101E000001018093000180916900836080936900E3
:101E1000E89A68EE73E080E090E00E94810360E061
:101E200070E080E090E00E94120364EF71E080E0D7
:101E300090E00E9481038091AF029091B002909354
:101E4000AA028093A90261E070E081E090E00E9424
:101E5000120364EF71E080E090E00E9481038091C2
:101E6000AF029091B0029093AC028093AB0261E01C
:101E700070E080E090E00E94120364EF71E080E087
:101E800090E00E9481038091AF029091B002909304
:101E9000AE028093AD0260E070E081E090E00E94CD
:101EA000120359EAC52E52E0D52E06E111E0F601E3
:101EB000619171916F01F80121913191419151919D
:101EC0008F01072E000C880B990B2AA33BA34CA370
:101ED0005DA30E9485152AA13BA14CA15DA10E9492
:101EE000E4150E943C132B01770F6608770877FEF4
:101EF00026C0E091B402F091B5020190F081E02D8E
:101F00006DE284EB92E0099522273327A901241979
:101F100035094609570919A2CE0181967C01CA01EB
:101F2000B901A50194010E94D916605DF701629381
:101F30007F01211531054105510589F715C0A30120
:101F4000920119A2CE0181967C01CA01B901A501B5
:101F500094010E94D916605DF70162937F012115FB
:101F600031054105510589F7B70184EB92E00E94E4
:101F7000D40C62E471E084EB92E00E94D40CF1E0B6
:101F800002321F0709F093CF6091A9027091AA0253
:101F9000072E000C880B990B0E94851522E538EB63
:101FA0004EE95EE30E94E4156B017C018091AB0277
:101FB0009091AC02BC01990F880B990B0E9485157A
:101FC0002CEE31E548EB5EE30E94E4159B01AC0189
:101FD00066246394712CC701B6010E947E1587FFA9
:101FE000612C8301F301EE0FFF1FE755FD4F608168
:101FF0007181072E000C880B990B0E948515F30147
:10200000EE0FFF1FEE0FFF1FEA5EFE4F20813181B2
:10201000428153810E94E4156B017C016091AD0205
:102020007091AE02072E000C880B990B0E9485154B
:1020300024EA30E74DEB5EE30E94E4159B01AC011E
:10204000C701B6010E947E1587FF02C002E010E0C2
:1020500060E070E080E090E00E94120364EF71E0C5
:1020600080E090E00E9481036090AF027090B00227
:102070007092AA026092A90261E070E081E090E0B3
:102080000E94120364EF71E080E090E00E948103FF
:10209000E090AF02F090B002F092AC02E092AB029E
:1020A00061E070E080E090E00E94120364EF71E074
:1020B00080E090E00E948103C090AF02D090B00217
:1020C000D092AE02C092AD0260E070E081E090E09C
:1020D0000E941203B301770C880B990B0E9485159F
:1020E00022E538EB4EE95EE30E94E4151B012C016A
:1020F000B701FF0C880B990B0E9485152CEE31E57A
:1021000048EB5EE30E94E4159B01AC0166246394F6
:10211000712CC201B1010E947E1587FF612C7301F1
:10212000F301EE0FFF1FE755FD4F60817181072E10
:10213000000C880B990B0E948515F301EE0FFF1F11
:10214000EE0FFF1FEA5EFE4F2081318142815381F5
:102150000E94E4152B013C01B601DD0C880B990BA4
:102160000E94851524EA30E74DEB5EE30E94E415FA
:102170009B01AC01C301B2010E947E1587FF03C021
:1021800082E0E82EF12C0E151F0511F40F5F01C03F
:1021900004E00093B102033081F0043031F00230EA
:1021A00041F068E873E18BE00BC068E873E18EE012
:1021B00007C068E873E18CE003C068E873E18DE074
:1021C0000E9436098091B102882309F4EFC084305F
:1021D00019F482E090E0ECC083E090E0E9C044EFC5
:1021E00051E060E070E085E893E00E94990B6CE4B8
:1021F00074E080E090E00E94810340E253E060E000
:1022000070E085E893E00E94050B6CE474E080E0E8
:1022100090E00E94810346E252E060E070E081E8D5
:1022200093E00E94990B6CE474E080E090E00E94DF
:1022300081034CEB52E060E070E081E893E00E94A3
:10224000050B6CE474E080E090E00E94810346E2BC
:1022500052E060E070E08DE793E00E94990B6CE43F
:1022600074E080E090E00E94810348EE53E060E07B
:1022700070E08DE793E00E94050B6CE474E080E071
:1022800090E00E94810384E090E092C082E10E948D
:10229000F20868E873E180E090E00E948103809199
:1022A000B102823059F0833081F08130D9F485E475
:1022B00091E00E94E90C80E293E01AC08CE491E086
:1022C0000E94E90C84E398E013C083E591E00E944A
:1022D000E90C84E398E00E94610B64EC79E080E013
:1022E00090E00CC08AE591E00E94E90C88EC95E052
:1022F0000E94610B6CED75E080E090E00E9481032C
:1023000086E090E055C083E10E94F20810E01130B1
:10231000F0F78DE00E94B9020197C9F70E94BB0354
:102320008B018DE00E94B902019709F04DC00E9417
:10233000BB03DC01CB01801B910BA109B1094E97B6
:10234000A105B10570F38DE00E94B9020197E1F596
:102350000E94BB03DC01CB01801B910BA109B109D9
:10236000CC97A105B10578F385E10E94F2086CEAEB
:102370007DE080E090E00E94810388EC95E00E947F
:10238000610B8091B102813088F0833038F0833066
:1023900069F460ED77E080E090E004C06CED75E0FA
:1023A00080E090E00E9481031092B10281E090E011
:1023B0009093B3028093B20204C01092B3021092C1
:1023C000B2020E94600192CC10E0A3CF1F93CF9382
:1023D000DF931092B7021092B60288EE93E0A0E06D
:1023E000B0E08093B8029093B902A093BA02B09380
:1023F000BB0286E291E09093B5028093B40285EC33
:1024000090E09093C1028093C00284EC90E090939E
:10241000C3028093C20280EC90E09093C502809347
:10242000C40281EC90E09093C7028093C60282ECD4
:1024300090E09093C9028093C80286EC90E090935C
:10244000CB028093CA021092CD021092CE0210925B
:10245000CF021092D002809179038C30A0F491E0E9
:10246000980F909379038093890390E0FC01EE0F1D
:10247000FF1F8E0F9F1FFC01EB5AFC4F88EB9BE068
:102480009283818303C08FEF8093890311E01093BF
:10249000850382E08093810383E080937D038FE155
:1024A00090E00E947213EC011B821A8288EE93E086
:1024B000A0E0B0E08C839D83AE83BF8386E391E090
:1024C000998388831F8A1E8A198E188E1B8E1A8EF6
:1024D0001D8E1C8E8E8D8E7F8D7F8E8F869581704A
:1024E000682F612783E10E94E20261E083E10E949C
:1024F0002903E1EDF0E0E491E88BEDEBF0E0E4910D
:10250000F0E0EE0FFF1FEA56FF4F859194919A8BF2
:10251000898B60E082E10E9429038E8D81FD04C0D9
:1025200061E082E10E94E20282E18C87E0EDF0E06E
:10253000E491ED87ECEBF0E0E491F0E0EE0FFF1FAB
:10254000E056FF4F859194919F878E87D0937B03B0
:10255000C0937A038FE190E09D8F8C8F21E030E073
:102560003F8B2E8B2DE130E0398F288F2DE030E02E
:102570003B8F2A8F209168002260209368002CE610
:1025800030E03C8B2B8B20E12D8B0197F1F78A8D6E
:102590009B8D892B09F1E0915303F0915403EC17C3
:1025A000FD07D1F0309739F0A389B4899C918589D2
:1025B000809589238C938E8D8E7F8E8F10925203FF
:1025C00010925103D0935403C0935303EB89FC89B9
:1025D00090818D89892B8083DF91CF911F91089500
:1025E000991B79E004C0991F961708F0961B881F65
:1025F0007A95C9F78095089597FB072E16F40094F5
:1026000007D077FD09D00E94281307FC05D03EF4BF
:10261000909581959F4F0895709561957F4F08958E
:10262000EE0FFF1F0590F491E02D09942A193B0944
:102630004C095D096E097F09800B910B08952A15DD
:102640003B054C055D056E057F05800791070895E4
:10265000AA1BBB1B51E107C0AA1FBB1FA617B707C8
:1026600010F0A61BB70B881F991F5A95A9F78095E4
:102670009095BC01CD0108950E9443136894B11157
:102680000C949C1608950E94811688F09F5798F02C
:10269000B92F9927B751B0F0E1F0660F771F881F67
:1026A000991F1AF0BA95C9F714C0B13091F00E9481
:1026B0009B16B1E008950C949B16672F782F8827FE
:1026C000B85F39F0B93FCCF3869577956795B395A8
:1026D000D9F73EF490958095709561957F4F8F4F17
:1026E0009F4F0895CF93DF938230910510F482E0DD
:1026F00090E0E0918E03F0918F0320E030E0C0E0A5
:10270000D0E0309711F14081518148175907C0F04E
:102710004817590761F482819381209719F09B83B0
:102720008A832BC090938F0380938E0326C021153C
:10273000310519F04217530718F49A01BE01DF0161
:10274000EF010280F381E02DDCCF2115310509F185
:10275000281B390B2430310590F412968D919C91F1
:1027600013976115710521F0FB019383828304C0E7
:1027700090938F0380938E03FD01329644C0FD0138
:10278000E20FF31F81939193225031092D933C93D3
:102790003AC020918C0330918D03232B41F420917A
:1027A0000E0130910F0130938D0320938C03209103
:1027B0000C0130910D012115310541F42DB73EB7C3
:1027C0004091100150911101241B350BE0918C03B5
:1027D000F0918D03E217F307A0F42E1B3F0B28178F
:1027E000390778F0AC014E5F5F4F2417350748F08A
:1027F0004E0F5F1F50938D0340938C0381939193F1
:1028000002C0E0E0F0E0CF01DF91CF9108950F9397
:102810001F93CF93DF93009709F48CC0FC0132978C
:102820001382128200918E0310918F0301151105FE
:1028300081F420813181820F931F20918C0330918C
:102840008D032817390779F5F0938D03E0938C03F6
:1028500071C0D80140E050E0AE17BF0750F41296A7
:102860002D913C911397AD012115310509F1D90145
:10287000F3CF9D01DA013383228360817181860F5A
:10288000971F8217930769F4EC0128813981260F7D
:10289000371F2E5F3F4F318320838A819B81938333
:1028A0008283452B29F4F0938F03E0938E0342C07B
:1028B0001396FC93EE931297ED01499159919E0165
:1028C000240F351FE217F30771F480819181840F83
:1028D000951F029611969C938E93828193811396F5
:1028E0009C938E931297E0E0F0E0D80112968D91C0
:1028F0009C911397009719F0F8018C01F6CF8D91F8
:102900009C9198012E5F3F4F820F931F20918C0363
:1029100030918D032817390769F4309729F4109204
:102920008F0310928E0302C01382128210938D03C4
:1029300000938C03DF91CF911F910F910895A0E038
:10294000B0E0E5EAF4E10C94A616EC01009721F45E
:10295000CB010E947213B8C0FC01E60FF71F9C0167
:1029600022503109E217F30708F4ACC0D9010D91E8
:102970001C91119706171707B0F00530110508F4E0
:102980009FC0C80104978617970708F499C00250A2
:102990001109061B170B019311936D937C93CF01C3
:1029A0000E9407148DC05B01A01AB10A4C01800E71
:1029B000911EA0918E03B0918F0340E050E0E12C76
:1029C000F12C109709F44AC0A815B905D1F56D90FE
:1029D0007C901197630182E0C80ED11CCA14DB04FD
:1029E00080F1A3014A195B096A0182E0C80ED11C7B
:1029F0001296BC9012971396AC91B5E0CB16D10409
:102A000040F0B282A38351834083D9016D937C93BC
:102A10000AC00E5F1F4FC301800F911FF901918300
:102A20008083EB2DFA2FE114F10431F0D7011396D6
:102A3000FC93EE93129744C0F0938F03E0938E03C0
:102A40003FC08D919C9111974817590708F4AC012C
:102A50007D0112960D90BC91A02DB3CF80918C0377
:102A600090918D0388159905E1F446175707C8F42E
:102A700080910C0190910D01009741F48DB79EB7A4
:102A80004091100150911101841B950BE817F90733
:102A9000C8F4F0938D03E0938C03F9017183608394
:102AA0000FC0CB010E9472137C01009759F0A8015E
:102AB000BE010E946E15CE010E940714C70104C01A
:102AC000CE0102C080E090E0CDB7DEB7EEE00C941E
:102AD000C21681E090E0F8940C94FB16FB01DC0137
:102AE00002C001900D9241505040D8F70895FB016B
:102AF000DC0101900D920020E1F708950E94C015BD
:102B000008F481E00895E89409C097FB3EF490959D
:102B10008095709561957F4F8F4F9F4F9923A9F0B6
:102B2000F92F96E9BB279395F69587957795679545
:102B3000B795F111F8CFFAF4BB0F11F460FF1BC089
:102B40006F5F7F4F8F4F9F4F16C0882311F096E91C
:102B500011C0772321F09EE8872F762F05C06623CA
:102B600071F096E8862F70E060E02AF09A95660F83
:102B7000771F881FDAF7880F9695879597F908953C
:102B8000990F0008550FAA0BE0E8FEEF161617067E
:102B9000E807F907C0F012161306E407F50798F0E6
:102BA000621B730B840B950B39F40A2661F0232BFF
:102BB000242B252B21F408950A2609F4A140A6957B
:102BC0008FEF811D811D08950E94F7150C946816E2
:102BD0000E945A1638F00E94611620F0952311F0D9
:102BE0000C9451160C94571611240C949C160E94A8
:102BF000791670F3959FC1F3950F50E0551F629FB2
:102C0000F001729FBB27F00DB11D639FAA27F00D45
:102C1000B11DAA1F649F6627B00DA11D661F829F6C
:102C20002227B00DA11D621F739FB00DA11D621F51
:102C3000839FA00D611D221F749F3327A00D611D6E
:102C4000231F849F600D211D822F762F6A2F112450
:102C50009F5750409AF0F1F088234AF0EE0FFF1F83
:102C6000BB1F661F771F881F91505040A9F79E3FDA
:102C7000510580F00C9451160C949C165F3FE4F3C0
:102C8000983ED4F3869577956795B795F795E79530
:102C90009F5FC1F7FE2B880F911D9695879597F939
:102CA000089597F99F6780E870E060E008959FEFCE
:102CB00080EC089500240A941616170618060906D3
:102CC000089500240A9412161306140605060895A2
:102CD000092E0394000C11F4882352F0BB0F40F42A
:102CE000BF2B11F460FF04C06F5F7F4F8F4F9F4F6A
:102CF000089557FD9058440F551F59F05F3F71F0EC
:102D00004795880F97FB991F61F09F3F79F0879552
:102D10000895121613061406551FF2CF4695F1DFDB
:102D200008C0161617061806991FF1CF869571056B
:102D3000610508940895E894BB2766277727CB019F
:102D400097F908952F923F924F925F926F927F92E0
:102D50008F929F92AF92BF92CF92DF92EF92FF92AB
:102D60000F931F93CF93DF93CDB7DEB7CA1BDB0B57
:102D70000FB6F894DEBF0FBECDBF09942A883988FC
:102D800048885F846E847D848C849B84AA84B98403
:102D9000C884DF80EE80FD800C811B81AA81B9810F
:102DA000CE0FD11D0FB6F894DEBF0FBECDBFED0123
:102DB0000895A1E21A2EAA1BBB1BFD010DC0AA1F7C
:102DC000BB1FEE1FFF1FA217B307E407F50720F094
:102DD000A21BB30BE40BF50B661F771F881F991F0F
:102DE0001A9469F760957095809590959B01AC0158
:0A2DF000BD01CF010895F894FFCF54
:102DFA00B801B8017E020EEF000000000000900347
:102E0A0080000100000052B89E3EEC51B83EA4700A
:102E1A00BD3E00000000F7009A0AC0009E00B20002
:102E2A003E0100000000D2019A0A26023E02B901C0
:102E3A00D1010D0A00636173652031006361736516
:102E4A002032006361736520330063617365206417
:102E5A00656661756C740047393100473120593411
:102E6A0030204632303030004D3131340047312085
:102E7A004531313020463230303000473120583128
:102E8A003020593131352046323030300047312038
:102E9A005A2D393520463230303000473120452D01
:102EAA0031303520463230303000473120592D320A
:102EBA003720463230303000473120453130352016
:102ECA0046323030300047312059323720463230CE
:102EDA003030004731205A39352046323030300000
:102EEA00473120582D313020592D31313520463285
:102EFA0030303000473120452D31313020463230D4
:102F0A00303000473120592D3430204632303030AD
:102F1A000047323800473935004731205A372046B2
:102F2A003230303000473120452D313230204632A0
:102F3A003030300047393000473120582D323520A3
:0C2F4A00592D3133302046323030300039
:00000001FF
