:100000000C9469000C9488030C9461030C947004A4
:100010000C9470040C9470040C9491000C94910056
:100020000C9491000C9491000C9491000C94AF03EB
:100030000C9491000C9491000C9491000C949100FC
:100040000C9417030C9491000C94C3000C949D0025
:100050000C9491000C9491000C9491000C949100DC
:100060000C9491000C949100C60C770BCA0BE70B13
:10007000420C720B740B00000000240027002A00C1
:1000800000000000250028002B00000000002300D5
:1000900026002900040404040404040402020202E9
:1000A000020203030303030301020408102040803B
:1000B00001020408102001020408102000000008BA
:1000C000000201000003040700000000000000001F
:1000D000DF0C11241FBECFEFD8E0DEBFCDBF11E093
:1000E000A0E0B1E0E6EFFDE102C005900D92A2377D
:1000F000B107D9F722E0A2E7B1E001C01D92AE3A04
:10010000B207E1F710E0C9E6D0E004C02197FE0194
:100110000E94EE0EC836D107C9F70E943F080C9422
:10012000F90E0C94000084E991E00E94260121E080
:10013000892B09F420E0822F08951F920F920FB6A9
:100140000F9211242F933F934F935F936F937F935D
:100150008F939F93AF93BF93EF93FF9384E991E0C5
:100160000E949B01FF91EF91BF91AF919F918F9161
:100170007F916F915F914F913F912F910F900FBEA3
:100180000F901F9018951F920F920FB60F92112487
:100190002F938F939F93EF93FF93E091A401F0919E
:1001A000A5018081E091AA01F091AB0182FD12C00E
:1001B00090818091AD018F5F8F732091AE01821786
:1001C00051F0E091AD01F0E0EC56FE4F958F809339
:1001D000AD0101C08081FF91EF919F918F912F918F
:1001E0000F900FBE0F901F901895FC01538D448DFA
:1001F000252F30E0842F90E0821B930B541710F0D2
:10020000CF96089501970895FC01918D828D9817DE
:1002100061F0828DDF01A80FB11D5D968C91928DEA
:100220009F5F9F73928F90E008958FEF9FEF0895E7
:10023000FC01918D828D981731F0828DE80FF11DB0
:10024000858D90E008958FEF9FEF0895FC01918DCB
:10025000228D892F90E0805C9F4F821B91098F73C4
:100260009927089580E090E0892B29F00E9493005F
:1002700081110C9400000895833081F028F48130BE
:1002800099F08230A1F008958730A9F08830B9F054
:100290008430D1F4809180008F7D03C080918000F4
:1002A0008F7780938000089584B58F7702C084B5DE
:1002B0008F7D84BD08958091B0008F7703C08091B9
:1002C000B0008F7D8093B00008953FB7F89480917F
:1002D000900190919101A0919201B091930126B566
:1002E000A89B05C02F3F19F00196A11DB11D3FBF6E
:1002F000BA2FA92F982F8827820F911DA11DB11DFC
:10030000BC01CD0142E0660F771F881F991F4A95F7
:10031000D1F708950895089580E090E008958091C0
:1003200086019091870101969093870180938601C1
:1003300008950E94F40EFC01848DDF01A80FB11D09
:10034000A35ABF4F2C91848D90E001968F7399270B
:10035000848FA689B7892C93A089B1898C918064F8
:100360008C93938D848D981306C00288F389E02DB9
:1003700080818F7D80830895EF92FF920F931F936A
:10038000CF93DF93EC0181E0888F9B8D8C8D981348
:1003900005C0E889F989808185FD24C0F62E0B8D82
:1003A00010E00F5F1F4F0F731127E02E8C8DE812A6
:1003B0000CC00FB607FCFACFE889F989808185FF68
:1003C000F5CFCE010E949B01F1CF8B8DFE01E80F8E
:1003D000F11DE35AFF4FF0820B8FEA89FB89808180
:1003E000806207C0EE89FF896083E889F98980818E
:1003F0008064808381E090E0DF91CF911F910F9125
:10040000FF90EF900895CF93DF93EC01888D8823C0
:10041000C9F0EA89FB89808185FD05C0A889B98971
:100420008C9186FD0FC00FB607FCF5CF808185FF4C
:10043000F2CFA889B9898C9185FFEDCFCE010E94BA
:100440009B01E7CFDF91CF910895CF93DF93282FC2
:1004500030E0F901E454FF4F8491F901E855FF4F72
:10046000D491F901EC56FF4FC491CC2391F0811146
:100470000E943C01EC2FF0E0EE0FFF1FE657FF4F0C
:10048000A591B491EC91ED2381E090E021F480E01E
:1004900002C080E090E0DF91CF9108951F93CF9349
:1004A000DF93282F30E0F901E454FF4F8491F901E4
:1004B000E855FF4FD491F901EC56FF4FC491CC237E
:1004C000C9F0162F81110E943C01EC2FF0E0EE0FD5
:1004D000FF1FE058FF4FA591B4918FB7F894111109
:1004E00005C09C91ED2FE095E92302C0EC91ED2B26
:1004F000EC938FBFDF91CF911F910895CF93DF933E
:10050000EB01109287011092860161E0892B09F4BA
:1005100060E080E10E944E0261E0CD2B09F460E0D2
:1005200081E1DF91CF910C944E02CF93DF9390E065
:10053000FC01E855FF4F2491FC01EC56FF4F8491DC
:10054000882361F190E0880F991FFC01EA58FF4F62
:10055000C591D491FC01E058FF4FA591B491611170
:1005600009C09FB7F8948881209582238883EC91F5
:100570002E230BC0623061F49FB7F8943881822F2C
:10058000809583238883EC912E2B2C939FBF06C0EC
:100590008FB7F894E8812E2B28838FBFDF91CF91FE
:1005A00008958F929F92AF92BF92CF92DF92EF9277
:1005B000FF926B017C010E9465014B015C01C1143B
:1005C000D104E104F104F1F00E946501DC01CB01EA
:1005D00088199909AA09BB09883E9340A105B1056C
:1005E00070F321E0C21AD108E108F10888EE880E04
:1005F00083E0981EA11CB11CC114D104E104F104D4
:1006000019F7DDCFFF90EF90DF90CF90BF90AF90C4
:100610009F908F9008952FB7F89460918C017091FE
:100620008D0180918E0190918F012FBF08951F92AF
:100630000F920FB60F9211242F933F938F939F9396
:10064000AF93BF9380918C0190918D01A0918E0109
:10065000B0918F0130918B0123E0230F2D3720F4CF
:100660000196A11DB11D05C026E8230F0296A11D0C
:10067000B11D20938B0180938C0190938D01A093E9
:100680008E01B0938F018091900190919101A09182
:100690009201B09193010196A11DB11D809390012B
:1006A00090939101A0939201B0939301BF91AF9168
:1006B0009F918F913F912F910F900FBE0F901F90A0
:1006C00018951F920F920FB60F9211242F933F93FC
:1006D0004F935F936F937F938F939F93AF93BF934A
:1006E000EF93FF93E0910A01F0910B010995FF91BF
:1006F000EF91BF91AF919F918F917F916F915F919A
:100700004F913F912F910F900FBE0F901F90189512
:100710001F920F920FB60F9211242F933F934F9376
:100720005F936F937F938F939F93AF93BF93EF9359
:10073000FF93E0910801F09109010995FF91EF9174
:10074000BF91AF919F918F917F916F915F914F91E9
:100750003F912F910F900FBE0F901F9018951F92F1
:100760000F920FB60F9211242F933F934F935F93E5
:100770006F937F938F939F93AF93BF93EF93FF9369
:1007800080918A0187FF05C0109285001092840035
:100790001BC020918A01022E000C330B80919D0218
:1007A00090E02817390784F480918A01082E000C04
:1007B000990BFC01EE0FFF1F8E0F9F1FFC01E758E6
:1007C000FD4F808186FD15C080918A018F5F8093E7
:1007D0008A0120918A01022E000C330B80919D0228
:1007E00090E028173907C4F480918A018C3064F1B5
:1007F00013C080918A01082E000C990BFC01EE0FAA
:10080000FF1F8E0F9F1FFC01E758FD4F808160E0A6
:100810008F730E944E02D8CF809184009091850002
:10082000049680349C4918F480E49CE905C08091CA
:1008300084009091850004969093890080938800AD
:100840008FEF80938A013BC0209184003091850016
:1008500080918A01082E000C990BFC01EE0FFF1FFE
:100860008E0F9F1FFC01E758FD4F81819281820FFF
:10087000931F909389008093880080918A01082EAD
:10088000000C990BFC01EE0FFF1F8E0F9F1FFC0148
:10089000E758FD4F808186FF12C080918A01082EA3
:1008A000000C990BFC01EE0FFF1F8E0F9F1FFC0128
:1008B000E758FD4F808161E08F730E944E02FF91E7
:1008C000EF91BF91AF919F918F917F916F915F91C8
:1008D0004F913F912F910F900FBE0F901F90189541
:1008E0001F920F920FB60F9211240F900FBE0F9010
:1008F0001F901895CF93DF93EC01862F69834A836D
:100900002B8361E00E94950261E08A810E9495023A
:1009100060E089810E944E0260E08A810E944E025E
:1009200060E08B81DF91CF910C9495026F927F9262
:100930008F929F92AF92BF92CF92DF92EF92FF92EF
:100940000F931F93CF93DF9300D000D0CDB7DEB7C6
:100950008FE891E0909309018093080180916900EC
:10096000836080936900E89A68EE73E080E090E02D
:100970000E94D10260E070E080E090E00E947E0280
:1009800064EF71E080E090E00E94D10280918601E6
:1009900090918701909381018093800161E070E0E4
:1009A00081E090E00E947E0264EF71E080E090E0E0
:1009B0000E94D102809186019091870190938301DA
:1009C0008093820161E070E080E090E00E947E020E
:1009D00064EF71E080E090E00E94D1028091860196
:1009E00090918701909385018093840160E070E08D
:1009F00081E090E00E947E0200E811E06CE0A62E0B
:100A000061E0B62EF801619171918F01F50121919C
:100A10003191419151915F01072E000C880B990B88
:100A200029833A834B835C830E946D0D29813A812F
:100A30004B815C810E94CC0D0E94AC0E6B01770F44
:100A4000EE08FF08F7FE14C0E0919401F0919501C3
:100A50000190F081E02D6DE284E991E00995442751
:100A60005527BA014C195D096E097F092AE003C0B8
:100A70002AE0B701A60184E991E00E94E20769E358
:100A800071E084E991E00E94CD07F8E1AF16F1E052
:100A9000BF0609F0B7CF6091800170918101072EE8
:100AA000000C880B990B0E946D0D22E538EB4EE986
:100AB0005EE30E94CC0D6B017C01809182019091DC
:100AC0008301BC01990F880B990B0E946D0D2CEED0
:100AD00031E548EB5EE30E94CC0D9B01AC0101E0E7
:100AE00010E0C701B6010E94660D87FF00E03801E3
:100AF000F801EE0FFF1FE058FE4F60817181072E55
:100B0000000C880B990B0E946D0DF801EE0FFF1F72
:100B1000EE0FFF1FE45FFE4F208131814281538140
:100B20000E94CC0D6B017C01809184019091850124
:100B3000BC01990F880B990B0E946D0D24EA30E7D8
:100B40004DEB5EE30E94CC0D9B01AC01C701B601E9
:100B50000E94660D87FF03C032E0632E712C60E0B7
:100B600070E080E090E00E947E0264EF71E080E03F
:100B700090E00E94D102C0908601D0908701D0926F
:100B80008101C092800161E070E081E090E00E940C
:100B90007E0264EF71E080E090E00E94D10200915B
:100BA000860110918701109383010093820161E017
:100BB00070E080E090E00E947E0264EF71E080E0EF
:100BC00090E00E94D102E0908601F0908701F092BF
:100BD0008501E092840160E070E081E090E00E9495
:100BE0007E02B601DD0C880B990B0E946D0D22E58B
:100BF00038EB4EE95EE30E94CC0D4B015C01B8017D
:100C0000110F880B990B0E946D0D2CEE31E548EB0E
:100C10005EE30E94CC0D9B01AC01CC24C394D12C8B
:100C2000C501B4010E94660D87FFC12C8601F60143
:100C3000EE0FFF1FE058FE4F60817181072E000C00
:100C4000880B990B0E946D0DF601EE0FFF1FEE0F42
:100C5000FF1FE45FFE4F20813181428153810E945A
:100C6000CC0D4B015C01B701FF0C880B990B0E9466
:100C70006D0D24EA30E74DEB5EE30E94CC0D9B0145
:100C8000AC01C501B4010E94660D87FF02C002E0FD
:100C900010E06016710619F481E0860D01C084E051
:100CA0000F900F900F900F90DF91CF911F910F91A8
:100CB000FF90EF90DF90CF90BF90AF909F908F907C
:100CC0007F906F900895CF92DF92EF92FF920F93F3
:100CD0001F93CF93DF936C017A018B01C0E0D0E0CA
:100CE000CE15DF0589F0D8016D918D01D601ED910A
:100CF000FC910190F081E02DC6010995892B11F43A
:100D00007E0102C02196ECCFC701DF91CF911F91E8
:100D10000F91FF90EF90DF90CF900895AC019091EC
:100D2000AB029C3090F58091AC0228E830E0281BA3
:100D3000310987FD3395220F331F220F331F4217CE
:100D4000530784F08091AD0228E532E0281B310979
:100D500087FD3395220F331F220F331F421753078E
:100D60000CF49A0122503109220F331F4FB7F89427
:100D7000892F90E0FC01EE0FFF1F8E0F9F1FFC01DB
:100D8000E758FD4F328321834FBF08958F929F9282
:100D9000AF92BF92CF92DF92EF92FF920F931F9389
:100DA000CF93DF93CDB7DEB72A970FB6F894DEBFA7
:100DB0000FBECDBF84E991E00E9403020E940B03A5
:100DC000CE0101967C018AE0F70111928A95E9F73C
:100DD0000E940B034B015C01D12C00E0C12C0E944E
:100DE0000B03DC01CB0188199909AA09BB09893ECB
:100DF0009340A105B105F0F51D2D84E991E00E9415
:100E0000260118161906A4F4DD24D394DC0C84E919
:100E100091E00E940401F701EC0DF11D8083F9E0DF
:100E2000FD1508F4D12C1A3008F41F5FCD2CE5CF46
:100E3000D12E1230A0F2802F90E0F701E80FF91FB9
:100E400020812F3461F4093010F4019602C080E053
:100E500090E0F701E80FF91F80818B3449F00930E9
:100E600010F40F5F01C000E0DD24DA94D10EB7CF9B
:100E700081E001C080E02A960FB6F894DEBF0FBE75
:100E8000CDBFDF91CF911F910F91FF90EF90DF9039
:100E9000CF90BF90AF909F908F9008954F925F92A8
:100EA0006F927F928F929F92AF92BF92EF92FF923A
:100EB0001F93CF93DF93EC012A013B010E940B03A8
:100EC0004B015C0110E00E940B03DC01CB0188198F
:100ED0009909AA09BB09481659066A067B0628F132
:100EE0008B81113091F00E942502019729F40E9414
:100EF0000B037B0111E0E7CF61E089810E944E0284
:100F000061E08A810E944E02DDCF0E942502019796
:100F1000C9F60E940B03DC01CB018E199F09A109C0
:100F2000B1094497A105B10570F260E089810E9482
:100F30004E0260E08A81DF91CF911F91FF90EF9088
:100F4000BF90AF909F908F907F906F905F904F90E9
:100F50000C944E02CF92DF92EF92FF92CF93DF93E9
:100F6000EC016A017B0161E089810E944E0260E030
:100F70008A810E944E02C701B6010E94D10260E040
:100F800089810E944E0260E08A81DF91CF91FF90BB
:100F9000EF90DF90CF900C944E026115710579F0BF
:100FA000FB0101900020E9F73197AF01461B570B79
:100FB000DC01ED91FC910280F381E02D099480E049
:100FC00090E008954F925F926F927F92EF92FF921E
:100FD0000F931F93CF93DF93CDB7DEB7A1970FB6D3
:100FE000F894DEBF0FBECDBF7C01FA01CB0119A280
:100FF000223008F42AE08E010F5D1F4F422E512C43
:10100000612C712CBF01A30192010E948A0EF9018B
:10101000CA01015011096A3014F4605D01C0695CB5
:10102000D8016C93232B242B252B61F7B801C70122
:101030000E94CD07A1960FB6F894DEBF0FBECDBFBC
:10104000DF91CF911F910F91FF90EF907F906F9064
:101050005F904F9008950F931F93CF93DF93EC0110
:101060000E94CD078C0169E371E0CE010E94CD079B
:10107000800F911FDF91CF911F910F910895CF9312
:10108000DF93CDB7DEB72C970FB6F894DEBF0FBE57
:10109000CDBF789484B5826084BD84B5816084BD01
:1010A00085B5826085BD85B5816085BD80916E0006
:1010B000816080936E001092810080918100826037
:1010C0008093810080918100816080938100809174
:1010D00080008160809380008091B1008460809363
:1010E000B1008091B00081608093B00080917A005F
:1010F000846080937A0080917A00826080937A0085
:1011000080917A00816080937A0080917A00806873
:1011100080937A001092C1001092750210927602AC
:1011200010927702109278021092330210923402D9
:1011300010923502109236020E940B036B017C0163
:101140004B015C0128EB820E2BE0921EA11CB11C0E
:101150000E940B036C157D058E059F0528F08616F1
:101160009706A806B906A0F784E991E09093740267
:1011700080937302E091A401F091A50182E0808345
:10118000E091A001F091A1011082E091A201F09103
:10119000A30180E180831092AC01E091A801F0915D
:1011A000A90186E08083E091A601F091A7018081EA
:1011B00080618083E091A601F091A7018081886021
:1011C0008083E091A601F091A701808180688083EF
:1011D000E091A601F091A70180818F7D80830E941C
:1011E0000B03609333027093340280933502909323
:1011F00036026AE271E080917302909174020E945B
:10120000CD070E940B036B017C014B015C013AE0AE
:10121000830E911CA11CB11C0E940B036C157D0553
:101220008E059F0528F086169706A806B906A0F732
:1012300081E0809347028091AB028C3008F051C06E
:1012400061E089E00E9495028091AB02E82FF0E016
:101250009F01220F331FE20FF31FE758FD4F9081CC
:10126000907C996090831092AC021092AD026CE079
:101270000E94E20E4CE0849FB001112440E050E057
:101280009A01260F371FF901EE0FFF1F2E0F3F1F88
:10129000F901E758FD4F908196FD16C04F5F5F4FF3
:1012A0004C30510569F781110FC01092800082E027
:1012B000809381001092850010928400B19A8091F1
:1012C0006F00826080936F00E091AB02F0E0CF018D
:1012D000880F991FE80FF91FE758FD4F8081806440
:1012E000808388EC95E00E948E062BE044E063E06A
:1012F00087EA92E00E947A042AE046E065E083EA09
:1013000092E00E947A042CE048E067E08FE992E0E6
:101310000E947A0448EB5BE060E070E087EA92E0CC
:101320000E944E0768EE73E080E090E00E94D102D8
:1013300048EB5BE060E070E083EA92E00E944E07D9
:1013400068EE73E080E090E00E94D10248EB5BE041
:1013500060E070E08FE992E00E944E0768EE73E073
:1013600080E090E00E94D102E091A401F091A501FB
:1013700082E08083E091A001F091A1011082E091D0
:10138000A201F091A3018FEC80831092AC01E09157
:10139000A801F091A90186E08083E091A601F09177
:1013A000A701808180618083E091A601F091A7016F
:1013B000808188608083E091A601F091A7018081FF
:1013C00080688083E091A601F091A70180818F7DE4
:1013D000808348E050E060E071E084E991E00E94A1
:1013E00063060E94C606BE016F5F7F4F88E0DB0187
:1013F0001D928A95E9F78EE7898383E08A8383E3E8
:101400008B8384E08D8348E050E084E991E00E9482
:1014100063060E94C60660E08DE00E94950261E0CE
:101420008EE00E94950261E08FE00E94950261E0EB
:1014300080E10E94950261E081E10E94950260E0F6
:1014400082E00E94950260E08EE00E944E0261E020
:101450008FE00E944E0268EE73E080E090E00E9410
:10146000D102109277011092760184EF482E552414
:101470005394612C712C95E0292E312CEE24E394A9
:10148000F12C32E0C32ED12C0E940B03672B682B6A
:10149000692B41F40E940B036230710581059105AF
:1014A00008F414C10E940B0360937C0170937D01CA
:1014B00080937E0190937F010091780110917901D2
:1014C00020917A0130917B016017710782079307A1
:1014D00040F4609378017093790180937A0190933E
:1014E0007B01009178011091790120917A0130916E
:1014F0007B014B015C01801A910AA20AB30A950193
:1015000084010A3F11052105310508F4DFC060930D
:1015100078017093790180937A0190937B014092D6
:101520003F02509240026092410270924202109239
:10153000430210924402109245021092460280919A
:10154000370290913802A0913902B0913A0280930B
:101550003B0290933C02A0933D02B0933E020E9456
:101560000B03609337027093380280933902909393
:101570003A020E940B03609333027093340280930B
:101580003502909336020E940B034B015C016CE321
:1015900071E080917302909174020E94CD072AE05D
:1015A00041E050E060E070E080917302909174023D
:1015B0000E94E20763E471E08091730290917402EB
:1015C0000E94CD072AE0B501A40180917302909199
:1015D00074020E94E20765E471E0809173029091C9
:1015E00074020E94CD078091370290913802A09139
:1015F0003902B0913A02B501A401481B590B6A0B9C
:101600007B0B2AE080917302909174020E94E207A2
:1016100065E471E080917302909174020E94CD079D
:1016200040913702509138026091390270913A022C
:1016300080913B0290913C02A0913D02B0913E020C
:10164000481B590B6A0B7B0B2AE080917302909127
:1016500074020E94E20767E471E080917302909146
:1016600074020E94CD070E940B03AB01BC012AE06B
:1016700080917302909174020E94E20769E471E024
:1016800080917302909174020E942B080E940B03B8
:101690004B015C019B01AC012B5F3F4F4F4F5F4FF4
:1016A00029873A874B875C870E940B036815790569
:1016B0008A059B0508F076C10E940B0360933702F0
:1016C000709338028093390290933A02E091760148
:1016D000F0917701E730F10508F05DC1EC5CFF4F58
:1016E0000C94EE0E10E00CC10E94960458C180913B
:1016F0007401813099F018F0823049F143C08DE0D7
:101700000E942502892BF1F50E940B03709373014F
:101710006093720131E03093740134C08DE00E9417
:101720002502892BC9F40E940B032091720130918C
:101730007301DC01CB01821B930BA109B1094E9708
:10174000A105B105F8F042E0409374011BC08DE0A3
:101750000E942502892B19F01092740113C00E9477
:101760000B032091720130917301DC01CB01821BCC
:10177000930BA109B109CC97A105B10518F053E06D
:101780005093740180917401833009F0FFC010926E
:10179000740111C0109275018DE00E94250201971D
:1017A00009F4F4C00E94960480937501882309F41B
:1017B000EDC0843029F0D0927701C0927601EFC05D
:1017C00083E090E09093770180937601E8C048E54C
:1017D00052E060E070E087EA92E00E94AA076CE4C1
:1017E00074E080E090E00E94D10240E253E060E0CB
:1017F00070E087EA92E00E944E076CE474E080E0BB
:1018000090E00E94D10246E252E060E070E083EA9C
:1018100092E00E94AA076CE474E080E090E00E94ED
:10182000D1024CEB52E060E070E083EA92E00E946B
:101830004E076CE474E080E090E00E94D10246E242
:1018400052E060E070E08FE992E00E94AA076CE449
:1018500074E080E090E00E94D10248EE53E060E046
:1018600070E08FE992E00E944E076CE474E080E043
:1018700090E00E94D102A4E0B0E0B0937701A09381
:1018800076018DC080917501823069F08330A1F0BE
:10189000813009F560E571E084E991E00E942B0850
:1018A00080E293E020C067E571E084E991E00E9466
:1018B0002B0884E398E017C06EE571E084E991E0BD
:1018C0000E942B0884E398E00E948E0664EC79E085
:1018D00080E090E00EC065E671E084E991E00E944E
:1018E0002B0888EC95E00E948E066CED75E080E098
:1018F00090E00E94D10230927701209276014FC091
:101900001130F0F78DE00E9425020197C9F70E947F
:101910000B038B018DE00E942502019709F04DC059
:101920000E940B03DC01CB01801B910BA109B109C3
:101930004E97A105B10570F38DE00E942502019735
:10194000E1F50E940B03DC01CB01801B910BA10987
:10195000B109CC97A105B10578F388EC95E00E9418
:101960008E0680917501813088F0833038F08330A5
:1019700069F460ED77E080E090E004C06CED75E024
:1019800080E090E00E94D10210927501F092770100
:10199000E092760104C010927701109276010E94C5
:1019A000320172CD29853A854B855C85261737072C
:1019B0004807590708F078CE7FCE10E0A3CF1092E9
:1019C00097011092960188EE93E0A0E0B0E080933A
:1019D000980190939901A0939A01B0939B018CE197
:1019E00091E0909395018093940185EC90E0909321
:1019F000A1018093A00184EC90E09093A3018093D7
:101A0000A20180EC90E09093A5018093A40181EC69
:101A100090E09093A7018093A60182EC90E09093D0
:101A2000A9018093A80186EC90E09093AB0180938C
:101A3000AA011092AD011092AE011092AF01109266
:101A4000B0011092370210923802109239021092AF
:101A50003A0210923B0210923C0210923D02109208
:101A60003E0210923F0210924002109241021092E8
:101A700042021092430210924402109245021092C8
:101A8000460280919D028C30A0F491E0980F9093D3
:101A90009D028093AB0290E0FC01EE0FFF1F8E0FC2
:101AA0009F1FFC01E758FD4F88EB9BE092838183E9
:101AB00003C08FEF8093AB0281E08093A70282E0A6
:101AC0008093A30283E080939F0208950E94A80D53
:101AD00008F481E00895E89409C097FB3EF49095DE
:101AE0008095709561957F4F8F4F9F4F9923A9F0F7
:101AF000F92F96E9BB279395F69587957795679586
:101B0000B795F111F8CFFAF4BB0F11F460FF1BC0C9
:101B10006F5F7F4F8F4F9F4F16C0882311F096E95C
:101B200011C0772321F09EE8872F762F05C066230A
:101B300071F096E8862F70E060E02AF09A95660FC3
:101B4000771F881FDAF7880F9695879597F908957C
:101B5000990F0008550FAA0BE0E8FEEF16161706BE
:101B6000E807F907C0F012161306E407F50798F026
:101B7000621B730B840B950B39F40A2661F0232B3F
:101B8000242B252B21F408950A2609F4A140A695BB
:101B90008FEF811D811D08950E94DF0D0C94500E62
:101BA0000E94420E38F00E94490E20F0952311F059
:101BB0000C94390E0C943F0E11240C94840E0E9448
:101BC000610E70F3959FC1F3950F50E0551F629F12
:101BD000F001729FBB27F00DB11D639FAA27F00D86
:101BE000B11DAA1F649F6627B00DA11D661F829FAD
:101BF0002227B00DA11D621F739FB00DA11D621F92
:101C0000839FA00D611D221F749F3327A00D611DAE
:101C1000231F849F600D211D822F762F6A2F112490
:101C20009F5750409AF0F1F088234AF0EE0FFF1FC3
:101C3000BB1F661F771F881F91505040A9F79E3F1A
:101C4000510580F00C94390E0C94840E5F3FE4F340
:101C5000983ED4F3869577956795B795F795E79570
:101C60009F5FC1F7FE2B880F911D9695879597F979
:101C7000089597F99F6780E870E060E008959FEF0E
:101C800080EC089500240A94161617061806090613
:101C9000089500240A9412161306140605060895E2
:101CA000092E0394000C11F4882352F0BB0F40F46A
:101CB000BF2B11F460FF04C06F5F7F4F8F4F9F4FAA
:101CC000089557FD9058440F551F59F05F3F71F02C
:101CD0004795880F97FB991F61F09F3F79F0879593
:101CE0000895121613061406551FF2CF4695F1DF1C
:101CF00008C0161617061806991FF1CF86957105AC
:101D0000610508940895E894BB2766277727CB01DF
:101D100097F90895A1E21A2EAA1BBB1BFD010DC065
:101D2000AA1FBB1FEE1FFF1FA217B307E407F5078B
:101D300020F0A21BB30BE40BF50B661F771F881F67
:101D4000991F1A9469F760957095809590959B01FD
:101D5000AC01BD01CF0108950E94B30E6894B1118A
:101D60000C94840E08950E94690E88F09F5798F095
:101D7000B92F9927B751B0F0E1F0660F771F881F90
:101D8000991F1AF0BA95C9F714C0B13091F00E94AA
:101D9000830EB1E008950C94830E672F782F882767
:101DA000B85F39F0B93FCCF3869577956795B395D1
:101DB000D9F73EF490958095709561957F4F8F4F40
:101DC0009F4F0895991B79E004C0991F961708F05A
:101DD000961B881F7A95C9F780950895EE0FFF1F0F
:101DE0000590F491E02D099481E090E0F8940C9432
:061DF000F90EF894FFCF8C
:101DF6007E020EEF000000008A018A0152B89E3E64
:101E0600EC51B83EA470BD3E00000000BC01630664
:101E1600F5000302260104011801564D4450565F91
:101E2600317C315F564D4450560D0A00564D445094
:101E3600455F003A323A007C005F564D44504500FB
:101E460063617365203100636173652032006361ED
:101E56007365203300636173652064656661756C24
:021E6600740006
:107E0000112484B714BE81FFF0D085E080938100F7
:107E100082E08093C00088E18093C10086E0809377
:107E2000C20080E18093C4008EE0C9D0259A86E02C
:107E300020E33CEF91E0309385002093840096BBD3
:107E4000B09BFECF1D9AA8958150A9F7CC24DD24C4
:107E500088248394B5E0AB2EA1E19A2EF3E0BF2EE7
:107E6000A2D0813461F49FD0082FAFD0023811F036
:107E7000013811F484E001C083E08DD089C08234E0
:107E800011F484E103C0853419F485E0A6D080C0E4
:107E9000853579F488D0E82EFF2485D0082F10E0AE
:107EA000102F00270E291F29000F111F8ED06801E7
:107EB0006FC0863521F484E090D080E0DECF843638
:107EC00009F040C070D06FD0082F6DD080E0C81688
:107ED00080E7D80618F4F601B7BEE895C0E0D1E017
:107EE00062D089930C17E1F7F0E0CF16F0E7DF06D8
:107EF00018F0F601B7BEE89568D007B600FCFDCFD4
:107F0000A601A0E0B1E02C9130E011968C91119780
:107F100090E0982F8827822B932B1296FA010C0160
:107F200087BEE89511244E5F5F4FF1E0A038BF0790
:107F300051F7F601A7BEE89507B600FCFDCF97BE46
:107F4000E89526C08437B1F42ED02DD0F82E2BD052
:107F50003CD0F601EF2C8F010F5F1F4F84911BD097
:107F6000EA94F801C1F70894C11CD11CFA94CF0C13
:107F7000D11C0EC0853739F428D08EE10CD085E9AC
:107F80000AD08FE07ACF813511F488E018D01DD067
:107F900080E101D065CF982F8091C00085FFFCCF94
:107FA0009093C60008958091C00087FFFCCF809118
:107FB000C00084FD01C0A8958091C6000895E0E648
:107FC000F0E098E1908380830895EDDF803219F02E
:107FD00088E0F5DFFFCF84E1DECF1F93182FE3DFCA
:107FE0001150E9F7F2DF1F91089580E0E8DFEE27F6
:047FF000FF270994CA
:027FFE00040479
:0400000300007E007B
:00000001FF