:100000000C94D5090C94F6090C94F6090C94F60995
:100010000C94F6090C94F6090C94F6090C94F60964
:100020000C94F6090C94F6090C94F6090C94F60954
:100030000C94F6090C94F6090C94F6090C94F60944
:100040000C94F6090C94E9310C94F6090C94F60919
:100050000C94F6090C94F6090C94112E0C94AD2D09
:100060000C94F6090C948B220C94F6090C94F60966
:100070000C94F6090C94F6090C94F6090C94F60904
:100080000C94F6090C94F6090C94F6090C94F609F4
:100090000C94F6090C94F6090C94F6090C94F609E4
:1000A0000C94F6090C94F6090C94F6090C94F609D4
:1000B0000C94F6090C94F6090C94F6090C94F609C4
:1000C0000C94F6090C94F6090C94F6090C94F609B4
:1000D0000C94F6090C94F6090C94F6090C94F609A4
:1000E0000C94F609AF2BB22BA12BA52BAB2BE92B34
:1000F000B62BBA2BC02BC42BC82BCE2BD22BD62B76
:10010000E92BDC2BE02BE42BC92CCE2CD32CDD2CC3
:10011000E72C602DF12CF92C012D0B2D152D1F2D09
:100120002E2D382D602D422D4C2D562D6D2E7A2ED4
:10013000962EA32EBD2ECA2EE42EE62EE82EEA2EF3
:10014000F22E084AD73B3BCE016E84BCBFFDC12FC7
:100150003D6C74319ABD56833DDA3D00C77F11BEB8
:10016000D9E4BB4C3E916BAAAABE000000803F05BB
:10017000A84CCDB2D44EB93836A9020C50B99186EC
:1001800088083CA6AAAA2ABE000000803F004E4173
:100190004E494E495459494E46CDCCCC3D0AD72301
:1001A0003C17B7D13877CC2B329595E6241FB14F49
:1001B0000A000020410000C84200401C4620BCBE8E
:1001C0004CCA1B0E5AAEC59D7450494420417574EB
:1001D0006F74756E652066696E6973686564212049
:1001E00050757420746865206C617374204B702C9A
:1001F000204B6920616E64204B6420636F6E7374C2
:10020000616E74732066726F6D2061626F76652017
:10021000696E746F20436F6E666967757261746989
:100220006F6E2E6800504944204175746F74756E6E
:1002300065206661696C6564212074696D656F7500
:10024000740020403A006F6B20543A006F6B2042DC
:100250003A00504944204175746F74756E6520668C
:1002600061696C6564212054656D70657261747597
:10027000726520746F6F206869676800204B643A6C
:100280002000204B693A2000204B703A2000204388
:100290006C61737369632050494420002054753A9F
:1002A0002000204B753A2000206D61783A20002014
:1002B0006D696E3A200020643A2000206269617303
:1002C0003A200053657474696E67732053746F72BB
:1002D0006564002200556E6B6E6F776E20636F6DE4
:1002E0006D616E643A2022007A5F6D61783A200079
:1002F0007A5F6D696E3A2000795F6D61783A20000F
:10030000795F6D696E3A2000785F6D61783A200000
:10031000785F6D696E3A2000205A5F616E676C6588
:100320000020595F616E676C653A0020585F616E0E
:10033000676C653A00205A3A0020593A0020436F12
:10034000756E7420583A200020453A00205A3A0031
:1003500020593A00583A004649524D574152455F9C
:100360004E414D453A446F626F742056312E302E07
:10037000323B20537072696E7465722F6772626CC3
:10038000206D617368757020666F722067656E36C8
:10039000204649524D574152455F55524C3A687478
:1003A0007470733A2F2F6769746875622E636F6D6E
:1003B0002F4D61726C696E4669726D776172652F3F
:1003C0004D61726C696E2050524F544F434F4C5FD9
:1003D00056455253494F4E3A312E30204D414348F5
:1003E000494E455F545950453A446F626F742045F9
:1003F000585452554445525F434F554E543A31205C
:10040000555549443A30303030303030302D30306E
:1004100030302D303030302D303030302D303030E5
:100420003030303030303030300A0020423A002056
:10043000453A00543A0020573A0020453A00543AD1
:100440000057002042403A00570020403A00202F39
:10045000003A00205400202F0020423A00202F00B4
:100460006F6B20543A002569206D696E2C20256938
:10047000207365630020453A00205A3A0020593A1B
:100480000020583A00656E6473746F707320686959
:10049000743A20006563686F3A00204400204900E8
:1004A0002020204D333031205000504944207365C6
:1004B0007474696E67733A00205A00205900202036
:1004C0004D323036205800486F6D65206F66667378
:1004D000657420286D6D293A00204500205A0020BF
:1004E000580020420020540020204D323035205347
:1004F00000416476616E6365642076617269616251
:100500006C65733A20533D4D696E20666565647273
:1005100061746520286D6D2F73292C20543D4D6921
:100520006E2074726176656C2066656564726174B4
:100530006520286D6D2F73292C20423D6D696E69F1
:100540006D756D207365676D656E742074696D657A
:1005500020286D73292C20583D6D6178696D756D6B
:10056000205859206A65726B20286D6D2F73292CD5
:1005700020205A3D6D6178696D756D205A206A653D
:10058000726B20286D6D2F73292C2020453D6D61E5
:1005900078696D756D2045206A65726B20286D6DD8
:1005A0002F73290020540020204D32303420530076
:1005B000416363656C65726174696F6E3A20533D87
:1005C000616363656C65726174696F6E2C20543D64
:1005D0007265747261637420616363656C657261D6
:1005E00074696F6E00204500205A002059002020B9
:1005F0004D3230312058004D6178696D756D204164
:100600006363656C65726174696F6E20286D6D2F10
:100610007332293A00204500205A0020590020203A
:100620004D3230332058004D6178696D756D20660C
:10063000656564726174657320286D6D2F73293A46
:1006400000205A0020590020204D33363820580011
:100650004D414E55414C5F484F4D455F504F5320E3
:10066000666163746F72733A00205A00205900204B
:10067000204D3336372058004441524D5F4F464697
:1006800053455420666163746F72733A00204800CA
:1006900020430020530020204D33363620420042B4
:1006A0003D4C6F77657261726D20286D6D292C202D
:1006B000533D557070657261726D20286D6D292CE7
:1006C00020433D43656E6365724F666673657220B5
:1006D000286D6D292C20483D486561644F6666731E
:1006E000657420286D6D2900204500205A0020598E
:1006F0000020204D393220580053746570732070EB
:10070000657220756E69743A0053746F7265642067
:1007100073657474696E6773207265747269657647
:1007200065640048617264636F6465642044656653
:1007300061756C742053657474696E6773204C6FB7
:1007400061646564002020506C616E6E6572427554
:100750006666657242797465733A20002046726558
:1007600065204D656D6F72793A20005365702031B8
:1007700031203230313700436F6D70696C65643AF7
:100780002000286E6F6E652C2064656661756C7440
:1007900020636F6E6669672900207C20417574684C
:1007A0006F723A200053657020313120323031377A
:1007B0002031363A32353A333600204C617374209A
:1007C000557064617465643A20002000312E302E2B
:1007D00032004D61726C696E0020536F66747761F0
:1007E0007265205265736574002057617463686494
:1007F0006F67205265736574002042726F776E20B8
:100800006F75742052657365740020457874657245
:100810006E616C20526573657400506F7765725518
:1008200070007374617274005072696E7465722026
:1008300073746F707065642064756520746F2065D3
:1008400072726F72732E2046697820746865206515
:1008500072726F7220616E6420757365204D393934
:100860003920746F20726573746172742E2028545D
:10087000656D70657261747572652069732072654B
:100880007365742E205365742069742061667465E5
:10089000722072657374617274696E6729004E6F9D
:1008A000204C696E65204E756D62657220776974A3
:1008B0006820636865636B73756D2C204C6173747D
:1008C000204C696E653A20004E6F20436865636B6B
:1008D00073756D2077697468206C696E65206E751C
:1008E0006D6265722C204C617374204C696E653AA0
:1008F0002000636865636B73756D206D69736D614E
:100900007463682C204C617374204C696E653A20C6
:10091000004C696E65204E756D62657220697320AA
:100920006E6F74204C617374204C696E65204E7537
:100930006D6265722B312C204C617374204C696E92
:10094000653A20004D31313000526573656E643A6E
:1009500020006F6B005072696E7465722068616C64
:100960007465642E206B696C6C28292063616C6C43
:10097000656421005072696E7465722073746F70C3
:100980007065642064756520746F206572726F7283
:10099000732E2046697820746865206572726F72C4
:1009A00020616E6420757365204D39393920746F6C
:1009B00020726573746172742E202854656D7065A1
:1009C0007261747572652069732072657365742E27
:1009D00020536574206974206166746572207265A5
:1009E0007374617274696E672900000048430000E7
:1009F00048430000614300000000000000000000C8
:100A000000000000B0C1000050C2CDCCCC3D0000C1
:100A100040400000404000004040000048430000CB
:100A20004843000061430101FF3A20457874727524
:100A3000646572207377697463686564206F6666A5
:100A40002E204D415854454D50207472696767659A
:100A50007265642021003A2045787472756465726D
:100A6000207377697463686564206F66662E204D15
:100A7000494E54454D5020747269676765726564CC
:100A80002021004572726F723A000000210024009C
:100A900027002A002D00300033000101000004016E
:100AA00007010A0100002200250028002B002E006B
:100AB0003100340002010000050108010B010000B3
:100AC00020002300260029002C002F003200000106
:100AD00000000301060109010505050507050808D1
:100AE0000808020202020A0A0808040404040101B8
:100AF00001010101010103030303030303030407CD
:100B000007070C0C0C0C0C0C0C0C02020202060663
:100B10000606060606060B0B0B0B0B0B0B0B010256
:100B200010202008081020401020408002010201FF
:100B300008040201010204081020408080402010B7
:100B40000804020180040201804020100804020110
:100B50000804020101020408102040800102040878
:100B60001020408000000A0B02090C0D0E0807033C
:100B70000401000000000000000000000000000070
:100B80000000000000000000000000000000000065
:100B90001211100000000000000000000000000022
:100BA0000000000000000000000024F4D43050C316
:100BB0008E20C2A24017828B7011127A910D816C27
:100BC000D90AA861E108C7586607615143061E4B60
:100BD0005D05C145A7041A411104093D9803713907
:100BE00031034036DB0265339102D4305402802E4B
:100BF0001D02632CEE01752AC501B028A001102743
:100C000081018F2564012B244B01E0223401AC21AA
:100C10001F018D200D01801FFC00841EED00971D1B
:100C2000DF00B81CD200E61BC600201BBC00641A03
:100C3000B200B219A8000A19A0006A189900D117C9
:100C4000910040178B00B516840031167E00B31555
:100C500079003A157300C7146F0058146A00EE1338
:100C600066008813630025135E00C7125B006C12D8
:100C7000570015125400C111510070114F0021117D
:100C80004B00D61049008D1047004610440002105A
:100C90004200C00F4000800F3E00420F3C00060F94
:100CA0003B00CB0E3800930E37005C0E3500270E4C
:100CB0003400F30D3200C10D3100900D3000600D95
:100CC0002E00320D2D00050D2C00D90C2B00AE0C82
:100CD0002900850C29005C0C2700350C27000E0C20
:100CE0002600E80B2400C40B2400A00B23007D0B7E
:100CF00023005A0B2100390B2100180B2000F80AA1
:100D00001F00D90A1E00BB0A1E009D0A1D00800A92
:100D10001D00630A1C00470A1B002C0A1B00110A55
:100D20001A00F7091A00DD091900C4091900AB09F6
:100D30001900920917007B091800630917004C0974
:100D4000160036091600200916000A091500F508D4
:100D50001500E0081400CC081400B8081400A4081A
:100D60001400900813007D0812006B081300580847
:100D7000120046081200340811002308110012085E
:100D8000110001081100F0071000E0071000D00763
:100D90001000C0071000B0070F00A1071000910756
:100DA0000E0083070F0074070F0065070E0057073A
:100DB0000E0049070E003B070D002E070E0020070E
:100DC0000D0013070D0006070D00F9060C00ED06D7
:100DD0000D00E0060C00D4060C00C8060C00BC0692
:100DE0000C00B0060C00A4060B0099060C008D0642
:100DF0000B0082060B0077060B006C060B006106E9
:100E00000A0057060B004C060A0042060A00380684
:100E10000A002E060A0024060A001A060A00100616
:100E2000090007060A00FD050900F4050900EB05A5
:100E30000900E2050900D9050900D0050900C70528
:100E40000900BE050900B5050800AD050800A505A7
:100E500009009C050800940508008C05080084051D
:100E600008007C050800740508006C05070065058E
:100E700008005D050700560508004E0507004705F8
:100E800007004005080038050700310507002A055E
:100E90000700230507001C050600160507000F05BF
:100EA00007000805060002050700FB040600F5041C
:100EB0000700EE040600E8040600E2040700DB0475
:100EC0000600D5040600CF040600C9040600C304CA
:100ED0000600BD040600B7040600B1040500AC041A
:100EE0000600A6040600A00405009B040600950465
:100EF0000500900406008A040500850405008004AE
:100F000006007A04050075040500700405006B04F2
:100F1000050066040500610405005C040500570433
:100F20000500520405004D04050048040500430473
:100F300005003E0404003A040500350405003004B1
:100F400004002C04050027040400230405001E04EB
:100F500004001A04040016040500110404000D0422
:100F60000400090405000404040000040400FC0358
:100F70000400F8030400F4030400F0030400EC038D
:100F80000400E8030400E4030400E0030400DC03BD
:100F90000400D8030400D4030400D0030400CC03ED
:100FA0000400C8030300C503030024F404D9201B74
:100FB000C40C5C0E9804C4095F0265077101F40556
:100FC000F900FB04B30048048700C103690058031B
:100FD000550003034500BE023A008402310053026B
:100FE0002A002902250004022000E4011C00C80197
:100FF0001900AF011700980114008401130071015A
:1010000010006101100051010E0043010D00360176
:101010000B002B010B0020010B00150109000C0136
:10102000090003010800FB000800F3000800EB00C2
:101030000700E4000600DE000600D8000600D2002B
:101040000600CC000500C7000500C2000500BD0079
:101050000400B9000400B5000400B1000400AD00B4
:101060000400A9000400A5000300A20003009F00E3
:1010700004009B0003009800030095000200930009
:101080000300900003008D0002008B000300880025
:1010900002008600020084000300810002007F003D
:1010A00002007D0002007B00020079000200770050
:1010B000010076000200740002007200010071005D
:1010C00002006F0002006D0001006C0002006A0067
:1010D0000100690002006700010066000100650070
:1010E0000100640002006200010061000100600074
:1010F00001005F0002005D0001005C0001005B0078
:1011000001005A0001005900010058000100570079
:101110000100560001005500010054000100530079
:101120000000530001005200010051000100500076
:1011300001004F0001004E0000004E0001004D0074
:1011400001004C0001004B0000004B0001004A0070
:10115000010049000100480000004800010047006C
:101160000100460000004600010045000000450067
:101170000100440001004300000043000100420060
:101180000000420001004100000041000100400059
:1011900001003F0000003F0001003E0000003E0053
:1011A00001003D0000003D0001003C0000003C004B
:1011B00000003C0001003B0000003B0001003A0041
:1011C00000003A0001003900000039000100380039
:1011D0000000380000003800010037000000370030
:1011E0000100360000003600000036000100350026
:1011F000000035000000350001003400000034001C
:101200000000340001003300000033000000330010
:101210000100320000003200000032000100310005
:1012200000003100000031000100300000003000FB
:101230000000300001002F0000002F0000002F00F0
:1012400000002F0001002E0000002E0000002E00E4
:1012500001002D0000002D0000002D0000002D00D9
:1012600001002C0000002C0000002C0000002C00CD
:1012700001002B0000002B0000002B0000002B00C1
:1012800001002A0000002A0000002A0000002A00B5
:1012900001002900000029000000290000002900A9
:1012A000000029000100280000002800000028009C
:1012B000000028000000280001002700000027008F
:1012C0000000270000002700000027000100260082
:1012D0000000260000002600000026000000260076
:1012E0000100250000002500000025000000250069
:1012F000000025000000250001002400000024005B
:10130000000024000000240000002400010023004D
:101310000000230000002300000023000000230041
:101320000000230000002300010022000000220032
:101330000000220000002200000022000000220025
:101340000100210000002100000021000000210018
:101350000000210000002100000021000100200009
:1013600000002000000020000000200000002000FD
:1013700000002000000020000000200001001F00ED
:1013800000001F0000001F0000001F0000001F00E1
:1013900000001F0000001F0001001E0000001E00D2
:1013A00000001E0000001E00000011241FBECFEF31
:1013B000D1E2DEBFCDBF00E00CBF14E0A0E0B2E0A0
:1013C000E6EAF3EC00E00BBF02C007900D92AA33EF
:1013D000B107D9F72DE0AAE3B4E001C01D92AF3008
:1013E000B207E1F70E94A43B0C94D1610C94000079
:1013F000FC01CB01BA012491222341F03091C000BD
:1014000035FFFCCF2093C6003196F5CF4AE00C940F
:10141000FF13EF92FF921F93CF93DF937C01C62FB0
:10142000D72F142F160FF701808191810E94305E13
:101430008993F701808191810196918380831C13A8
:10144000F2CFDF91CF911F91FF90EF900895FC01B3
:10145000CB01BA012491222341F03091C00035FF25
:10146000FCCF2093C6003196F5CF42E00C94861451
:101470002F923F924F925F926F927F928F929F92A4
:10148000AF92BF92CF92DF92EF92FF920F931F9392
:10149000CF93DF93CDB7DEB7E0970FB6F894DEBFFA
:1014A0000FBECDBF80E1E8ECF2E0DE019196019045
:1014B0000D928A95E1F780E1E8EDF2E0DE015196C8
:1014C00001900D928A95E1F780E1E8EEF2E0DE010D
:1014D000119601900D928A95E1F7DE01919602EC4A
:1014E0001BE0BE016F5E7F4F40E856E0CE010196E3
:1014F0006C012DEC35E091E0292E92E0392E7E0131
:1015000091E3E90EF11C812C912CE0E8AE2EEFE383
:10151000BE2E4D905D906D907D90F801419251925C
:10152000619271928F01FB01419051906190719095
:10153000BF01FA014192519261927192AF01F6019D
:1015400041905190619071906F01F90141925192D7
:10155000619271929F01F10181929192A192B19257
:101560001F01AE15BF05A9F60E94873980E090E003
:10157000A8ECB3E48093780690937906A0937A065A
:10158000B0937B0680E090E0AAEFB4E480937C0601
:1015900090937D06A0937E06B0937F0610929006EE
:1015A00010929106109292061092930680E29EE4A9
:1015B000A0E0B0E08093C9059093CA05A093CB0545
:1015C000B093CC0510929406109295061092960650
:1015D0001092970680E090E0A0EAB0E48093640661
:1015E00090936506A0936606B09367068DEC9CEC1D
:1015F000ACECBEE38093600690936106A093620614
:10160000B0936306C12CD12C80E4E82EFE2CC0924E
:101610005C06D0925D06E0925E06F0925F06109244
:10162000F3051092F4051092F5051092F60510924C
:10163000EF051092F0051092F1051092F20510924C
:10164000EB051092EC051092ED051092EE0580E08E
:1016500090E0A7E0B3E48093250290932602A09344
:101660002702B093280280E090E0AAE2B3E48093DE
:10167000210290932202A0932302B093240280E0DF
:1016800090E0A2E8B2E480931D0290931E02A09322
:101690001F02B093200280E090E0A8E4B2E48093BF
:1016A000190290931A02A0931B02B0931C0280E0CF
:1016B00090E0A6E6B3E480930D0290930E02A0930F
:1016C0000F02B093100210921102109212021092A7
:1016D00013021092140280E090E0A2E8B2EC809332
:1016E000150290931602A0931702B093180210925D
:1016F000F7051092F8051092F9051092FA0510926C
:10170000FB051092FC051092FD051092FE0510924B
:10171000FF0510920006109201061092020680E06A
:1017200090E0A4ECB1E48093410290934202A09334
:101730004302B093440280EC9AEDA6E6BEE38093A8
:101740003D0290933E02A0933F02B09340028AEE86
:1017500094E5A7E2B4E48093390290933A02A0930F
:101760003B02B0933C020E949F3180E090E0A0E8F1
:10177000BFE38093350290933602A0933702B09373
:1017800038021092DD05C0924702D0924802E092E2
:101790004902F0924A020E944824E4E9F4E084916C
:1017A000882341F09091C00095FFFCCF8093C60044
:1017B0003196F5CFE3E2F7E08491882341F09091F0
:1017C000C00095FFFCCF8093C6003196F5CF809185
:1017D000C00085FFFCCF8AE08093C600E0960FB67C
:1017E000F894DEBF0FBECDBFDF91CF911F910F9157
:1017F000FF90EF90DF90CF90BF90AF909F908F9031
:101800007F906F905F904F903F902F900895CF936F
:10181000DF93C4E9D4E0FE018491882341F09091E4
:10182000C00095FFFCCF8093C6003196F5CFE9EF5D
:10183000F6E08491882341F09091C00095FFFCCFA1
:101840008093C6003196F5CF8091C00085FFFCCF14
:101850008AE08093C600FE018491E4E9F4E08823E5
:1018600049F09091C00095FFFCCF8093C60031965F
:101870008491F5CF4091C20B5091C30B6091C40B82
:101880007091C50B81EF96E0E2DD4091C60B50915F
:10189000C70B6091C80B7091C90B8EEE96E0D7DD37
:1018A0004091CA0B5091CB0B6091CC0B7091CD0B3A
:1018B0008BEE96E0CCDD4091CE0B5091CF0B60913A
:1018C000D00B7091D10B88EE96E0C1DD8091C00005
:1018D00085FFFCCF8AE08093C600FE018491E4E995
:1018E000F4E0882349F09091C00095FFFCCF8093ED
:1018F000C60031968491F5CFEFE9F6E08491882314
:1019000041F09091C00095FFFCCF8093C6003196C6
:10191000F5CF8091C00085FFFCCF8AE08093C600A0
:10192000FE018491E4E9F4E0882349F09091C0003D
:1019300095FFFCCF8093C60031968491F5CF4091FE
:10194000250250912602609127027091280286E9B3
:1019500096E07DDD409121025091220260912302A8
:101960007091240283E996E072DD40911D0250914E
:101970001E0260911F027091200280E996E067DDEF
:101980004091190250911A0260911B0270911C0241
:101990008DE896E05CDD8091C00085FFFCCF8AE099
:1019A0008093C600FE018491E4E9F4E0882349F0C5
:1019B0009091C00095FFFCCF8093C6003196849132
:1019C000F5CFE8E7F6E08491882341F09091C000DC
:1019D00095FFFCCF8093C6003196F5CF8091C00073
:1019E00085FFFCCF8AE08093C600FE018491E4E984
:1019F000F4E0882349F09091C00095FFFCCF8093DC
:101A0000C60031968491F5CF40910D0250910E029F
:101A100060910F02709110028FE696E018DD409100
:101A200011025091120260911302709114028CE61F
:101A300096E00DDD4091150250911602609117025B
:101A40007091180289E696E002DD8091C00085FF62
:101A5000FCCF8AE08093C600FE018491E4E9F4E0C3
:101A6000882349F09091C00095FFFCCF8093C60079
:101A700031968491F5CFE0E5F6E08491882341F03A
:101A80009091C00095FFFCCF8093C6003196F5CFB2
:101A90008091C00085FFFCCF8AE08093C600FE01E4
:101AA0008491E4E9F4E0882349F09091C00095FF27
:101AB000FCCF8093C60031968491F5CF4091F70515
:101AC0005091F8056091F9057091FA0587E496E068
:101AD000BEDC4091FB055091FC056091FD057091C5
:101AE000FE0584E496E0B3DC4091FF0550910006CA
:101AF000609101067091020681E496E0A8DC809175
:101B0000C00085FFFCCF8AE08093C600FE0184916F
:101B1000E4E9F4E0882349F09091C00095FFFCCF00
:101B20008093C60031968491F5CFE7E2F6E0849188
:101B3000882341F09091C00095FFFCCF8093C600B0
:101B40003196F5CF8091C00085FFFCCF8AE080936D
:101B5000C600FE018491E4E9F4E0882349F0909105
:101B6000C00095FFFCCF8093C60031968491F5CFDD
:101B700040918006509181066091820670918306A3
:101B80008EE196E064DC4091840650918506609178
:101B90008606709187068BE196E059DC40918806B5
:101BA0005091890660918A0670918B0688E196E0D3
:101BB0004EDC40918C0650918D0660918E0670919E
:101BC0008F0685E196E043DC8091C00085FFFCCF65
:101BD0008AE08093C600FE018491E4E9F4E0882362
:101BE00049F09091C00095FFFCCF8093C6003196DC
:101BF0008491F5CFE7EFF5E08491882341F090914F
:101C0000C00095FFFCCF8093C6003196F5CF809140
:101C1000C00085FFFCCF8AE08093C600FE0184915E
:101C2000E4E9F4E0882349F09091C00095FFFCCFEF
:101C30008093C60031968491F5CF4091CD055091A7
:101C4000CE056091CF057091D0058EEE95E0D0DB8A
:101C50004091D1055091D2056091D3057091D40582
:101C60008BEE95E0C5DB4091D5055091D60560918E
:101C7000D7057091D80588EE95E0BADB4091D9057B
:101C80005091DA056091DB057091DC0585EE95E0F9
:101C9000AFDB8091C00085FFFCCF8AE08093C60057
:101CA000FE018491E4E9F4E0882349F09091C000BA
:101CB00095FFFCCF8093C60031968491F5CFE0EB81
:101CC000F5E08491882341F09091C00095FFFCCF0E
:101CD0008093C6003196F5CF8091C00085FFFCCF80
:101CE0008AE08093C600FE018491E4E9F4E0882351
:101CF00049F09091C00095FFFCCF8093C6003196CB
:101D00008491F5CF409178065091790660917A06DA
:101D100070917B0687EA95E09ADB40917C065091B2
:101D20007D0660917E0670917F0684EA95E08FDBE8
:101D30008091C00085FFFCCF8AE08093C600FE0141
:101D40008491E4E9F4E0882349F09091C00095FF84
:101D5000FCCF8093C60031968491F5CFE1EFF4E09B
:101D60008491882341F09091C00095FFFCCF80932F
:101D7000C6003196F5CF8091C00085FFFCCF8AE088
:101D80008093C600FE018491E4E9F4E0882349F0E1
:101D90009091C00095FFFCCF8093C600319684914E
:101DA000F5CF409190065091910660919206709106
:101DB000930688EE94E04BDB409194065091950693
:101DC000609196067091970685EE94E040DB409115
:101DD000C9055091CA056091CB057091CC0582EE82
:101DE00094E006DB409164065091650660916606BA
:101DF000709167068FED94E02ADB40916006509168
:101E0000610660916206709163068CED94E01FDBC1
:101E100040915C0650915D0660915E0670915F0690
:101E200089ED94E014DB8091C00085FFFCCF8AE04F
:101E30008093C600FE018491E4E9F4E0882349F030
:101E40009091C00095FFFCCF8093C600319684919D
:101E5000F5CFE7ECF4E08491882341F09091C00045
:101E600095FFFCCF8093C6003196F5CF8091C000DE
:101E700085FFFCCF8AE08093C600FE018491E4E9EF
:101E8000F4E0882349F09091C00095FFFCCF809347
:101E9000C60031968491F5CF4091EB055091EC0549
:101EA0006091ED057091EE058EEB94E0D0DA4091F3
:101EB000EF055091F0056091F1057091F2058BEB03
:101EC00094E0C5DA4091F3055091F4056091F50571
:101ED0007091F60588EB94E0BADA8091C00085FF36
:101EE000FCCF8AE08093C600FE018491E4E9F4E02F
:101EF000882349F09091C00095FFFCCF8093C600E5
:101F000031968491F5CFEAEAF4E08491882341F098
:101F10009091C00095FFFCCF8093C6003196F5CF1D
:101F20008091C00085FFFCCF8AE08093C600FE014F
:101F3000C491E4E9F4E0CC2349F08091C00085FF2E
:101F4000FCCFC093C6003196C491F5CF40914102B9
:101F500050914202609143027091440280EA94E001
:101F600076DA2DEB37E346E05EE360913D02709157
:101F70003E0280913F02909140020E946D5FAB0152
:101F8000BC018DE994E063DA2DEB37E346E05EE3D4
:101F90006091390270913A0280913B0290913C022B
:101FA0000E948357AB01BC018AE994E050DA80912A
:101FB000C00085FFFCCF8AE08093C600DF91CF91FF
:101FC0000895CF93DF93CDB7DEB768970FB6F89437
:101FD000DEBF0FBECDBF84E690E0988F8F8B86E585
:101FE00091E3A3E3B0E089839A83AB83BC8344E0AD
:101FF000BE016B5F7F4FCE0147960BDA43E050E0A6
:10200000BE016B5F7F4FCE0101960E94C361892B99
:1020100009F0EFC040E162EC7BE0CE014796F9D9D0
:1020200040E160E876E0CE014796F3D940E16DECFF
:1020300075E0CE014796EDD90E94873944E068E704
:1020400076E0CE014796E5D944E06CE776E0CE0134
:102050004796DFD944E060E976E0CE014796D9D9CA
:1020600044E064E976E0CE014796D3D944E069ECD8
:1020700075E0CE014796CDD944E064E676E0CE0126
:102080004796C7D944E060E676E0CE014796C1D9CD
:1020900044E06CE576E0CE014796BBD94CE06BEEB0
:1020A00075E0CE014796B5D944E065E272E0CE0115
:1020B0004796AFD944E061E272E0CE014796A9D9D4
:1020C00044E06DE172E0CE014796A3D944E069E1B6
:1020D00072E0CE0147969DD94CE06DE072E0CE01F2
:1020E000479697D94CE067EF75E0CE01479691D9B6
:1020F00042E0BE016B5E7F4FCE0147968AD942E037
:10210000BE016D5E7F4FCE01479683D942E0BE018E
:102110006F5E7F4FCE0147967CD942E0BE01615F82
:102120007F4FCE01479675D942E0BE01635F7F4F76
:10213000CE0147966ED942E0BE01655F7F4FCE016A
:10214000479667D944E06DE374E0CE01479661D9C4
:1021500044E061E472E0CE0147965BD944E06DE370
:1021600072E0CE01479655D944E069E372E0CE01B2
:1021700047964FD942E0BE01675F7F4FCE01479639
:1021800048D94CE061E072E0CE01479642D941E087
:102190006DED75E0CE0147963CD944E067E472E00E
:1021A000CE01479636D90E9448240E949F31E4E927
:1021B000F4E08491882341F09091C00095FFFCCF1A
:1021C0008093C6003196F5CFE9E0F7E0849188234B
:1021D00041F09091C00095FFFCCF8093C6003196EE
:1021E000F5CF8091C00085FFFCCF8AE08093C600C8
:1021F00001C03ED90CDB68960FB6F894DEBF0FBE67
:10220000CDBFDF91CF910895CF93DF931F921F929F
:10221000CDB7DEB7269A2E9882E08093C000109248
:10222000C50080E18093C4008091C10080618093EB
:10223000C1008091C10088608093C1008091C1007D
:1022400080688093C100E2E2F8E08491882341F045
:102250009091C00095FFFCCF8093C6003196F5CFDA
:102260008091C00085FFFCCF8AE08093C60084E99E
:1022700094E0FC012491222341F03091C00035FF0D
:10228000FCCF2093C6003196F5CF24B720FF14C0B1
:10229000EAE1F8E03491332341F04091C00045FF7A
:1022A000FCCF3093C6003196F5CF3091C00035FF9A
:1022B000FCCF3AE03093C60021FF14C0EAE0F8E01A
:1022C0003491332341F04091C00045FFFCCF30935F
:1022D000C6003196F5CF3091C00035FFFCCF3AE013
:1022E0003093C60022FF14C0E9EFF7E034913323A6
:1022F00041F04091C00045FFFCCF3093C6003196BD
:10230000F5CF3091C00035FFFCCF3AE03093C600E6
:1023100023FF14C0E9EEF7E03491332341F04091FC
:10232000C00045FFFCCF3093C6003196F5CF309109
:10233000C00035FFFCCF3AE03093C60025FF14C043
:10234000E9EDF7E02491222341F03091C00035FF00
:10235000FCCF2093C6003196F5CF2091C00025FF19
:10236000FCCF2AE02093C60014BEE2EDF7E02491F2
:10237000222341F03091C00035FFFCCF2093C600EE
:102380003196F5CFECECF7E02491222341F0309127
:10239000C00035FFFCCF2093C6003196F5CFEAECA4
:1023A000F7E02491222341F03091C00035FFFCCFAB
:1023B0002093C6003196F5CF2091C00025FFFCCFB9
:1023C0002AE02093C600FC012491E4E9F4E02223F2
:1023D00049F03091C00035FFFCCF2093C600319604
:1023E0002491F5CFEAEBF7E02491222341F03091DC
:1023F000C00035FFFCCF2093C6003196F5CFE5EA4B
:10240000F7E02491222341F03091C00035FFFCCF4A
:102410002093C6003196F5CFE9E9F7E02491222315
:1024200041F03091C00035FFFCCF2093C6003196BB
:10243000F5CFE2E8F7E02491222341F03091C0008B
:1024400035FFFCCF2093C6003196F5CF2091C00018
:1024500025FFFCCF2AE02093C600E7E7F7E02491B0
:10246000222341F03091C00035FFFCCF2093C600FD
:102470003196F5CFEBE6F7E02491222341F030913D
:10248000C00035FFFCCF2093C6003196F5CF2091D8
:10249000C00025FFFCCF2AE02093C600FC018491F8
:1024A000E4E9F4E0882349F09091C00095FFFCCF67
:1024B0008093C60031968491F5CFECE5F7E08491E6
:1024C000882341F09091C00095FFFCCF8093C60017
:1024D0003196F5CF2091090D30910A0DCE0101966C
:1024E0002115310519F48F509D4002C0821B930BBA
:1024F0009A83898369817A81072E000C880B990B56
:10250000F3D1E5E4F7E08491882341F09091C00095
:1025100095FFFCCF8093C6003196F5CF60ED74E057
:1025200080E090E0E1D18091C00085FFFCCF8AE09F
:102530008093C6001092DA0B1092DB0B1092DC0B2A
:102540001092DD0B3EDD10921C0C10921D0C1092AF
:102550001E0C10921F0C20913D0230913E024091C2
:102560003F025091400260E070E08FE793E40E94E8
:102570006D5F6093180C7093190C80931A0C9093F4
:102580001B0C109258061092590610925A0610927F
:102590005B0620912D0230912E0240912F02509126
:1025A000300260E070E08FE793E40E946D5F60931B
:1025B000140C7093150C8093160C9093170C249A9E
:1025C000809101018062809301018091010180640A
:1025D0008093010187ED80937A0010927E00109223
:1025E0007D0080917D00806280937D0080917D00E0
:1025F000806880937D0080917D00806480937D0061
:1026000080E888BD80916E00846080936E006AEFE0
:1026100070E080E090E00E94692D1092730B1092A0
:10262000720B80E1E2EBFBE0DF011D928A95E9F796
:1026300010929E0B10929F0B1092A00B1092A10B68
:102640001092A20B1092A30B1092A40B1092A50B48
:102650001092A60B1092A70B1092A80B1092A90B28
:102660001092AA0B1092AB0B1092AC0B1092AD0B08
:102670001092AE0B1092AF0B1092B00B1092B10BE8
:10268000819A879A80910A01826080930A010E9A4A
:102690003B9A579A829A8091070181608093070143
:1026A0000A9A129A3F9A479A6D98759A80910401F6
:1026B0008D7F809304019FB7F8948091050182601B
:1026C000809305019FBF53985B9A6C98749A809190
:1026D00004018E7F809304019FB7F89480910501D7
:1026E0008160809305019FBF52985A9A809A88987A
:1026F0005F9810926E0B869A8E988A9810926F0B44
:1027000080910A01886080930A019FB7F8948091B4
:102710000B01877F80930B019FBF9FB7F894809137
:1027200008018E7F809308019FBF1092700B0C9A56
:102730001498129A399A4198809181008F7E8093E3
:102740008100809181008860809381008091800069
:102750008D7F80938000809180008E7F80938000A9
:10276000809180008F7380938000809180008F7CA7
:102770008093800080918100887F826080938100B7
:1027800080E090E490938900809388001092850007
:102790001092840080916F00826080936F0081E0CE
:1027A000809300027894BFEFE3EDF0E3B150E04096
:1027B000F040E1F700C000000F900F90DF91CF9143
:1027C0000895EF92FF921F93CF93DF937C01C62F62
:1027D000D72F142F160F6991F701808191810E94E4
:1027E000385EF701808191810196918380831C136B
:1027F000F2CFDF91CF911F91FF90EF9008954F920C
:102800005F926F927F928F929F92AF92BF92EF9260
:10281000FF920F931F93CF93DF93CDB7DEB7A097AF
:102820000FB6F894DEBF0FBECDBF611571058105EF
:10283000910541F48091C00085FFFCCF80E3809337
:10284000C6003DC09E012F5F3F4F7901812C912C26
:1028500054018901442E512C612C712C3FEF831AB5
:10286000930AA30AB30AA30192010E94555EF701DD
:1028700061937F01B901CA01611571058105910557
:1028800069F7A40120E030E0F1E08F1A9108A10877
:10289000B108F401E21BF30BE00FF11F80818A30D5
:1028A00010F4805D01C0895C9091C00095FFFCCF61
:1028B0008093C6002F5F3F4F2417350751F7A0962E
:1028C0000FB6F894DEBF0FBECDBFDF91CF911F9141
:1028D0000F91FF90EF90BF90AF909F908F907F905F
:1028E0006F905F904F90089597FF0EC02091C000A9
:1028F00025FFFCCF2DE22093C60090958095709522
:1029000061957F4F8F4F9F4F4AE079CF8F929F9273
:10291000AF92BF92CF92DF92EF92FF92CF93DF936D
:102920006B017C01C42F20E030E0A9010E942E5BE6
:1029300087FF0BC08091C00085FFFCCF8DE28093A4
:10294000C600F7FAF094F7F8F094D0E060E070E099
:1029500080E09FE3DC1741F020E030E040E251E40A
:102960000E946D5FDF5FF6CF9B01AC01C701B6012E
:102970000E94915E6B017C010E94DA5F4B015C0159
:102980000E94325B9B01AC01C701B6010E94905EC0
:102990006B017C014AE0C501B40131DFCC2361F059
:1029A000E7E8F3E08191882339F09091C00095FF2A
:1029B000FCCF8093C600F6CFCC2309F120E030E0B5
:1029C00040E251E4C701B6010E9483574B015C010C
:1029D0000E94D55F6B01770FEE08FF08C701B601B3
:1029E00083DFC701B6010E94345B9B01AC01C501C6
:1029F000B4010E94905E6B017C01C150DDCFDF917C
:102A0000CF91FF90EF90DF90CF90BF90AF909F90CD
:102A10008F900895CF92DF92EF92FF920F931F93C2
:102A2000CF93DF936B017A0102EC1BE0F801208168
:102A3000318142815381FC01608171818281938166
:102A40000E9483570E94C760C2EBDBE068837983F2
:102A50008A839B83F8012481358146815781F60161
:102A600060817181828193810E9483570E94C76037
:102A70006C837D838E839F83F80120853185428519
:102A80005385F70160817181828193810E94835710
:102A90000E94C760688779878A879B87F8012485A9
:102AA00035854685578560919A0B70919B0B809177
:102AB0009C0B90919D0B0E9483570E94C7606C876E
:102AC0007D878E879F878FB7F894488159816A8167
:102AD0007B81EEE7FBE040835183628373834C810B
:102AE0005D816E817F8144835583668377834885CA
:102AF00059856A857B8540875187628773874C85B6
:102B00005D856E857F8544875587668777878FBF0C
:102B10001092AE0B1092AF0B1092B00B1092B10B43
:102B2000EEE9FBE010821182128213821482158278
:102B300016821782108611861286138614861586D1
:102B400016861786DF91CF911F910F91FF90EF901E
:102B5000DF90CF9008954F925F926F927F928F9205
:102B60009F92AF92BF92CF92DF92EF92FF920F931C
:102B70001F93CF93DF9380917C0B90917D0B0397F4
:102B800014F40E943F290E94A12DC090780BD09090
:102B9000790BE0907A0BF0907B0B0091740B109105
:102BA000750B2091760B3091770BDC01CB018C19E2
:102BB0009D09AE09BF09081719072A073B0730F41A
:102BC000012B022B032B11F00E94C8248090640279
:102BD00090906502A0906602B09067028114910403
:102BE000A104B104A1F00E94A12DDC01CB018C193C
:102BF0009D09AE09BF0988169906AA06BB0638F4D6
:102C00009091730B8091720B981709F416C1609123
:102C10006C0B9091720B8091730B981781F08091DF
:102C2000720B9DE4899FF0011124EC51F94F6081F2
:102C30009091730B891719F08F5F8F70F9CF70E047
:102C400089E00E94A22C80919B06882309F407C189
:102C5000C0906002D0906102E0906202F090630246
:102C60006091990670919A06072E000C880B990BBB
:102C70000E94345B20E030E040E050E40E94915E2E
:102C80009601A7010E942E5B87FDE9C0C091720BDF
:102C9000912CA12CB12CD0E08DE4882E8091730B67
:102CA000C81709F456C08C2F90E0889EF001899EC9
:102CB000F00D1124E456F94F4081518162817381F6
:102CC000452B462B472B81F44481558166817781C2
:102CD000452B462B472B41F44085518562857385F2
:102CE000452B462B472B91F1889E8001899E100D24
:102CF00011240456194FF8016485758586859785DA
:102D00000E94345B2B013C01F80160897189828942
:102D100093890E94325B9B01AC01C301B2010E9406
:102D20006D5FF80122A133A144A155A10E948357F0
:102D30003B018C01292D3A2D4B2D5D2F0E94BC604B
:102D4000181624F4962CA72CB02ED12FCF5FCF705D
:102D5000A5CF20915C0230915D0240915E025091BE
:102D60005F02692D7A2D8B2D9D2F0E9483579B0129
:102D7000AC01B601C7010E94915E8B01D82FC92F0B
:102D80009601A7010E942E5B87FF03C08601DE2DFE
:102D9000CF2DC0905802D0905902E0905A02F09086
:102DA0005B029601A701B8018D2F9C2F0E94BC6089
:102DB00018161CF48601DE2DCF2DC090D60BD090B6
:102DC000D70BE090D80BF090D90B98014D2F5C2FCA
:102DD000C701B6010E94BC601816D4F420E037ED9C
:102DE00043EA5CE3B8018D2F9C2F0E9483574B016F
:102DF0005C0128E431EE4AE75FE3C701B6010E94B7
:102E00008357A50194010E94915E8B01D82FC92F91
:102E1000C801AD2FBC2F8093D60B9093D70BA093F6
:102E2000D80BB093D90BB8018D2F9C2F0E94D55F82
:102E300070939A066093990612C05F9810926E0B79
:102E40008A9810926F0B9FB7F894809108018E7F3B
:102E5000809308019FBF1092700B129AD8CEDF9119
:102E6000CF911F910F91FF90EF90DF90CF90BF9087
:102E7000AF909F908F907F906F905F904F9008954C
:102E80002F923F924F925F926F927F928F929F927A
:102E9000AF92BF92CF92DF92EF92FF920F931F9368
:102EA000CF93DF93CDB7DEB7C257D1090FB6F894F1
:102EB000DEBF0FBECDBF3C014B015A016901EBA241
:102EC000FBA60CA71DA78091730B8F5F6B968FAF2E
:102ED0006B97803119F46B961FAE6B976B962FAD85
:102EE0006B97022F220F110B8091720B90E08017CD
:102EF000910721F40E94EC2F2EDEF6CF2091C20B19
:102F00003091C30B4091C40B5091C50BD3016D910F
:102F10007D918D919C910E9483570E94C7606F960E
:102F20006CAF7DAF8EAF9FAF6F972091C60B309186
:102F3000C70B4091C80B5091C90BF401608171819E
:102F4000828193810E9483570E94C760A3966CAFD1
:102F50007DAF8EAF9FAFA3974090CA0B5090CB0B25
:102F60006090CC0B7090CD0BD5012D913D914D9182
:102F70005C91C301B2010E9483570E94C760A7966B
:102F80006CAF7DAF8EAF9FAFA7972091CE0B3091E6
:102F9000CF0B4091D00B5091D10BF6016081718124
:102FA000828193810E9483570E94C760AB966CAF69
:102FB0007DAF8EAF9FAFAB97E091730B2E2E312C70
:102FC0002DE4E29FF0011124E851F94F1082809125
:102FD000B20B9091B30BA091B40BB091B50B8AAB2F
:102FE0009BABACABBDAB6F968CAC9DACAEACBFAC91
:102FF0006F97881A990AAA0ABB0AB7FE08C0B0944C
:10300000A09490948094811C911CA11CB11C8DE40F
:10301000829DF001839DF00D1124E456F94F8082CA
:103020009182A282B3822091B60B3091B70B40916E
:10303000B80B5091B90B2EAB3FAB48AF59AFA3962D
:10304000CCACDDACEEACFFACA397C21AD30AE40A59
:10305000F50AF7FE08C0F094E094D094C094C11C27
:10306000D11CE11CF11C8DE4829DF001839DF00DCB
:103070001124E456F94FC482D582E682F78280910A
:10308000BA0B9091BB0BA091BC0BB091BD0B8EA75E
:103090009FA7A8ABB9ABA7966CAD7DAD8EAD9FAD2C
:1030A000A7972EA53FA548A959A9621B730B840BAE
:1030B000950B97FF07C090958095709561957F4F10
:1030C0008F4F9F4F0E94345B6FA378A789A79AA761
:1030D00020E030E044E353E4C301B2010E9483578F
:1030E0006AAF7BAF8CAF9DAF9B01AC016FA178A5A0
:1030F00089A59AA50E94BC60181604F58DE4829DEE
:103100008001839D100D11240456194F20E030E0FA
:1031100044EB53E4C301B2010E9483572FA138A5A9
:1031200049A55AA50E94905E0E94D55FD8011896C5
:103130006D937D938D939C931B9713C08DE4829D1B
:103140008001839D100D11240456194F6FA178A59D
:1031500089A59AA50E94D55FF8016087718782874B
:1031600093874090BE0B5090BF0B6090C00B709047
:10317000C10B10919806AB966CAD7DAD8EAD9FAD39
:10318000AB97641975098609970997FF07C0909551
:103190008095709561957F4F8F4F9F4F0E94345B54
:1031A00024E0129FF0011124EC5AFD4F208131815F
:1031B000428153810E9483570E94D55F9B01AC01DD
:1031C000A0915202B09153020E94956124E630E032
:1031D00040E050E00E947161FA018DE4829DD001CF
:1031E000839DB00D1124A456B94F1C962C931C97A7
:1031F0001D963C931D971E964C931E971F96FC930D
:103200001F9718964D915D916D917C911B97C90107
:10321000DF0184179507A607B70714F4DB01CA017D
:10322000B501A4018C159D05AE05BF0544F08816B7
:103230009906AA06BB0654F4AC01BD0107C08C1464
:103240009D04AE04BF0414F4B701A6018DE4829D71
:10325000F001839DF00D1124E456F94F408B518B02
:10326000628B738B463051056105710514F40C9423
:103270005622DF01A85BBF4F40916C0B50916D0B44
:10328000052E000C660B770B4D935D936D937C932D
:1032900013976F968CAD9DADAEADBFAD6F972AA95C
:1032A0003BA94CA95DA982179307A407B50714F0A1
:1032B00010A202C081E080A3A3968CAD9DADAEADFF
:1032C000BFADA3972EA93FA948AD59AD821793076B
:1032D000A407B5075CF48DE4829DF001839DF00D99
:1032E0001124E456F94F80A1826080A36FA178A5D4
:1032F00089A59AA50E94D55F97FF07C090958095F4
:10330000709561957F4F8F4F9F4F0E94345B2AAD20
:103310003BAD4CAD5DAD0E94BC60181684F4A79621
:103320008CAD9DADAEADBFADA7972EA53FA548A96D
:1033300059A9281739074A075B07DCF40FC0A7967D
:103340008CAD9DADAEADBFADA7972EA53FA548A94D
:1033500059A982179307A407B5075CF48DE4829DF1
:10336000F001839DF00D1124E456F94F80A1846093
:1033700080A3AB968CAD9DADAEADBFADAB978415C4
:103380009505A605B7055CF48DE4829DF001839D4B
:10339000F00D1124E456F94F80A1886080A38DE4DC
:1033A000829DF001839DF00D1124E456F94F11A385
:1033B00089288A288B2809F05F9A8DE4829DF00184
:1033C000839DF00D1124E456F94F84819581A681E7
:1033D000B781892B8A2B8B2B09F08A9A8DE4829DE9
:1033E000F001839DF00D1124E456F94F80859185FD
:1033F000A285B385892B8A2B8B2B41F09FB7F8943C
:10340000809108018160809308019FBF8DE4829DB7
:10341000F001839DF00D1124E456F94F84859585C4
:10342000A685B785892B8A2B8B2B69F18091D30BCD
:10343000882319F081508093D30B8091D40B88237B
:1034400019F081508093D40B8091D50B882319F00B
:1034500081508093D50B80919806813061F030F0D7
:10346000823089F480E28093D50B08C0129880E204
:103470008093D30B08C080E28093D40B8091D30B50
:10348000811101C0129A8DE4829DF001839DF00D9F
:103490001124E456F94F24853585468557852296B3
:1034A0002CAF3DAF4EAF5FAF2297232B242B252BA4
:1034B00049F4E0909406F0909506009196061091DC
:1034C000970608C0E0909006F09091060091920651
:1034D000109193069701A8016BA17BA58CA59DA5D2
:1034E0000E942E5B87FF04C0EBA2FBA60CA71DA7C2
:1034F0008091B20B9091B30BA091B40BB091B50B2E
:103500006F962CAD3DAD4EAD5FAD6F97281B390B5F
:103510004A0B5B0BCA01B9010E94345B2091C20BBC
:103520003091C30B4091C40B5091C50B0E946D5F4D
:103530006FA378A789A79AA7698B7A8B8B8B9C8BB3
:103540008091B60B9091B70BA091B80BB091B90BCD
:10355000A3962CAD3DAD4EAD5FADA397281B390BA7
:103560004A0B5B0BCA01B9010E94345B2091C60B68
:103570003091C70B4091C80B5091C90B0E946D5FF1
:103580004B015C016D8B7E8B8F8B988F8DE4829DC0
:103590008001839D100D11240456194FD8011896EF
:1035A0008D919D910D90BC91A02D8AAB9BABACAB46
:1035B000BDABBC01CD010E94345B26966CAF7DAFE4
:1035C0008EAF9FAF26972091CA0B3091CB0B4091C5
:1035D000CC0B5091CD0B0E946D5F6B017C01698F0C
:1035E0007A8F8B8F9C8F8091BE0B9091BF0BA09197
:1035F000C00BB091C10BAB962CAD3DAD4EAD5FADE8
:10360000AB97281B390B4A0B5B0BCA01B9010E940F
:10361000345B2091CE0B3091CF0B4091D00B509169
:10362000D10B0E946D5FE091980634E0E39FF001BA
:103630001124EC5AFD4F20813181428153810E9437
:1036400083572B013C016091520270915302072E67
:10365000000C880B990B0E94345B9B01AC01C301E9
:10366000B2010E94835720E030E048EC52E40E940F
:103670006D5F6D8F7E8F8F8F98A3D8012D913D91B7
:103680004D915C9113972EAB3FAB48AF59AF2630AD
:10369000310541055105F4F414964D905D906D90FF
:1036A0007C901797B6E04B1651046104710494F4B2
:1036B0002AA93BA94CA95DA9263031054105510530
:1036C0004CF4DC01CB01BF77F80186A797A7A0AB2C
:1036D000B1AB2CC06FA178A589A59AA50E9480578F
:1036E0002B013C01C501B4010E9480579B01AC0134
:1036F000C301B2010E94915E4B015C01C701B6019A
:103700000E9480579B01AC01C501B4010E94915EEB
:103710000E9405612DE4229DF001239DF00D1124EE
:10372000E456F94F66A777A780AB91AB8DE4829DF5
:103730008001839D100D11240456194FD8019E96C7
:103740008D909D90AD90BC90D197A501940160E0C3
:1037500070E080E89FE30E946D5F9B01AC016BA16C
:103760007BA58CA59DA50E9483572B013C018091D0
:10377000730B2091720B90E0821B9109FC01EF709A
:10378000FF27E196FFAFEEAFE197A3019201C501DC
:10379000B4010E9483572A966CAF7DAF8EAF9FAF66
:1037A0002A97D80192966D937D938D939C939597CC
:1037B00050966D917D918D919C9153970E94325BB3
:1037C0006BA37CA38DA39EA3A30192010E948357A8
:1037D0000E94575F0E94DA5F2E966CAF7DAF8EAF6E
:1037E0009FAF2E97F80160AF71AF82AF93AF9E018C
:1037F0002F5E3F4F3BAF2AAFAE014F5F5F4F5FA7DA
:103800004EA780E896E068969FAF8EAF6897DE017E
:103810009196BAA3A9A364965FAF4EAF64971BA617
:103820001CA6B0E8BDA7EFE3EFA3AAADBBAD6D91B9
:103830007D918D919D91BBAFAAAFA30192010E9492
:1038400083576496EEADFFAD649761937193819356
:1038500091936496FFAFEEAF64976B017C01E8949F
:10386000F7F86896AEADBFAD68972D913D914D913B
:103870005D916896BFAFAEAF689762962CAF3DAFD3
:103880004EAF5FAF6297C701B6010E94BC601816C9
:10389000D4F4A701960162966CAD7DAD8EAD9FAD5F
:1038A00062970E946D5F7B018C019B01AC016BA54F
:1038B0007CA58DA59FA10E942E5B87FD04C0EBA671
:1038C000FCA60DA71FA3EAADFBAD29A13AA1E21703
:1038D000F30709F0AACF20E030E040E85FE36BA5F2
:1038E0007CA58DA59FA10E942E5B87FF4AC08E01FB
:1038F0000F5E1F4F2BA53CA54DA55FA1AEA5BFA593
:103900006D917D918D919C910E948357EEA5FFA5AD
:103910006193719381939193FFA7EEA7E017F1074D
:1039200049F78DE4829D8001839D100D112404567A
:10393000194F2BA53CA54DA55FA12A966CAD7DAD79
:103940008EAD9FAD2A970E948357D80192966D93B2
:103950007D938D939C9395972E966CAD7DAD8EAD9A
:103960009FAD2E970E94325B2BA53CA54DA55FA174
:103970000E9483570E94DA5FF80160AF71AF82AF97
:1039800093AFA50194016BA17CA18DA19EA10E9482
:103990006D5F6B017C012EA93FA948AD59AD232B6A
:1039A000242B252B91F58DE4829D8001839D100DA4
:1039B00011240456194FF80184819581A681B7819D
:1039C000892B8A2B8B2B09F52AA93BA94CA95DA928
:1039D000232B242B252BC9F420917C0630917D06C6
:1039E00040917E0650917F06C701B6010E94835721
:1039F0000E94575F0C5B1F4F0E94DA5FD8016D93E6
:103A00007D938D939C93139718C1209178063091E4
:103A1000790640917A0650917B06C701B6010E9453
:103A200083570E94575F0E94DA5F2DE4229D800138
:103A3000239D100D11240052194FF80160837183EA
:103A4000828393838090680690906906A0906A06AE
:103A5000B0906B060E94325B2B013C016EA97FA9DE
:103A600088AD99AD0E94345B9B01AC01C301B201EA
:103A70000E9483572BA13CA14DA15EA10E946D5FC6
:103A80002B013C01C501B4010E94325B9B01AC01DA
:103A9000C301B2010E94BC60181634F4D8018D92A3
:103AA0009D92AD92BC92139740906C0650906D061B
:103AB00060906E0670906F062DE4229DC001239DDC
:103AC000900D11249C012456394F89010C5B1F4F26
:103AD000F8016081718182819381E2962FAFE29734
:103AE000E3963FAFE3970E94325B4B015C01E296A5
:103AF0002FADE297E3963FADE397D90114966D9110
:103B00007D918D919C9117970E94345B9B01AC0134
:103B1000C501B4010E9483572BA13CA14DA15EA118
:103B20000E946D5F4B015C01C301B2010E94325BD8
:103B30009B01AC01C501B4010E94BC6018162CF4B5
:103B4000F801408251826282738280907406909064
:103B50007506A0907606B09077068DE4829D800170
:103B6000839D100D11240052194FD8016D917D9144
:103B70008D919C910E94325B2B013C0122966CAD91
:103B80007DAD8EAD9FAD22970E94345B9B01AC0151
:103B9000C301B2010E9483572BA13CA14DA15EA19C
:103BA0000E946D5F2B013C01C501B4010E94325B94
:103BB0009B01AC01C301B2010E94BC6018162CF439
:103BC000F80180829182A282B382809070069090E8
:103BD0007106A0907206B09073068DE4829D8001FC
:103BE000839D100D11240052194FD8016D917D91C4
:103BF0008D919C910E94325B26962CAD3DAD4EADD1
:103C00005FAD26970E9483572BA13CA14DA15EA1D9
:103C10000E946D5F2B013C01C501B4010E94325B23
:103C20009B01AC01C301B2010E94BC6018162CF4C8
:103C3000F80180829182A282B3828DE4829D80010C
:103C4000839D100D11240456194FF801EC5BFF4FB2
:103C500060817181828193810E94325B4B015C01A2
:103C6000A70196010E946D5F66966CAF7DAF8EAF27
:103C70009FAF6697D801D2966D937D938D939C9359
:103C8000D5972DEB37E346E051E4C501B4010E941E
:103C900083570E94D55FF801648F758F868F978F49
:103CA000C0906406D0906506E0906606F0906706C6
:103CB00020E030E040E05FE3C701B6010E94835797
:103CC0006BA37BA78CA79DA729853A854B855C852F
:103CD0006A962CAF3DAF4EAF5FAF6A97809160069A
:103CE00090916106A0916206B09163062E968CAF0A
:103CF0009DAFAEAFBFAF2E9720E030E040E05FE376
:103D0000BC01CD010E9483575B018C016A966CADAA
:103D10007DAD8EAD9FAD6A979F779501A8010E94FA
:103D2000BC60181674F49501A8016BA17BA58CA545
:103D30009DA50E942E5B87FD04C0ABA2BBA60CA76D
:103D40001DA72D853E854F855889AF962CAF3DAF79
:103D50004EAF5FAFAF9780915C0690915D06A091EA
:103D60005E06B0915F0662968CAF9DAFAEAFBFAFFF
:103D7000629720E030E040E05FE3BC01CD010E94AB
:103D800083575B018C01AF966CAD7DAD8EAD9FAD61
:103D9000AF979F779501A8010E94BC60181674F434
:103DA0009501A8016BA17BA58CA59DA50E942E5B0A
:103DB00087FD04C0ABA2BBA60CA71DA78DE4829D06
:103DC000F001839DF00D1124E456F94F92A19AAFB2
:103DD000A3A1AEAFB4A12396BFAF239725A1279689
:103DE0002FAF2797292F3A2F4B2F27965FAD279775
:103DF0006BA17BA58CA59DA50E942E5B87FD0CC0A9
:103E00003AAD3BA34EAD4BA723965FAD23975CA77E
:103E100027968FAD27978DA7E196AEADBFADE19701
:103E200012970CF4EDC0B091AE0BBFA3E091AF0BB5
:103E3000EEA7F091B00BFAAB2091B10B2EAB27E1BE
:103E400037EB41ED58E36B2F7E2F8F2F9EA90E94F9
:103E5000BC6018160CF0DDC020919E0B30919F0BBA
:103E60004091A00B5091A10B69817A818B819C813B
:103E70000E94905E2B013C012091A20B3091A30B7C
:103E80004091A40B5091A50B6D817E818F81988507
:103E90000E94905E4B015C01A3019201C301B2013B
:103EA0000E9483572B013C01A5019401C501B40177
:103EB0000E9483579B01AC01C301B2010E94915E35
:103EC0000E9405614B015C01A70196010E94BC6044
:103ED00018164CF4A5019401C701B6010E946D5F4C
:103EE0007B018C0104C0E12CF12C00E81FE3209140
:103EF000A60B3091A70B4091A80B5091A90B6A9685
:103F00006CAD7DAD8EAD9FAD6A970E94905E4B010A
:103F10005C01E894B7F82E962CAD3DAD4EAD5FAD8B
:103F20002E97C501B4010E94BC601816B4F4A50117
:103F300094012E966CAD7DAD8EAD9FAD2E970E94F7
:103F40006D5F5B016C019B01AC01B701C8010E9470
:103F50002E5B87FD02C0750186012091AA0B30916E
:103F6000AB0B4091AC0B5091AD0BAF966CAD7DADF2
:103F70008EAD9FADAF970E94905E4B015C01E894BF
:103F8000B7F862962CAD3DAD4EAD5FAD6297C50101
:103F9000B4010E94BC601816B4F4A50194016296A5
:103FA0006CAD7DAD8EAD9FAD62970E946D5F5B0184
:103FB0006C019B01AC01B701C8010E942E5B87FD1B
:103FC00002C0750186019701A8016AAD7EAD2396F6
:103FD0008FAD239727969FAD27970E9483577B012C
:103FE0008C019B01AC016FA17EA58AA99EA90E94AC
:103FF0002E5B87FD16C0EFA2FEA60AAB1EAB11C05A
:104000003BA13FA34BA54EA75CA55AAB8DA58EAB9C
:1040100008C09BA19FA3ABA5AEA7BCA5BAABEDA55D
:10402000EEAB8DE4829D8001839D100D112404561A
:10403000194F8FA19EA5AAA9BEA9F80182A793A78F
:10404000A4A7B5A766966CAD7DAD8EAD9FAD669706
:1040500090589B01AC010E94915ED8019E962D91D3
:104060003D914D915C91D1970E9483579B01AC018A
:104070006BE077ED83E29BE30E94905E0E94056116
:10408000B62EC72E7C01262F372FAC016FA17EA53F
:104090008AA99EA90E942E5B87FD05C0DB2C8C2C73
:1040A000AE2C9F2C04C0DFA08EA4AAA89EA88DE4ED
:1040B000829D8001839D100D11240456194F8D2D72
:1040C000982DAA2DB92DF80186A397A3A0A7B1A773
:1040D0002B2D3C2DA7016AAD7EAD23968FAD239786
:1040E00027969FAD27970E942E5B18162CF081E033
:1040F000D801D7968C9302C0F80117AA2DE4229D0F
:10410000C001239D900D11249C012456394F790143
:1041100081E0D901D6968C9380E1FE013196AEE91B
:10412000BBE001900D928A95E1F78AAD9EAD239692
:10413000AFAD23972796BFAD27978093AE0B909393
:10414000AF0BA093B00BB093B10B9C01AD016BA171
:104150007BA58CA59DA50E946D5F2B013C012AAD1E
:104160003EAD23964FAD239727965FAD27976D2DD4
:10417000782D8A2D992D0E946D5FAB01BC019301B2
:104180008201C7010E94CF396B96BFAD6B97B09388
:10419000730B6F962CAD3DAD4EAD5FAD6F97209319
:1041A000B20B3093B30B4093B40B5093B50BA39663
:1041B0008CAD9DADAEADBFADA3978093B60B909384
:1041C000B70BA093B80BB093B90BA7962CAD3DAD30
:1041D0004EAD5FADA7972093BA0B3093BB0B4093C6
:1041E000BC0B5093BD0BAB968CAD9DADAEADBFADD2
:1041F000AB978093BE0B9093BF0BA093C00BB09373
:10420000C10B8091730B8FB7F8946090720B8FBFC6
:104210008091730B90E0861991098F70992704970C
:104220004CF41091720BF12C00E080E090E02DE452
:10423000E22EA0C08091730B83508F70F82EA12CBA
:10424000B12C00E010E09DE4492E55245394F6145F
:1042500041F38F2DF11001C080E1FF24FA94F80E94
:104260004F9CC0011124DC01A456B94FBCA3ABA3E1
:104270000115110509F469C0A114B10409F465C060
:10428000F80172A4C3A4D4A4E5A4272D3C2D4D2D80
:104290005E2D66A177A180A591A50E942E5B882343
:1042A00009F453C0D801D7968C91811144C0F5010F
:1042B00086A097A0A0A4B1A4A5019401672D7C2D90
:1042C0008D2D9E2D0E94BC601816ACF5A5019401A1
:1042D000C501B4010E9483574B015C01F80182A91A
:1042E00093A9A4A9B5A9BC01CD0190589B01AC012B
:1042F0000E94915ED8019E962D913D914D915C91C9
:10430000D1970E9483579B01AC01C501B4010E9463
:10431000905E0E9405611B015C019B01AC01672D51
:104320007C2D8D2D9E2D0E942E5B87FD04C0722C4E
:10433000C32CDA2CEB2C872D9C2DAD2DBE2DF80136
:1043400086A397A3A0A7B1A756AA58010BA11CA1A9
:104350007ECFE19E90011124F901E456F94F6F01DF
:10436000009769F41F5F103109F410E08F2D902F32
:10437000FC2C0D2D2091730B1213EBCF0AC0DC0126
:10438000D7962C912111EECF6F2D702F0E941839E6
:10439000E9CF009741F0FC0127A9211104C06F2D3E
:1043A000702F0E941839D090720BE12CF12C8DE403
:1043B000C82E4D2D0D2C000C550B8091730B90E0E9
:1043C0004817590709F447C0C49EC001C59E900D07
:1043D00011249C012456394F1901E114F104A1F173
:1043E000D701D6968C91811104C0F90186A9882342
:1043F00059F1D70192964D905D906D907C90959774
:10440000C49EF001C59EF00D1124E456F94FA3019E
:10441000920166A177A180A591A50E946D5F4B01D5
:104420005C01A3019201F70166A177A180A591A586
:104430000E946D5FAB01BC0195018401C7010E9420
:10444000CF39D701D6961C92D394B0E1DB1201C0CC
:10445000D12C7101AECFE114F10419F1F70182A062
:1044600093A0A4A0B5A0A50194016DEC7CEC8CE414
:104470009DE30E946D5F2B013C01A5019401D701D2
:1044800096966D917D918D919C9199970E946D5F0B
:10449000AB01BC0193018201C7010E94CF39F70132
:1044A00016AA80916F00826080936F00CE58DF4F14
:1044B0000FB6F894DEBF0FBECDBFDF91CF911F9135
:1044C0000F91FF90EF90DF90CF90BF90AF909F90B3
:1044D0008F907F906F905F904F903F902F900895B6
:1044E000BC0180E090E04AE00E94FF138091C00090
:1044F00085FFFCCF8DE08093C6008091C00085FFD2
:10450000FCCF8AE08093C6000895FC016591759107
:104510008591949108951F920F920FB60F921124D6
:104520000BB60F922F933F934F936F937F938F937D
:104530009F93EF93FF934091C6002091D90C309147
:10454000DA0CC90101968F7799276091DB0C709185
:10455000DC0C8617970741F0F901E75AF34F4083C7
:104560009093DA0C8093D90CFF91EF919F918F91EA
:104570007F916F914F913F912F910F900BBE0F90B4
:104580000FBE0F901F9018952F923F924F925F92FF
:104590006F927F928F929F92AF92BF92CF92DF9253
:1045A000EF92FF920F931F93CF93DF9300D000D031
:1045B000CDB7DEB76C018330910541F0FC01EA5DB7
:1045C000F54F6491062F660F110B02C00FEF1FEF1E
:1045D000C601880F991F880F991F9E838D8382576C
:1045E000944F9A838983FC01108211821282138274
:1045F00046E95BE062E97BE08EE89BE00E940A15F9
:104600008D819E81865E954F80DF4B015C01B801F4
:10461000110F880B990B0E94345B2B013C012D81FB
:104620003E81215F394F3C832B8320E030E040EC1A
:104630005FE3C501B4010E948357A30192010E9468
:104640008357EB81FC816083718382839383ED8147
:10465000FE81E854FD4F80809180A280B3808092DB
:104660004E0290924F02A0925002B092510220E06E
:1046700030E040E752E4C501B4010E946D5F7B0168
:104680008C012BE136E047E156E063E176E08FE014
:1046900096E00E9440170E94CC3110920002E981FE
:1046A000FA81108211821282138246E95BE062E98C
:1046B0007BE08EE89BE00E940A152D813E81225FFF
:1046C000354F1901C90121DF9058A30192010E94C1
:1046D0008357EB81FC81608371838283938320E025
:1046E00030E040E752E460914E0270914F028091B9
:1046F0005002909151020E946D5F7B018C012BE171
:1047000036E047E156E063E176E08FE096E00E9414
:1047100040170E94CC3181E080930002C101F5DE98
:104720009B01AC010E94915EA30192010E948357FC
:10473000EB81FC81608371838283938320E030E08E
:1047400040E05FE3C501B4010E94835760934E02CD
:1047500070934F02809350029093510220E030E01A
:1047600040E752E40E946D5F7B018C012BE136E053
:1047700047E156E063E176E08FE096E00E94401763
:104780000E94CC31F3E0CF16D10449F410929A0B79
:1047900010929B0B10929C0B10929D0B42C08D812E
:1047A0009E818E5F954FB1DE0D811E8105511A4F9E
:1047B000F80120813181428153810E94915EE9811B
:1047C000FA8160837183828393838D819E818A5075
:1047D000964F9BDE2D813E81285F334F5901F801B2
:1047E00020813181428153810E94915EF501608375
:1047F0007183828393838D819E818651964F85DE5E
:104800002D813E8128593D4F5901F8012081318188
:10481000428153810E94915EF5016083718382839E
:104820009383ED81FE81E15FF94FAD81BE81A25797
:10483000B44F8D919D910D90BC91A02D808391835B
:10484000A283B38310924E0210924F021092500234
:1048500010925102F601E259F44F81E080832696CE
:104860000FB6F894DEBF0FBECDBFDF91CF911F9181
:104870000F91FF90EF90DF90CF90BF90AF909F90FF
:104880008F907F906F905F904F903F902F90089502
:10489000CF92DF92EF92FF926091470270914802AF
:1048A0008091490290914A022091DD052223F1F086
:1048B00020E030E040E05FE30E9483576B017C0121
:1048C00020E030E0A9010E942E5B882379F0A70147
:1048D0009601C701B6010E9483572BED3FE049E4E2
:1048E00050E40E9483579B01AC0104C020E030E0FB
:1048F00040E85FE360E070E080E89FE30E946D5F66
:10490000609354027093550280935602909357021D
:10491000FF90EF90DF90CF9008950E94F72D809147
:104920001F06811134C081E080931F068091C1056C
:104930009091C205A091C305B091C4058093C505AF
:104940009093C605A093C705B093C805E3E8FAE0C5
:104950008491882341F09091C00095FFFCCF809313
:10496000C6003196F5CFE4E7F9E08491882341F061
:104970009091C00095FFFCCF8093C6003196F5CF93
:104980008091C00085FFFCCF8AE08093C600089527
:10499000F8940E94F72D5F9810926E0B8A981092EF
:1049A0006F0B9FB7F894809108018E7F8093080168
:1049B0009FBF1092700B129A60E08CE087D7E3E8FB
:1049C000FAE08491882341F09091C00095FFFCCFDC
:1049D0008093C6003196F5CFE5E5F9E08491882310
:1049E00041F09091C00095FFFCCF8093C6003196B6
:1049F000F5CF8091C00085FFFCCF8AE08093C60090
:104A00007894C6E0D0E0219739F068EC70E080E05F
:104A100090E00E94692DF7CFF894FFCF4F925F92FC
:104A20006F927F928F929F92AF92BF92CF92DF92BE
:104A3000EF92FF920F931F93CF93DF93CDB7DEB723
:104A400068970FB6F894DEBF0FBECDBF7C0101E0C2
:104A500012E0D8012D913D914D915C91FC01608156
:104A60007181828193810E9483572DE0C22E22E0C2
:104A7000D22ED6012D913D914D915C910E94915E77
:104A800069877A878B879C87F801248135814681E5
:104A90005781D70114966D917D918D919C911797B7
:104AA0000E948357F60124813581468157810E94F7
:104AB000915E6D877E878F87988BD80118962D9190
:104AC0003D914D915C911B97F701608571858285C1
:104AD00093850E948357D60118962D913D914D9153
:104AE0005C911B970E94915E698B7A8B8B8B9C8B60
:104AF00029853A854B855C85CA01B9010E94835797
:104B00006B017C012D853E854F855889CA01B9010D
:104B10000E9483579B01AC01C701B6010E94915EC0
:104B20000E94056120911D0230911E0240911F02DA
:104B3000509120020E94905E2091190230911A0239
:104B400040911B0250911C020E94905E69837A83FF
:104B50008B839C836093040C7093050C8093060CEC
:104B60009093070C9B01AC010E9483576B017C0161
:104B700029893A894B895C89CA01B9010E94835706
:104B80009B01AC01C701B6010E94915E0E940561C4
:104B90006093000C7093010C8093020C9093030CB3
:104BA000C0902502D0902602E0902702F0902802C3
:104BB00040902102509022026090230270902402C3
:104BC0009B01AC010E9483574B015C01A701960138
:104BD000C701B6010E9483579B01AC01C501B40116
:104BE0000E94905E4B015C01A3019201C301B201DE
:104BF0000E9483579B01AC01C501B4010E94905EE5
:104C00004B015C01A7019601C701B6010E94915EAC
:104C1000A30192010E9483579B01AC01C501B4011D
:104C20000E946D5F4B015C016093FC0B7093FD0B68
:104C30008093FE0B9093FF0B9B01AC010E94835766
:104C40009B01AC0160E070E080E89FE30E94905E11
:104C50000E9405616D837E838F8398876093F80B34
:104C60007093F90B8093FA0B9093FB0BA5019401C1
:104C7000C301B2010E9483579B01AC01C701B60179
:104C80000E94915E6D8B7E8B8F8B988F6093F40B5F
:104C90007093F50B8093F60B9093F70B2D813E816B
:104CA0004F815885C301B2010E9483576B017C017B
:104CB0006093F00B7093F10B8093F20B9093F30BD6
:104CC00029813A814B815C8169897A898B899C89A8
:104CD0000E94045F2B013C012D893E894F89588D2C
:104CE000C701B6010E94045F9B01AC01C301B20180
:104CF0000E94915E6B017C016093EC0B7093ED0B55
:104D00008093EE0B9093EF0BA50194016D817E8152
:104D10008F8198850E94045F4B015C016093E80BD2
:104D20007093E90B8093EA0B9093EB0B03E016E092
:104D300021EE3EE245E652E4C701B6010E948357E8
:104D4000F8016083718382839383A5019401C70175
:104D5000B6010E94905E21EE3EE245E652E40E94DA
:104D60008357D80114966D937D938D939C931797D9
:104D700029853A854B855C856D857E858F859889EB
:104D80000E94045F21EE3EE245E652E40E94835712
:104D9000F801608771878287938768960FB6F894C9
:104DA000DEBF0FBECDBFDF91CF911F910F91FF905E
:104DB000EF90DF90CF90BF90AF909F908F907F90BB
:104DC0006F905F904F9008952F923F924F925F9215
:104DD0006F927F928F929F92AF92BF92CF92DF920B
:104DE000EF92FF920F931F93CF93DF93CDB7DEB770
:104DF0002C970FB6F894DEBF0FBECDBF8C0121EE0D
:104E00003EE245E652E4DC016D917D918D919C91ED
:104E10000E946D5F6B017C010E94FA606D837E834E
:104E20008F8398878091250290912602A091270276
:104E3000B091280289839A83AB83BC83C701B601F2
:104E40000E946A5F6B017C0121EE3EE245E652E47E
:104E5000D80114966D917D918D919C9117970E9428
:104E60006D5F4B015C010E94FA6069877A878B87CE
:104E70009C87409021025090220260902302709003
:104E80002402C501B4010E946A5F4B015C012981C3
:104E90003A814B815C81C701B6010E9483576B0147
:104EA0007C01A3019201C501B4010E9483579B01BB
:104EB000AC01C701B6010E94915E20911D023091A4
:104EC0001E0240911F02509120020E94915E20918B
:104ED000190230911A0240911B0250911C020E944B
:104EE000915E6B017C0121EE3EE245E652E4F80161
:104EF00060857185828593850E946D5F4B015C01A1
:104F00000E946A5F9B01AC0103E016E0C701B60195
:104F10000E9483572DE0222E22E0322ED1012D91C6
:104F20003D914D915C910E94905EF8016083718388
:104F300082839383C501B4010E94FA609B01AC0196
:104F4000C701B6010E948357D10114962D913D915E
:104F50004D915C9117970E94905EF8016483758370
:104F60008683978329813A814B815C816D817E8123
:104F70008F8198850E9483576B017C01A301920168
:104F800069857A858B859C850E9483579B01AC013E
:104F9000C701B6010E94915ED10118962D913D91F5
:104FA0004D915C911B970E94905EF801608771871C
:104FB000828793872C960FB6F894DEBF0FBECDBFC5
:104FC000DF91CF911F910F91FF90EF90DF90CF90E5
:104FD000BF90AF909F908F907F906F905F904F9019
:104FE0003F902F900895CF93DF93EC0120E030E0C5
:104FF00044E352EC688179818A819B810E942E5B17
:1050000087FF08C080E090E0A4E3B2EC8883998336
:10501000AA83BB8320E030E044EB52EC6C817D81BD
:105020008E819F810E942E5B87FF08C080E090E008
:10503000A4EBB2EC8C839D83AE83BF8320E030E091
:1050400048EC52E4688179818A819B810E94BC602E
:10505000181644F480E090E0A8ECB2E488839983C9
:10506000AA83BB8320E030E048E452E46C817D8178
:105070008E819F810E94BC60181644F480E090E00D
:10508000A8E4B2E48C839D83AE83BF83DF91CF918C
:10509000089557D56093780B7093790B80937A0BB2
:1050A00090937B0BE2E5F9E08491882341F09091A5
:1050B000C00095FFFCCF8093C6003196F5CF80915C
:1050C000C00085FFFCCF8AE08093C60008958091E0
:1050D000DB0C9091DC0C9093DA0C8093D90CE9E412
:1050E000F9E08491882341F09091C00095FFFCCFB6
:1050F0008093C6003196F5CF8091C1059091C2058D
:10510000A091C305B091C405BC01CD016F5F7F4F75
:105110008F4F9F4F0E9474148091C00085FFFCCF79
:105120008AE08093C600B5CF682F880F770B209157
:1051300033063091340640E6429FC001439F900DF4
:1051400011248F5B9B4F0E94AF619C019093DF0500
:105150008093DE0581E0232B09F480E0089580919F
:10516000DE059091DF0560E070E001960C94375801
:105170001F93CF93DF93EC01809198068093EA050B
:1051800084E5D2DF182F811102C010E073C0E7DF81
:105190000E94DA5F6093EA056623B9F3E4E9F4E07C
:1051A0009491992341F08091C00085FFFCCF9093AA
:1051B000C6003196F5CFCD36D105B9F054F4C836D6
:1051C000D105B1F0C936D10509F045C0E3EFF3E0F0
:1051D00021C0CA3DD10531F0CD3DD105E1F5EEEA62
:1051E000F3E036C0E5ECF3E029C0ECEDF3E01CC0E1
:1051F000EAE0F4E08191882371F19091C00095FF7D
:10520000FCCF8093C600F6CF9091C00095FFFCCFF5
:105210008093C60081918111F7CF1DC09091C0008D
:1052200095FFFCCF8093C60081918111F7CF13C009
:105230009091C00095FFFCCF8093C60081918111B1
:10524000F7CF09C09091C00095FFFCCF8093C600B6
:1052500081918111F7CF8091EA059091C00095FF6F
:10526000FCCF8093C6008091C00085FFFCCF8AE010
:105270008093C600812FDF91CF911F9108954F92A7
:105280005F926F927F928F929F92AF92BF92CF92D6
:10529000DF92EF92FF920F931F93CF93DF9380E6FD
:1052A000F82EC4E0D0E008E218E09AE0E92EDD2410
:1052B000D3944091D90C5091DA0C8091DB0C9091F1
:1052C000DC0C9A01281B390B2F773327232B09F489
:1052D0001AC220917C0B30917D0B243031050CF0EB
:1052E00012C24817590761F0FC01E75AF34F2081B9
:1052F00001968F7799279093DC0C8093DB0C02C08A
:105300002FEF3FEF822F2093E70B2091E40B30919A
:10531000E50B8A3061F08D3051F08A3321F49091A1
:10532000E60B992321F02F3531050CF476C12115B8
:10533000310519F41092E60BE6C18091E20B9091D1
:10534000E30BF89E5001F99EB00C11242A0D3B1D71
:10535000F901EF5BFB4F10822091E60B211158C140
:105360001092E60BFC01E652F44F1082C5018F5BF0
:105370009B4F4C016EE470E00E94AF61009709F40E
:105380009CC09093DF058093DE05881999098A0DEA
:105390009B1D4AE050E060E070E08E5B9B4F0E94F6
:1053A0009D596093DE0B7093DF0B8093E00B90931D
:1053B000E10B8090C1059090C205A090C305B0900C
:1053C000C40524013501EFEF4E1A5E0A6E0A7E0A0B
:1053D000A090E20BB090E30B641575058605970568
:1053E00009F43AC1FA9CC001FB9C900D112464E4BD
:1053F00079E08F5B9B4F0E94E55A892B09F02CC105
:10540000E3E8FAE08491882341F09091C00095FF91
:10541000FCCF8093C6003196F5CFE1E1F9E08491AD
:10542000882341F09091C00095FFFCCF8093C60087
:105430003196F5CF6091C1057091C2058091C30589
:105440009091C4050E9474148091C00085FFFCCF28
:105450002FC03093DF052093DE05C9018A199B090F
:10546000880D991D60E070E08E5B9B4F0E9437585D
:105470000E94D55F2C2D30E02617370709F455C060
:10548000E3E8FAE08491811105C1E2EFF8E084914C
:10549000811108C16091C1057091C2058091C30559
:1054A0009091C4050E9474148091C00085FFFCCFC8
:1054B0008AE08093C6000BDE33C06AE270E0C4016C
:1054C0000E94AF61892B09F440C0E3E8FAE08491BF
:1054D000882341F09091C00095FFFCCF8093C600D7
:1054E0003196F5CFEEE9F8E08491882341F0909170
:1054F000C00095FFFCCF8093C6003196F5CF609138
:10550000C1057091C2058091C3059091C4050E94A8
:1055100074148091C00085FFFCCF8AE08093C600A0
:105520001092E50B1092E40BEEC08091DE0B90918F
:10553000DF0BA091E00BB091E10B8093C10590933C
:10554000C205A093C305B093C4058091E20B90916E
:10555000E30BF89E5001F99EB00C1124C5018F5B3E
:105560009B4F4C0167E470E00E94AF61009761F1CE
:105570009093DF058093DE05881999098A0D9B1D9C
:1055800060E070E08E5B9B4F0E9437580E94D55FB1
:1055900064307105C8F480911F068823A9F0F801D2
:1055A0008491E8E2F8E0882349F09091C00095FFEB
:1055B000FCCF8093C60031968491F5CF8091C000D6
:1055C00085FFFCCFE092C600A090E20BB090E30B09
:1055D000FA9CC001FB9C900D112461E274E08F5B8A
:1055E0009B4F0E94BA61892B09F4D2D9C50101965B
:1055F000BE010E945E619093E30B8093E20B809169
:105600007C0B90917D0B019690937D0B80937C0B8E
:105610001092E50B1092E40B4CCE8B3311F4D09228
:10562000E60B9091E60B911144CE4091E20B509124
:10563000E30BB9016F5F7F4F7093E50B6093E40B51
:10564000F49ED001F59EB00D11242A0F3B1FD90105
:10565000AF5BBB4F8C932DCEFA9C4001FB9C900C12
:105660001124C4018F5B9B4F5C016AE270E00E94D1
:10567000AF619C01892BF1F090E0C12CF401E90F9E
:10568000F11DEF5BFB4F80818A3209F4E2CE9F5F10
:10569000C826F4CF9091C00095FFFCCF8093C60040
:1056A0003196F0CE9091C00095FFFCCF8093C6005C
:1056B0003196EDCEE3E8FAE08491882341F09091B1
:1056C000C00095FFFCCF8093C6003196F5CFE8EC83
:1056D000F8E08491882341F09091C00095FFFCCFC1
:1056E0008093C6003196F5CF6091C1057091C205D7
:1056F0008091C3059091C4050E9474148091C000EC
:1057000085FFFCCFD5CEDF91CF911F910F91FF90F8
:10571000EF90DF90CF90BF90AF909F908F907F9051
:105720006F905F904F90089590E0FC013197E231C7
:10573000F10508F04EC08827EE58FF4F8F4F0C94AC
:105740008D61809180008F7703C0809180008F7D74
:1057500080938000089580918000877FF9CF84B581
:105760008F7702C084B58F7D84BD08958091B0008D
:105770008F7703C08091B0008F7D8093B000089533
:10578000809190008F7707C0809190008F7D03C03B
:1057900080919000877F8093900008958091A00071
:1057A0008F7707C08091A0008F7D03C08091A000FB
:1057B000877F8093A0000895809120018F7707C094
:1057C000809120018F7D03C080912001877F80938D
:1057D000200108953FB7F8948091550C9091560C94
:1057E000A091570CB091580C26B5A89B05C02F3F2F
:1057F00019F00196A11DB11D3FBFBA2FA92F982FF7
:105800008827820F911DA11DB11DBC01CD0142E071
:10581000660F771F881F991F4A95D1F70895CF9378
:10582000DF93282F30E0F901EC59F44F8491F9010E
:10583000E25EF44FD491F901E852F54FC491CC23C4
:1058400089F0811171DFEC2FF0E0EE0FFF1FE254C1
:10585000F54FA591B491EC91ED2381E090E021F416
:1058600080E002C080E090E0DF91CF9108951F9327
:10587000CF93DF93282F30E0F901EC59F44F849156
:10588000F901E25EF44FD491F901E852F54FC49169
:10589000CC23C1F0162F811147DFEC2FF0E0EE0F83
:1058A000FF1FEC55F54FA591B4918FB7F8941111E6
:1058B00005C09C91ED2FE095E92302C0EC91ED2B02
:1058C000EC938FBFDF91CF911F910895CF93DF931A
:1058D00090E0FC01E25EF44F2491FC01E852F54FA8
:1058E0008491882361F190E0880F991FFC01E657AD
:1058F000F54FC591D491FC01EC55F54FA591B491AC
:10590000611109C09FB7F89488812095822388830C
:10591000EC912E230BC0623061F49FB7F89438816C
:10592000822F809583238883EC912E2B2C939FBF0D
:1059300006C08FB7F894E8812E2B28838FBFDF91A4
:10594000CF9108951F93CF93DF93182FEB0161E060
:10595000BDDF209711F460E004C0CF3FD10531F4E2
:1059600061E0812FDF91CF911F9181CFE12FF0E096
:10597000EC59F44FE4914E2F50E0FA013197E231A7
:10598000F10508F09DC08827EC57FF4F8F4F0C940E
:105990008D6184B5806884BDC7BD97C084B58062C1
:1059A00084BDC8BD92C080918000806880938000D3
:1059B000D0938900C093880088C080918000806265
:1059C00080938000D0938B00C0938A007EC080912A
:1059D0008000886080938000D0938D00C0938C00FD
:1059E00074C08091B00080688093B000C093B30011
:1059F0006CC08091B00080628093B000C093B4000E
:105A000064C080919000806880939000D09399004A
:105A1000C09398005AC0809190008062809390005B
:105A2000D0939B00C0939A0050C0809190008860F2
:105A300080939000D0939D00C0939C0046C08091BD
:105A4000A00080688093A0008091A0008F7B80934D
:105A5000A000D093A900C093A80037C08091A000F7
:105A600080628093A000D093AB00C093AA002DC0A9
:105A70008091A00088608093A000D093AD00C09377
:105A8000AC0023C080912001806880932001D093D6
:105A90002901C093280119C0809120018062809360
:105AA0002001D0932B01C0932A010FC080912001C7
:105AB000886080932001D0932D01C0932C0105C0F4
:105AC000C038D1050CF04CCF46CFDF91CF911F915C
:105AD00008958F929F92AF92BF92CF92DF92EF92F2
