:100000000C94D1090C94F2090C94F2090C94F209A5
:100010000C94F2090C94F2090C94F2090C94F20974
:100020000C94F2090C94F2090C94F2090C94F20964
:100030000C94F2090C94F2090C94F2090C94F20954
:100040000C94F2090C94FB130C94F2090C94F20931
:100050000C94F2090C94F2090C94C5310C946131A2
:100060000C94F2090C94B51D0C94F2090C94F2094D
:100070000C94F2090C94F2090C94F2090C94F20914
:100080000C94F2090C94F2090C94F2090C94F20904
:100090000C94F2090C94F2090C94F2090C94F209F4
:1000A0000C94F2090C94F2090C94F2090C94F209E4
:1000B0000C94F2090C94F2090C94F2090C94F209D4
:1000C0000C94F2090C94F2090C94F2090C94F209C4
:1000D0000C94F2090C94F2090C94F2090C94F209B4
:1000E0000C94F209632F662F552F592F5F2F9D2FE8
:1000F0006A2F6E2F742F782F7C2F822F862F8A2FB6
:100100009D2F902F942F982F7D3082308730913003
:100110009B301431A530AD30B530BF30C930D3304D
:10012000E230EC301431F63000310A3121322E3217
:100130004A32573271327E3298329A329C329E3233
:10014000A632084AD73B3BCE016E84BCBFFDC12F0F
:100150003D6C74319ABD56833DDA3D00C77F11BEB8
:10016000D9E4BB4C3E916BAAAABE000000803F05BB
:10017000A84CCDB2D44EB93836A9020C50B99186EC
:1001800088083CA6AAAA2ABE000000803F00504969
:1001900044204175746F74756E652066696E69736D
:1001A000686564212050757420746865206C6173E3
:1001B00074204B702C204B6920616E64204B6420AE
:1001C000636F6E7374616E74732066726F6D2061FD
:1001D000626F766520696E746F20436F6E66696723
:1001E00075726174696F6E2E6800504944204175C4
:1001F000746F74756E65206661696C656421207426
:10020000696D656F75740020403A006F6B20543A39
:10021000006F6B20423A00504944204175746F745E
:10022000756E65206661696C6564212054656D702A
:100230006572617475726520746F6F206869676894
:1002400000204B643A2000204B693A2000204B707C
:100250003A200020436C6173736963205049442045
:10026000002054753A2000204B753A2000206D6123
:10027000783A2000206D696E3A200020643A200010
:1002800020626961733A200053657474696E677304
:100290002053746F726564002200556E6B6E6F7729
:1002A0006E20636F6D6D616E643A2022007A5F6D1F
:1002B00061783A2000795F6D61783A2000795F6D4E
:1002C000696E3A2000785F6D61783A2000785F6D42
:1002D000696E3A2000205A5F616E676C6500205994
:1002E0005F616E676C653A0020585F616E676C6590
:1002F0003A00205A3A0020593A0020436F756E7434
:1003000020583A200020453A00205A3A0020593A15
:1003100000583A004649524D574152455F4E414DB3
:10032000453A446F626F742056312E302E323B2096
:10033000537072696E7465722F6772626C206D61A2
:100340007368757020666F722067656E3620464947
:10035000524D574152455F55524C3A687474707310
:100360003A2F2F6769746875622E636F6D2F4D6128
:10037000726C696E4669726D776172652F4D61723C
:100380006C696E2050524F544F434F4C5F5645524C
:1003900053494F4E3A312E30204D414348494E4546
:1003A0005F545950453A446F626F74204558545217
:1003B000554445525F434F554E543A3120555549A7
:1003C000443A30303030303030302D303030302D15
:1003D000303030302D303030302D30303030303023
:1003E0003030303030300A0020423A0020453A00A8
:1003F000543A0020573A0020453A00543A0057003A
:100400002042403A00570020403A00202F003A0096
:10041000205400202F0020423A00202F006F6B2034
:10042000543A002569206D696E2C2025692073657A
:10043000630020453A00205A3A0020593A002058DB
:100440003A00656E6473746F7073206869743A2043
:10045000006563686F3A0020440020490020202096
:100460004D33303120500050494420736574746915
:100470006E67733A00205A0020590020204D323018
:1004800036205800486F6D65206F6666736574206E
:10049000286D6D293A00204500205A002058002080
:1004A000420020540020204D32303520530041645A
:1004B00076616E636564207661726961626C6573F2
:1004C0003A20533D4D696E206665656472617465BE
:1004D00020286D6D2F73292C20543D4D696E20749A
:1004E000726176656C20666565647261746520284A
:1004F0006D6D2F73292C20423D6D696E696D756D90
:10050000207365676D656E742074696D6520286D54
:1005100073292C20583D6D6178696D756D2058598F
:10052000206A65726B20286D6D2F73292C20205A4C
:100530003D6D6178696D756D205A206A65726B201A
:10054000286D6D2F73292C2020453D6D6178696DD4
:10055000756D2045206A65726B20286D6D2F73299B
:100560000020540020204D3230342053004163637A
:10057000656C65726174696F6E3A20533D616363A7
:10058000656C65726174696F6E2C20543D72657480
:100590007261637420616363656C65726174696F15
:1005A0006E00204500205A0020590020204D323096
:1005B000312058004D6178696D756D204163636528
:1005C0006C65726174696F6E20286D6D2F733229AE
:1005D0003A00204500205A0020590020204D32309A
:1005E000332058004D6178696D756D2066656564CE
:1005F000726174657320286D6D2F73293A00205A3B
:100600000020590020204D3336382058004D414EEF
:1006100055414C5F484F4D455F504F5320666163D5
:10062000746F72733A00205A0020590020204D3315
:1006300036372058004441524D5F4F46465345548B
:1006400020666163746F72733A0020480020430093
:1006500020530020204D333636204200423D4C6F5F
:1006600077657261726D20286D6D292C20533D5580
:100670007070657261726D20286D6D292C20433D6C
:1006800043656E6365724F666673657220286D6D93
:10069000292C20483D486561644F66667365742067
:1006A000286D6D2900204500205A00205900202087
:1006B0004D39322058005374657073207065722074
:1006C000756E69743A0053746F7265642073657453
:1006D00074696E677320726574726965766564000B
:1006E00048617264636F6465642044656661756C1B
:1006F000742053657474696E6773204C6F61646510
:1007000064002020506C616E6E657242756666658D
:100710007242797465733A20002046726565204DF7
:10072000656D6F72793A2000536570203131203247
:1007300030313700436F6D70696C65643A20002872
:100740006E6F6E652C2064656661756C7420636FD6
:100750006E6669672900207C20417574686F723A63
:100760002000536570203131203230313720323152
:100770003A33333A343600204C6173742055706438
:10078000617465643A20002000312E302E32004D15
:1007900061726C696E0020536F66747761726520B8
:1007A000526573657400205761746368646F6720D5
:1007B0005265736574002042726F776E206F757496
:1007C000205265736574002045787465726E616CA3
:1007D00020526573657400506F77657255700073B1
:1007E00074617274005072696E7465722068616C15
:1007F0007465642E206B696C6C28292063616C6CB5
:10080000656421005072696E7465722073746F7034
:100810007065642064756520746F206572726F72F4
:10082000732E2046697820746865206572726F7235
:1008300020616E6420757365204D39393920746FDD
:1008400020726573746172742E202854656D706512
:100850007261747572652069732072657365742E98
:100860002053657420697420616674657220726516
:100870007374617274696E67290000004843000058
:100880004843000061430000000000000000000039
:1008900000000000B0C1000050C2CDCCCC3D000033
:1008A000404000004040000040400000484300003D
:1008B0004843000061430101FF24F4D43050C38E4B
:1008C00020C2A24017828B7011127A910D816CD9CF
:1008D0000AA861E108C7586607615143061E4B5DCF
:1008E00005C145A7041A411104093D980371393126
:1008F000034036DB0265339102D4305402802E1D52
:1009000002632CEE01752AC501B028A001102781D1
:10091000018F2564012B244B01E0223401AC211FFF
:10092000018D200D01801FFC00841EED00971DDF4E
:1009300000B81CD200E61BC600201BBC00641AB223
:1009400000B219A8000A19A0006A189900D11791DD
:100950000040178B00B516840031167E00B3157960
:10096000003A157300C7146F0058146A00EE13663E
:10097000008813630025135E00C7125B006C1257DA
:100980000015125400C111510070114F0021114B7C
:1009900000D61049008D1047004610440002104256
:1009A00000C00F4000800F3E00420F3C00060F3B8E
:1009B00000CB0E3800930E37005C0E3500270E3446
:1009C00000F30D3200C10D3100900D3000600D2E8E
:1009D00000320D2D00050D2C00D90C2B00AE0C297A
:1009E00000850C29005C0C2700350C27000E0C2616
:1009F00000E80B2400C40B2400A00B23007D0B2374
:100A0000005A0B2100390B2100180B2000F80A1F97
:100A100000D90A1E00BB0A1E009D0A1D00800A1D87
:100A200000630A1C00470A1B002C0A1B00110A1A4B
:100A300000F7091A00DD091900C4091900AB0919EA
:100A400000920917007B091800630917004C09166A
:100A50000036091600200916000A091500F50815C8
:100A600000E0081400CC081400B8081400A408140E
:100A700000900813007D0812006B0813005808123C
:100A80000046081200340811002308110012081152
:100A90000001081100F0071000E0071000D0071057
:100AA00000C0071000B0070F00A107100091070E4B
:100AB0000083070F0074070F0065070E0057070E2D
:100AC0000049070E003B070D002E070E0020070D02
:100AD0000013070D0006070D00F9060C00ED060DCA
:100AE00000E0060C00D4060C00C8060C00BC060C86
:100AF00000B0060C00A4060B0099060C008D060B36
:100B00000082060B0077060B006C060B0061060ADC
:100B10000057060B004C060A0042060A0038060A77
:100B2000002E060A0024060A001A060A001006090A
:100B30000007060A00FD050900F4050900EB050998
:100B400000E2050900D9050900D0050900C705091B
:100B500000BE050900B5050800AD050800A505099A
:100B6000009C050800940508008C05080084050811
:100B7000007C050800740508006C05070065050881
:100B8000005D050700560508004E050700470507EC
:100B9000004005080038050700310507002A050751
:100BA00000230507001C050600160507000F0507B2
:100BB000000805060002050700FB040600F504070F
:100BC00000EE040600E8040600E2040700DB040669
:100BD00000D5040600CF040600C9040600C30406BD
:100BE00000BD040600B7040600B1040500AC04060D
:100BF00000A6040600A00405009B04060095040559
:100C000000900406008A040500850405008004069F
:100C1000007A04050075040500700405006B0405E6
:100C20000066040500610405005C04050057040526
:100C300000520405004D0405004804050043040566
:100C4000003E0404003A04050035040500300404A5
:100C5000002C04050027040400230405001E0404DE
:100C6000001A04040016040500110404000D040415
:100C700000090405000404040000040400FC03044B
:100C800000F8030400F4030400F0030400EC030480
:100C900000E8030400E4030400E0030400DC0304B0
:100CA00000D8030400D4030400D0030400CC0304E0
:100CB00000C8030300C503030024F404D9201BC4A7
:100CC0000C5C0E9804C4095F0265077101F405F914
:100CD00000FB04B30048048700C1036900580355B2
:100CE0000003034500BE023A008402310053022A89
:100CF000002902250004022000E4011C00C801199B
:100D000000AF011700980114008401130071011055
:100D1000006101100051010E0043010D0036010B6E
:100D2000002B010B0020010B00150109000C01092B
:100D30000003010800FB000800F3000800EB0007B7
:100D400000E4000600DE000600D8000600D200061F
:100D500000CC000500C7000500C2000500BD00046E
:100D600000B9000400B5000400B1000400AD0004A7
:100D700000A9000400A5000300A20003009F0004D6
:100D8000009B0003009800030095000200930003FD
:100D900000900003008D0002008B00030088000219
:100DA000008600020084000300810002007F000230
:100DB000007D0002007B0002007900020077000144
:100DC000007600020074000200720001007100024F
:100DD000006F0002006D0001006C0002006A00015B
:100DE0000069000200670001006600010065000163
:100DF0000064000200620001006100010060000167
:100E0000005F0002005D0001005C0001005B00016A
:100E1000005A00010059000100580001005700016C
:100E2000005600010055000100540001005300006D
:100E30000053000100520001005100010050000168
:100E4000004F0001004E0000004E0001004D000167
:100E5000004C0001004B0000004B0001004A000163
:100E6000004900010048000000480001004700015F
:100E7000004600000046000100450000004500015A
:100E80000044000100430000004300010042000054
:100E9000004200010041000000410001004000014B
:100EA000003F0000003F0001003E0000003E000146
:100EB000003D0000003D0001003C0000003C00003F
:100EC000003C0001003B0000003B0001003A000034
:100ED000003A00010039000000390001003800002C
:100EE0000038000000380001003700000037000122
:100EF000003600000036000000360001003500001A
:100F0000003500000035000100340000003400000E
:100F10000034000100330000003300000033000102
:100F200000320000003200000032000100310000F9
:100F300000310000003100010030000000300000EE
:100F400000300001002F0000002F0000002F0000E3
:100F5000002F0001002E0000002E0000002E0001D6
:100F6000002D0000002D0000002D0000002D0001CC
:100F7000002C0000002C0000002C0000002C0001C0
:100F8000002B0000002B0000002B0000002B0001B4
:100F9000002A0000002A0000002A0000002A0001A8
:100FA000002900000029000000290000002900009D
:100FB000002900010028000000280000002800008F
:100FC0000028000000280001002700000027000082
:100FD0000027000000270000002700010026000075
:100FE0000026000000260000002600000026000168
:100FF000002500000025000000250000002500005D
:10100000002500000025000100240000002400004D
:101010000024000000240000002400010023000040
:101020000023000000230000002300000023000034
:101030000023000000230001002200000022000025
:101040000022000000220000002200000022000117
:10105000002100000021000000210000002100000C
:1010600000210000002100000021000100200000FC
:1010700000200000002000000020000000200000F0
:10108000002000000020000000200001001F0000E0
:10109000001F0000001F0000001F0000001F0000D4
:1010A000001F0000001F0001001E0000001E0000C5
:1010B000001E0000001E0000003A20457874727582
:1010C000646572207377697463686564206F66660F
:1010D0002E204D415854454D502074726967676504
:1010E0007265642021003A204578747275646572D7
:1010F000207377697463686564206F66662E204D7F
:10110000494E54454D502074726967676572656435
:101110002021004572726F723A0000002100240005
:1011200027002A002D0030003300010100000401D7
:1011300007010A0100002200250028002B002E00D4
:101140003100340002010000050108010B0100001C
:1011500020002300260029002C002F00320000016F
:10116000000003010601090105050505070508083A
:101170000808020202020A0A080804040404010121
:101180000101010101010303030303030303040736
:1011900007070C0C0C0C0C0C0C0C020202020606CD
:1011A0000606060606060B0B0B0B0B0B0B0B0102C0
:1011B0001020200808102040102040800201020169
:1011C0000804020101020408102040808040201021
:1011D000080402018004020180402010080402017A
:1011E00008040201010204081020408001020408E2
:1011F0001020408000000A0B02090C0D0E080703A6
:1012000004010000000000000000000000000000D9
:1012100000000000000000000000000000000000CE
:10122000121110000000000000000000000000008B
:10123000000000000000000000005072696E74653C
:10124000722073746F707065642064756520746FAC
:10125000206572726F72732E2046697820746865FB
:10126000206572726F7220616E6420757365204D07
:1012700039393920746F20726573746172742E204D
:101280002854656D7065726174757265206973208C
:1012900072657365742E20536574206974206166CD
:1012A0007465722072657374617274696E67290067
:1012B0004E6F204C696E65204E756D6265722077A9
:1012C00069746820636865636B73756D2C204C616D
:1012D0007374204C696E653A20004E6F2043686538
:1012E000636B73756D2077697468206C696E652017
:1012F0006E756D6265722C204C617374204C696E42
:10130000653A2000636865636B73756D206D697362
:101310006D617463682C204C617374204C696E6538
:101320003A20004C696E65204E756D6265722069C9
:1013300073206E6F74204C617374204C696E65204D
:101340004E756D6265722B312C204C617374204C8C
:10135000696E653A20004D31313000526573656E1B
:10136000643A20006F6B004E414E494E4954594932
:101370004E46CDCCCC3D0AD7233C17B7D13877CCDD
:101380002B329595E6241FB14F0A00002041000042
:10139000C84200401C4620BCBE4CCA1B0E5AAEC5FB
:1013A0009D7411241FBECFEFD1E2DEBFCDBF00E0A0
:1013B0000CBF14E0A0E0B2E0E4E0F3EC00E00BBF0F
:1013C00002C007900D92A034B107D9F72DE0A0E438
:1013D000B4E001C01D92A531B207E1F70E94A33B22
:1013E0000C9480610C940000FC01CB01BA012491A3
:1013F000222341F03091C00035FFFCCF2093C6007E
:101400003196F5CF4AE00C94C320EF92FF921F93E0
:10141000CF93DF937C01C62FD72F142F160FF70120
:10142000808191810E9420618993F701808191815F
:101430000196918380831C13F2CFDF91CF911F918E
:10144000FF90EF900895FC01CB01BA012491222373
:1014500041F03091C00035FFFCCF2093C60031969B
:10146000F5CF42E00C944A212F923F924F925F9227
:101470006F927F928F929F92AF92BF92CF92DF92A4
:10148000EF92FF920F931F93CF93DF93CDB7DEB709
:10149000E0970FB6F894DEBF0FBECDBF80E1EEEC53
:1014A000F2E0DE01919601900D928A95E1F780E1DC
:1014B000EEEDF2E0DE01519601900D928A95E1F792
:1014C00080E1EEEEF2E0DE01119601900D928A9538
:1014D000E1F7DE01919604E81CE0BE016F5E7F4FEC
:1014E00042E457E0CE0101966C0123ED35E091E036
:1014F000292E92E0392E7E0191E3E90EF11C812C18
:10150000912CE0E8AE2EEFE3BE2E4D905D906D90F5
:101510007D90F80141925192619271928F01FB018D
:101520004190519061907190BF01FA0141925192A6
:1015300061927192AF01F60141905190619071906A
:101540006F01F90141925192619271929F01F101F3
:1015500081929192A192B1921F01AE15BF05A9F699
:101560000E94981B80E090E0A8ECB3E480933A07D7
:1015700090933B07A0933C07B0933D0780E090E039
:10158000AAEFB4E480933E0790933F07A0934007EF
:10159000B0934107109252071092530710925407CC
:1015A0001092550780E29EE4A0E0B0E08093CF0562
:1015B0009093D005A093D105B093D2051092560711
:1015C00010925707109258071092590780E090E048
:1015D000A0EAB0E48093260790932707A0932807FA
:1015E000B09329078DEC9CECACECBEE38093220712
:1015F00090932307A0932407B0932507C12CD12CE7
:1016000080E4E82EFE2CC0921E07D0921F07E092C5
:101610002007F09221071092F9051092FA05109216
:10162000FB051092FC051092F5051092F60510923C
:10163000F7051092F8051092F1051092F20510923C
:10164000F3051092F40580E090E0A7E0B3E4809306
:10165000250290932602A0932702B093280280E0EF
:1016600090E0AAE2B3E48093210290932202A09337
:101670002302B093240280E090E0A2E8B2E48093D9
:101680001D0290931E02A0931F02B093200280E0DF
:1016900090E0A8E4B2E48093190290931A02A09318
:1016A0001B02B0931C0280E090E0A6E6B3E48093B6
:1016B0000D0290930E02A0930F02B09310021092AD
:1016C000110210921202109213021092140280E082
:1016D00090E0A2E8B2EC8093150290931602A093DA
:1016E0001702B09318021092FD051092FE05109299
:1016F000FF05109200061092010610920206109249
:101700000306109204061092050610920606109227
:1017100007061092080680E090E0A4ECB1E4809304
:10172000410290934202A0934302B093440280ECA2
:101730009AEDA6E6BEE380933D0290933E02A0930D
:101740003F02B09340028AEE94E5A7E2B4E48093AE
:10175000390290933A02A0933B02B0933C020E945C
:10176000533580E090E0A0E8BFE38093350290938A
:101770003602A0933702B09338021092E305C0926C
:101780004702D0924802E0924902F0924A020E9437
:10179000731FE1E5F4E08491882341F09091C0004B
:1017A00095FFFCCF8093C6003196F5CFE0EEF6E0D2
:1017B0008491882341F09091C00095FFFCCF8093E5
:1017C000C6003196F5CF8091C00085FFFCCF8AE03E
:1017D0008093C600E0960FB6F894DEBF0FBECDBF73
:1017E000DF91CF911F910F91FF90EF90DF90CF90FD
:1017F000BF90AF909F908F907F906F905F904F9031
:101800003F902F900895CF93DF93C1E5D4E0FE0180
:101810008491882341F09091C00095FFFCCF809384
:10182000C6003196F5CFE6EBF6E08491882341F0CF
:101830009091C00095FFFCCF8093C6003196F5CF04
:101840008091C00085FFFCCF8AE08093C600FE0136
:101850008491E1E5F4E0882349F09091C00095FF80
:10186000FCCF8093C60031968491F5CF4091840CD3
:101870005091850C6091860C7091870C8EEA96E0F1
:10188000E2DD4091880C5091890C60918A0C709136
:101890008B0C8BEA96E0D7DD40918C0C50918D0C2F
:1018A00060918E0C70918F0C88EA96E0CCDD4091AF
:1018B000900C5091910C6091920C7091930C85EA70
:1018C00096E0C1DD8091C00085FFFCCF8AE0809367
:1018D000C600FE018491E1E5F4E0882349F090918F
:1018E000C00095FFFCCF8093C60031968491F5CF60
:1018F000ECE5F6E08491882341F09091C00095FFDB
:10190000FCCF8093C6003196F5CF8091C00085FF53
:10191000FCCF8AE08093C600FE018491E1E5F4E00B
:10192000882349F09091C00095FFFCCF8093C600BA
:1019300031968491F5CF4091250250912602609115
:1019400027027091280283E596E07DDD4091210217
:1019500050912202609123027091240280E596E06A
:1019600072DD40911D0250911E0260911F02709124
:1019700020028DE496E067DD4091190250911A0231
:1019800060911B0270911C028AE496E05CDD8091FC
:10199000C00085FFFCCF8AE08093C600FE018491E1
:1019A000E1E5F4E0882349F09091C00095FFFCCF79
:1019B0008093C60031968491F5CFE5E3F6E08491FB
:1019C000882341F09091C00095FFFCCF8093C60022
:1019D0003196F5CF8091C00085FFFCCF8AE08093DF
:1019E000C600FE018491E1E5F4E0882349F090917E
:1019F000C00095FFFCCF8093C60031968491F5CF4F
:101A000040910D0250910E0260910F0270911002F0
:101A10008CE296E018DD4091110250911202609123
:101A200013027091140289E296E00DDD40911502D7
:101A300050911602609117027091180286E296E0AA
:101A400002DD8091C00085FFFCCF8AE08093C60054
:101A5000FE018491E1E5F4E0882349F09091C00013
:101A600095FFFCCF8093C60031968491F5CFEDE0D1
:101A7000F6E08491882341F09091C00095FFFCCF5F
:101A80008093C6003196F5CF8091C00085FFFCCFD2
:101A90008AE08093C600FE018491E1E5F4E08823AA
:101AA00049F09091C00095FFFCCF8093C60031961D
:101AB0008491F5CF4091FD055091FE056091FF05A1
:101AC0007091000684E096E0BEDC409101065091E2
:101AD0000206609103067091040681E096E0B3DC93
:101AE0004091050650910606609107067091080620
:101AF0008EEF95E0A8DC8091C00085FFFCCF8AE0E6
:101B00008093C600FE018491E1E5F4E0882349F06A
:101B10009091C00095FFFCCF8093C60031968491D0
:101B2000F5CFE4EEF5E08491882341F09091C00078
:101B300095FFFCCF8093C6003196F5CF8091C00011
:101B400085FFFCCF8AE08093C600FE018491E1E529
:101B5000F4E0882349F09091C00095FFFCCF80937A
:101B6000C60031968491F5CF4091420750914307CA
:101B700060914407709145078BED95E064DC4091DE
:101B8000460750914707609148077091490788EDD3
:101B900095E059DC40914A0750914B0760914C0702
:101BA00070914D0785ED95E04EDC40914E075091C8
:101BB0004F07609150077091510782ED95E043DC2B
:101BC0008091C00085FFFCCF8AE08093C600FE01B3
:101BD0008491E1E5F4E0882349F09091C00095FFFD
:101BE000FCCF8093C60031968491F5CFE4EBF5E00D
:101BF0008491882341F09091C00095FFFCCF8093A1
:101C0000C6003196F5CF8091C00085FFFCCF8AE0F9
:101C10008093C600FE018491E1E5F4E0882349F059
:101C20009091C00095FFFCCF8093C60031968491BF
:101C3000F5CF4091D3055091D4056091D5057091B1
:101C4000D6058BEA95E0D0DB4091D7055091D805B9
:101C50006091D9057091DA0588EA95E0C5DB40917D
:101C6000DB055091DC056091DD057091DE0585EAAC
:101C700095E0BADB4091DF055091E0056091E10508
:101C80007091E20582EA95E0AFDB8091C00085FFAC
:101C9000FCCF8AE08093C600FE018491E1E5F4E088
:101CA000882349F09091C00095FFFCCF8093C60037
:101CB00031968491F5CFEDE6F5E08491882341F0EB
:101CC0009091C00095FFFCCF8093C6003196F5CF70
:101CD0008091C00085FFFCCF8AE08093C600FE01A2
:101CE0008491E1E5F4E0882349F09091C00095FFEC
:101CF000FCCF8093C60031968491F5CF40913A078E
:101D000050913B0760913C0770913D0784E695E058
:101D10009ADB40913E0750913F07609140077091D8
:101D2000410781E695E08FDB8091C00085FFFCCF05
:101D30008AE08093C600FE018491E1E5F4E0882307
:101D400049F09091C00095FFFCCF8093C60031967A
:101D50008491F5CFEEEAF4E08491882341F09091EC
:101D6000C00095FFFCCF8093C6003196F5CF8091DF
:101D7000C00085FFFCCF8AE08093C600FE018491FD
:101D8000E1E5F4E0882349F09091C00095FFFCCF95
:101D90008093C60031968491F5CF409152075091BF
:101DA0005307609154077091550785EA94E04BDB27
:101DB0004091560750915707609158077091590705
:101DC00082EA94E040DB4091CF055091D0056091CC
:101DD000D1057091D2058FE994E006DB409126078A
:101DE0005091270760912807709129078CE994E0AA
:101DF0002ADB4091220750912307609124077091BC
:101E0000250789E994E01FDB40911E0750911F07C9
:101E1000609120077091210786E994E014DB80919E
:101E2000C00085FFFCCF8AE08093C600FE0184914C
:101E3000E1E5F4E0882349F09091C00095FFFCCFE4
:101E40008093C60031968491F5CFE4E8F4E0849164
:101E5000882341F09091C00095FFFCCF8093C6008D
:101E60003196F5CF8091C00085FFFCCF8AE080934A
:101E7000C600FE018491E1E5F4E0882349F09091E9
:101E8000C00095FFFCCF8093C60031968491F5CFBA
:101E90004091F1055091F2056091F3057091F405C0
:101EA0008BE794E0D0DA4091F5055091F60560910A
:101EB000F7057091F80588E794E0C5DA4091F905D7
:101EC0005091FA056091FB057091FC0585E794E05F
:101ED000BADA8091C00085FFFCCF8AE08093C6000B
:101EE000FE018491E1E5F4E0882349F09091C0007F
:101EF00095FFFCCF8093C60031968491F5CFE7E63D
:101F0000F4E08491882341F09091C00095FFFCCFCC
:101F10008093C6003196F5CF8091C00085FFFCCF3D
:101F20008AE08093C600FE01C491E1E5F4E0CC2391
:101F300049F08091C00085FFFCCFC093C600319668
:101F4000C491F5CF40914102509142026091430209
:101F5000709144028DE594E076DA2DEB37E346E0AC
:101F60005EE360913D0270913E0280913F0290914C
:101F700040020E946958AB01BC018AE594E063DA33
:101F80002DEB37E346E05EE36091390270913A024F
:101F900080913B0290913C020E94735AAB01BC01BC
:101FA00087E594E050DA8091C00085FFFCCF8AE09D
:101FB0008093C600DF91CF910895CF93DF93CDB783
:101FC000DEB768970FB6F894DEBF0FBECDBF84E6CC
:101FD00090E0988F8F8B86E591E3A3E3B0E089834F
:101FE0009A83AB83BC8344E0BE016B5F7F4FCE011D
:101FF00047960BDA43E050E0BE016B5F7F4FCE01A6
:1020000001960E94625A892B09F0EFC040E164E812
:102010007CE0CE014796F9D940E162E477E0CE0159
:102020004796F3D940E163ED75E0CE014796EDD9CF
:102030000E94981B44E06AE377E0CE014796E5D919
:1020400044E06EE377E0CE014796DFD944E062E5F5
:1020500077E0CE014796D9D944E066E577E0CE0136
:102060004796D3D944E06FEC75E0CE014796CDD9C1
:1020700044E066E277E0CE014796C7D944E062E2E9
:1020800077E0CE014796C1D944E06EE177E0CE011A
:102090004796BBD94CE061EF75E0CE014796B5D9C4
:1020A00044E065E272E0CE014796AFD944E061E2D8
:1020B00072E0CE014796A9D944E06DE172E0CE010D
:1020C0004796A3D944E069E172E0CE0147969DD9D5
:1020D0004CE06DE072E0CE01479697D94CE06DEF91
:1020E00075E0CE01479691D942E0BE016B5E7F4F0D
:1020F000CE0147968AD942E0BE016D5E7F4FCE0188
:10210000479683D942E0BE016F5E7F4FCE0147966E
:102110007CD942E0BE01615F7F4FCE01479675D901
:1021200042E0BE01635F7F4FCE0147966ED942E029
:10213000BE01655F7F4FCE01479667D944E063E4F7
:1021400074E0CE01479661D944E061E472E0CE01CB
:1021500047965BD944E06DE372E0CE01479655D9CE
:1021600044E069E372E0CE0147964FD942E0BE01F8
:10217000675F7F4FCE01479648D94CE061E072E03F
:10218000CE01479642D941E063EE75E0CE01479615
:102190003CD944E067E472E0CE01479636D90E940C
:1021A000731F0E945335E1E5F4E08491882341F0E8
:1021B0009091C00095FFFCCF8093C6003196F5CF7B
:1021C000E6ECF6E08491882341F09091C00095FF01
:1021D000FCCF8093C6003196F5CF8091C00085FF7B
:1021E000FCCF8AE08093C60001C03ED90CDB689624
:1021F0000FB6F894DEBF0FBECDBFDF91CF9108952B
:10220000CF93DF931F921F92CDB7DEB7269A2E98F9
:1022100082E08093C0001092C50080E18093C400EA
:102220008091C10080618093C1008091C10088606D
:102230008093C1008091C10080688093C100EFED60
:10224000F7E08491882341F09091C00095FFFCCF86
:102250008093C6003196F5CF8091C00085FFFCCFFA
:102260008AE08093C60081E594E0FC01249122235A
:1022700041F03091C00035FFFCCF2093C60031966D
:10228000F5CF24B720FF14C0E7EDF7E034913323F6
:1022900041F04091C00045FFFCCF3093C60031961D
:1022A000F5CF3091C00035FFFCCF3AE03093C60047
:1022B00021FF14C0E7ECF7E03491332341F0409163
:1022C000C00045FFFCCF3093C6003196F5CF30916A
:1022D000C00035FFFCCF3AE03093C60022FF14C0A7
:1022E000E6EBF7E03491332341F04091C00045FF25
:1022F000FCCF3093C6003196F5CF3091C00035FF4A
:10230000FCCF3AE03093C60023FF14C0E6EAF7E0C2
:102310003491332341F04091C00045FFFCCF30930E
:10232000C6003196F5CF3091C00035FFFCCF3AE0C2
:102330003093C60025FF14C0E6E9F7E0249122237C
:1023400041F03091C00035FFFCCF2093C60031969C
:10235000F5CF2091C00025FFFCCF2AE02093C600D6
:1023600014BEEFE8F7E02491222341F03091C00041
:1023700035FFFCCF2093C6003196F5CFE9E8F7E0B2
:102380002491222341F03091C00035FFFCCF2093EF
:10239000C6003196F5CFE7E8F7E02491222341F01B
:1023A0003091C00035FFFCCF2093C6003196F5CFA9
:1023B0002091C00025FFFCCF2AE02093C600FC013D
:1023C0002491E1E5F4E0222349F03091C00035FF8B
:1023D000FCCF2093C60031962491F5CFE7E7F7E0D4
:1023E0002491222341F03091C00035FFFCCF20938F
:1023F000C6003196F5CFE2E6F7E02491222341F0C2
:102400003091C00035FFFCCF2093C6003196F5CF48
:10241000E6E5F7E02491222341F03091C00035FF3A
:10242000FCCF2093C6003196F5CFEFE3F7E024917F
:10243000222341F03091C00035FFFCCF2093C6002D
:102440003196F5CF2091C00025FFFCCF2AE02093E4
:10245000C600E4E3F7E02491222341F03091C0006C
:1024600035FFFCCF2093C6003196F5CFE8E2F7E0C8
:102470002491222341F03091C00035FFFCCF2093FE
:10248000C6003196F5CF2091C00025FFFCCF2AE091
:102490002093C600FC018491E1E5F4E0882349F033
:1024A0009091C00095FFFCCF8093C6003196849137
:1024B000F5CFE9E1F7E08491882341F09091C000E5
:1024C00095FFFCCF8093C6003196F5CF20910F0D7C
:1024D0003091100DCE0101962115310519F4855169
:1024E0009D4002C0821B930B9A83898369817A8104
:1024F000072E000C880B990B0E943821E2E0F7E0D0
:102500008491882341F09091C00095FFFCCF809387
:10251000C6003196F5CF60ED74E080E090E00E9457
:1025200038218091C00085FFFCCF8AE08093C600EF
:102530001092E10C1092E20C1092E30C1092E40C59
:102540003CDD1092A40C1092A50C1092A60C1092D7
:10255000A70C20913D0230913E0240913F025091E4
:10256000400260E070E08FE793E40E946958609356
:10257000A00C7093A10C8093A20C9093A30C1092CA
:102580005E0610925F06109260061092610620911E
:102590002D0230912E0240912F025091300260E0C6
:1025A00070E08FE793E40E94695860939C0C7093ED
:1025B0009D0C80939E0C90939F0C249A8091010116
:1025C0008062809301018091010180648093010108
:1025D00087ED80937A0010927E0010927D008091AA
:1025E0007D00806280937D0080917D008068809373
:1025F0007D0080917D00806480937D0080E888BDAF
:1026000080916E00846080936E006AEF70E080E0DD
:1026100090E00E941D311092350C1092340C80E134
:10262000E4E7FCE0DF011D928A95E9F71092600C67
:102630001092610C1092620C1092630C1092640C58
:102640001092650C1092660C1092670C1092680C38
:102650001092690C10926A0C10926B0C10926C0C18
:1026600010926D0C10926E0C10926F0C1092700CF8
:102670001092710C1092720C1092730C819A879ABE
:1026800080910A01826080930A010E9A3B9A579AC0
:10269000829A809107018160809307010A9A129AB9
:1026A0003F9A479A6D98759A809104018D7F809327
:1026B00004019FB7F8948091050182608093050121
:1026C0009FBF6C98749A809104018E7F809304015F
:1026D0009FB7F894809105018160809305019FBFA9
:1026E00052985A9A809A88985F981092300C869ADD
:1026F0008E988A981092310C80910A01886080939C
:102700000A019FB7F89480910B01877F80930B019A
:102710009FBF9FB7F894809108018E7F8093080136
:102720009FBF1092320C0C9A1498129A399A4198C1
:10273000809181008F7E80938100809181008860EC
:1027400080938100809180008D7F809380008091B4
:1027500080008E7F80938000809180008F738093B3
:102760008000809180008F7C809380008091810028
:10277000887F82608093810080E090E4909389005C
:1027800080938800109285001092840080916F00E1
:10279000826080936F0081E0809300027894BFEFA5
:1027A000E3EDF0E3B150E040F040E1F700C000009D
:1027B0000F900F90DF91CF910895EF92FF921F93AA
:1027C000CF93DF937C01C62FD72F142F160F69915B
:1027D000F701808191810E942861F70180819181B8
:1027E0000196918380831C13F2CFDF91CF911F91CB
:1027F000FF90EF9008951F920F920FB60F92112441
:102800000BB60F920F931F932F933F934F935F93AA
:102810006F937F938F939F93AF93BF93CF93DF93E8
:10282000EF93FF93E0911C07F0911D07309709F09B
:1028300080C19091350C8091340C981769F0E0912B
:10284000340C2DE4E29FF0011124E25AF84FDF012D
:10285000A45BBF4F81E08C93F0931D07E0931C07AE
:10286000309709F460C1DF01A45BBF4F21E02C93D6
:10287000109218071092190710921A0710921B074E
:1028800080AD91AD81343CE9930728F481326EE448
:10289000960748F002C080E49CE996958795969546
:1028A000879524E007C0813177E2970730F096954D
:1028B000879522E02093170707C0209317078032DF
:1028C000910510F480E290E08097811528E092074E
:1028D000E8F0E92FFF27EE0FFF1FEE0FFF1F9F010C
:1028E0002754334FF901329665917491AA27879F37
:1028F000A001869F410D5A1F06944A1F5A1F11249A
:10290000F90125913491241B350B20C09C0136958B
:1029100027952C7F2754374FF90145915491F901A0
:102920003296A591B491BC0167707727A69F90015C
:10293000A79F300DB69F300D112413E036952795D3
:102940001A95E1F7BA01621B730B9B01243631051E
:1029500080F4E4EBF3E02191222339F03091C000C0
:1029600035FFFCCF2093C600F6CF0E94332F24E61C
:1029700030E0309316072093150780911707082E33
:10298000000C990B9093140780931307E0911C0798
:10299000F0911D0784AD95AD9093120780931107B8
:1029A00081347CE9970728F481322EE4920748F0BD
:1029B00002C080E49CE9969587959695879524E0DA
:1029C00007C0813137E2930730F09695879522E072
:1029D0002093170708C021E0209317078032910544
:1029E00010F480E290E08097811568E09607E8F0A7
:1029F000E92FFF27EE0FFF1FEE0FFF1F9F01275448
:102A0000334FF901329665917491AA27879FA001EF
:102A1000869F410D5A1F06944A1F5A1F1124F9011F
:102A200025913491241B350B20C09C0136952795A8
:102A30002C7F2754374FF90145915491F901329673
:102A4000A591B491BC0167707727A69F9001A79FBD
:102A5000300DB69F300D112473E0369527957A9589
:102A6000E1F7BA01621B730B9B012436310580F438
:102A7000E4EBF3E02191222339F03091C00035FFDF
:102A8000FCCF2093C600F6CF0E94332F24E630E01F
:102A9000C901A0E0B0E080930D0790930E07A093CA
:102AA0000F07B09310073093890020938800E091BE
:102AB0001C07F0911D0780899189A289B389B69579
:102AC000A79597958795B095A095909581959F4FDF
:102AD000AF4FBF4F8093090790930A07A0930B074E
:102AE000B0930C078093050790930607A093070700
:102AF000B09308078093010790930207A093030700
:102B0000B09304078093FD069093FE06A093FF0602
:102B1000B09300071092F9061092FA061092FB0685
:102B20001092FC0606C080ED97E090938900809398
:102B30008800E0911C07F0911D07309709F472C5D9
:102B400080A18093F80680FF03C0899A8FEF02C0AE
:102B5000899881E080935E028091F80681FF03C02E
:102B60008F988FEF02C08F9A81E080935F0220914F
:102B7000F8069091000220FF3CC0992309F472C02E
:102B80008CB131E085FB882780F9832779F140916A
:102B9000F706442359F1E0911C07F0911D0740818D
:102BA0005181628173811416150616061706F4F416
:102BB0004091400C5091410C6091420C7091430C3B
:102BC00040932606509327066093280670932906A3
:102BD0003093390640895189628973894093F90697
:102BE0005093FA066093FB067093FC068093F706F9
:102BF00039C09923B9F18CB131E082958170832776
:102C000079F14091F606442359F1E0911C07F091C7
:102C10001D074081518162817381141615061606C5
:102C20001706F4F44091400C5091410C6091420C15
:102C30007091430C40932606509327066093280614
:102C400070932906309339064089518962897389C6
:102C50004093F9065093FA066093FB067093FC06C6
:102C60008093F60621FF3CC0992309F475C080913A
:102C7000030191E086958170892779F13091F506FD
:102C8000332359F1E0911C07F0911D0744815581D0
:102C9000668177811416150616061706F4F440911E
:102CA000440C5091450C6091460C7091470C409338
:102CB0002A0650932B0660932C0670932D06909352
:102CC000380640895189628973894093F906509387
:102CD000FA066093FB067093FC068093F5063CC0F1
:102CE0009923D1F180910301817091E08927382FD8
:102CF0003170882379F18091F406882359F1E091AD
:102D00001C07F0911D074481558166817781141657
:102D1000150616061706F4F44091440C5091450C24
:102D20006091460C7091470C40932A0650932B06F5
:102D300060932C0670932D069093380680899189B4
:102D4000A289B3898093F9069093FA06A093FB06B3
:102D5000B093FC063093F4069FB722FF0BC0F894A3
:102D600080910B018D7F80930B019FBF8FEF80932C
:102D7000600245C0F89480910B01826080930B0142
:102D80009FBF91E090936002809100028823B9F187
:102D900089B182FB882780F9892779F12091F30690
:102DA000222359F1E0911C07F0911D0740855185C0
:102DB000628573851416150616061706F4F44091FD
:102DC000480C5091490C60914A0C70914B0C409307
:102DD0002E0650932F066093300670933106909321
:102DE000370640895189628973894093F906509367
:102DF000FA066093FB067093FC068093F3068091BD
:102E0000F80683FF42C0169A8FEF8093610280918B
:102E100000028823F1F182E10E94C32F21E0892B77
:102E200011F020E02FC08091F206882359F1E09143
:102E30001C07F0911D0784859585A685B785181612
:102E400019061A061B06F4F480914C0C90914D0C57
:102E5000A0914E0CB0914F0C8093320690933306A4
:102E6000A0933406B0933506209336068089918965
:102E7000A289B3898093F9069093FA06A093FB0682
:102E8000B093FC062093F20604C0169881E080936C
:102E9000610220E08091170728170CF0BCC18091D7
:102EA000C00087FF19C03091C6004091E2065091E2
:102EB000E306CA0101968F7799276091E406709125
:102EC000E5068617970741F0FA01EE59F94F30836E
:102ED0009093E3068093E206E0911C07F0911D07B2
:102EE0004091090750910A0760910B0770910C07F8
:102EF00080819181A281B381840F951FA61FB71F86
:102F00008093090790930A07A0930B07B0930C07CF
:102F1000181619061A061B06CCF5889AE0911C07AC
:102F2000F0911D078091090790910A07A0910B0766
:102F3000B0910C074089518962897389841B950B74
:102F4000A60BB70B8093090790930A07A0930B0772
:102F5000B0930C0780915E024091400C5091410C5F
:102F60006091420C7091430C082E000C990BAA0B37
:102F7000BB0B840F951FA61FB71F8093400C909327
:102F8000410CA093420CB093430C8898E0911C072D
:102F9000F0911D07409105075091060760910707C2
:102FA0007091080784819581A681B781840F951F50
:102FB000A61FB71F8093050790930607A0930707E6
:102FC000B0930807181619061A061B06CCF58E9A38
:102FD000E0911C07F0911D0780910507909106076D
:102FE000A0910707B09108074089518962897389C8
:102FF000841B950BA60BB70B8093050790930607D0
:10300000A0930707B093080780915F024091440C9A
:103010005091450C6091460C7091470C082E000CA5
:10302000990BAA0BBB0B840F951FA61FB71F80938C
:10303000440C9093450CA093460CB093470C8E988B
:10304000E0911C07F0911D07409101075091020784
:10305000609103077091040780859185A285B385EF
:10306000840F951FA61FB71F809301079093020737
:10307000A0930307B0930407181619061A061B0637
:103080000CF047C09FB7F89480910B018860809343
:103090000B019FBFE0911C07F0911D078091010774
:1030A00090910207A0910307B091040740895189CC
:1030B00062897389841B950BA60BB70B809301075C
:1030C00090930207A0930307B093040780916002D6
:1030D0004091480C5091490C60914A0C70914B0CF6
:1030E000082E000C990BAA0BBB0B840F951FA61F73
:1030F000B71F8093480C9093490CA0934A0CB0934F
:103100004B0C9FB7F89480910B01877F80930B0144
:103110009FBFE0911C07F0911D074091FD06509163
:10312000FE066091FF067091000784859585A6854F
:10313000B785840F951FA61FB71F8093FD06909338
:10314000FE06A093FF06B0930007181619061A068C
:103150001B06CCF5149AE0911C07F0911D07809195
:10316000FD069091FE06A091FF06B09100074089F0
:10317000518962897389841B950BA60BB70B8093C9
:10318000FD069093FE06A093FF06B0930007809182
:10319000610240914C0C50914D0C60914E0C70911D
:1031A0004F0C082E000C990BAA0BBB0B840F951F1C
:1031B000A61FB71F80934C0C90934D0CA0934E0C00
:1031C000B0934F0C14988091F9069091FA06A09153
:1031D000FB06B091FC060196A11DB11D8093F90676
:1031E0009093FA06A093FB06B093FC064091F90673
:1031F0005091FA066091FB067091FC06E0911C0765
:10320000F0911D0780899189A289B38948175907D0
:103210006A077B07B0F04091F9065091FA06609179
:10322000FB067091FC06E0911C07F0911D07848954
:103230009589A689B78984179507A607B70718F453
:10324000D8C02F5F27CE40910D0750910E07609197
:103250000F0770911007048D158D268D378DAA27C5
:10326000419FB12D529FC001629F900D619F800DC3
:10327000911D429FB00D811D9A1F519FB00D811D60
:103280009A1F609FB00D811D9A1F509FB10D8A1F1C
:103290009A1FB6958A1F9A1F112424AD35AD820F4F
:1032A000931F909312078093110740AD51AD62AD0B
:1032B00073ADA0E0B0E0481759076A077B0720F418
:1032C00050931207409311078091110790911207B4
:1032D00081347CE9970728F481322EE4920748F084
:1032E00002C080E49CE9969587959695879524E0A1
:1032F00007C0813137E2930730F09695879522E039
:103300002093170708C021E020931707803291050A
:1033100010F480E290E08097811568E09607E8F06D
:10332000E92FFF27EE0FFF1FEE0FFF1F9F0127540E
:10333000334FF901329665917491AA27879FA001B6
:10334000869F410D5A1F06944A1F5A1F1124F901E6
:1033500025913491241B350B20C09C01369527956F
:103360002C7F2754374FF90145915491F90132963A
:10337000A591B491BC0167707727A69F9001A79F84
:10338000300DB69F300D112413E0369527951A9510
:10339000E1F7BA01621B730B9B012436310580F4FF
:1033A000E4EBF3E02191222339F03091C00035FFA6
:1033B000FCCF2093C600F6CF0E94332F24E630E0E6
:1033C000309389002093880080910D0790910E071B
:1033D000A0910F07B0911007820F931FA11DB11D7F
:1033E00080930D0790930E07A0930F07B0931007DB
:1033F000F4C04091F9065091FA066091FB06709175
:10340000FC06808D918DA28DB38D84179507A6073C
:10341000B70708F0D6C0409118075091190760917E
:103420001A0770911B07048D158D268D378DAA27DD
:10343000419FB12D529FE001629FD00D619FC00D51
:10344000D11D429FB00DC11DDA1F519FB00DC11D8E
:10345000DA1F609FB00DC11DDA1F509FB10DCA1F4A
:10346000DA1FB695CA1FDA1F1124809111079091B7
:103470001207E05CFF4F8C179D0718F48081918143
:1034800002C08C1B9D0B40815181628173818C0134
:1034900020E030E0041715072607370708F4CA01B3
:1034A00081347CE9970728F481322EE4920748F0B2
:1034B00002C080E49CE9969587959695879524E0CF
:1034C00007C0813137E2930730F09695879522E067
:1034D0002093170708C021E0209317078032910539
:1034E00010F480E290E08097811568E09607E8F09C
:1034F000E92FFF27EE0FFF1FEE0FFF1F9F0127543D
:10350000334FF901329665917491AA27879FA001E4
:10351000869F410D5A1F06944A1F5A1F1124F90114
:1035200025913491241B350B20C09C01369527959D
:103530002C7F2754374FF90145915491F901329668
:10354000A591B491BC0167707727A69F9001A79FB2
:10355000300DB69F300D112463E0369527956A959E
:10356000E1F7BA01621B730B9B012436310580F42D
:10357000E4EBF3E02191222339F03091C00035FFD4
:10358000FCCF2093C600F6CF0E94332F24E630E014
:103590003093890020938800809118079091190733
:1035A000A0911A07B0911B07820F931FA11DB11D97
:1035B0008093180790931907A0931A07B0931B07DD
:1035C0000CC0809115079091160790938900809305
:1035D000880080911307809317074091F906509156
:1035E000FA066091FB067091FC06E0911C07F091D1
:1035F0001D0780899189A289B389481759076A07ED
:103600007B0780F010921D0710921C079091350CDB
:103610008091340C981731F08091340C8F5F8F704B
:103620008093340CFF91EF91DF91CF91BF91AF91D7
:103630009F918F917F916F915F914F913F912F91CA
:103640001F910F910F900BBE0F900FBE0F901F9008
:1036500018954F925F926F927F92AF92BF92CF92E6
:10366000DF92EF92FF920F931F93CF93DF938C0122
:10367000EB01FC0146A057A060A471A4AEA0BFA0BE
:10368000C8A4D9A49501A601C301B2010E941E5E7F
:1036900087FF3FC0A3019201C301B2010E94735A88
:1036A0002B013C01F80182A993A9A4A9B5A9BC01E9
:1036B000CD0190589B01AC010E948D57F80126A5C1
:1036C00037A540A951A90E94735A9B01AC01C301BF
:1036D000B2010E948C570E94F8597B018C019B011A
:1036E000AC01B501C6010E941E5E87FF02C07501D4
:1036F00086019701A801B501C6010E941E5E8823BC
:1037000041F0A701B8014EA35FA368A779A781E0A4
:103710008EABDF91CF911F910F91FF90EF90DF90D3
:10372000CF90BF90AF907F906F905F904F90089533
:10373000CF92DF92EF92FF920F931F93CF93DF937D
:1037400000D01F92CDB7DEB783EDC82E85E0D82E0E
:1037500094E8E92E9CE0F92E0AE217E0F601619167
:103760007191819191916F01F70121913191419175
:1037700051917F0129833A834B835C830E94225EAF
:1037800029813A814B815C810E94735A0E94D658EC
:10379000F80161937193819391938F01F3EECF16AA
:1037A000F5E0DF06D9F60F900F900F900F90DF91A4
:1037B000CF911F910F91FF90EF90DF90CF900895E0
:1037C0002F923F924F925F926F927F928F929F9231
:1037D000AF92BF92CF92DF92EF92FF920F931F931F
:1037E000CF93DF93CDB7DEB768970FB6F894DEBFFF
:1037F0000FBECDBF1C012A013B0148015901DC016C
:10380000D8966D917D918D919C91DB970E94225E5F
:103810006B017C01A30192010E94735A0E945358CC
:103820000E94D65869877A878B879C87A501940167
:10383000C701B6010E94735A0E9453580E94D6587D
:103840006D877E878F87988B29853A854B855C8528
:10385000283731054105510540F488E790E0A0E0A4
:10386000B0E089879A87AB87BC872D853E854F85D9
:103870005889283731054105510540F488E790E023
:10388000A0E0B0E08D879E87AF87B88B91012C5B5D
:103890003F4FD9018D919D910D90BC91A02D8D83AD
:1038A0009E83AF83B887BC01CD010E94245E6983EB
:1038B0007A838B839C8369857A858B859C850E941E
:1038C000225E698B7A8B8B8B9C8B20E030E0A90188
:1038D00069817A818B819C810E941E5E882339F1E7
:1038E000A7019601C701B6010E94735A4B015C0102
:1038F00029893A894B895C89CA01B9010E94735AA6
:103900009B01AC01C501B4010E948C574B015C01C5
:1039100029813A814B815C81CA01B9010E948D578E
:103920009B01AC01C501B4010E94695803C060E06D
:1039300070E0CB010E9453580E94D1582B013C01EA
:103940006D817E818F819885909580957095619528
:103950007F4F8F4F9F4F0E94245E4B015C016D850E
:103960007E858F8598890E94225E6D837E838F83FA
:10397000988720E030E0A901C501B4010E941E5ED5
:10398000882349F12D813E814F815885CA01B901B3
:103990000E94735A6D8B7E8B8F8B988FA701960137
:1039A000C701B6010E94735A9B01AC016D897E89E3
:1039B0008F89988D0E948C576B017C01A501940121
:1039C000C501B4010E948D579B01AC01C701B6012E
:1039D0000E94695803C060E070E0CB010E94025968
:1039E000F10180889188A288B38875016401C418A8
:1039F000D508E608F7080E94D158C61AD70AE80A7F
:103A0000F90AF7FE6BC020E030E0A90169817A81F4
:103A10008B819C810E941E5E882309F447C0298106
:103A20003A814B815C81CA01B9010E948D576B01BB
:103A30007C01C501B4010E94225E9B01AC01C7015B
:103A4000B6010E94735A6B017C0129893A894B891E
:103A50005C89CA01B9010E94735A9B01AC01C7017C
:103A6000B6010E948C576B017C012D813E814F81F4
:103A70005885CA01B9010E94735A9B01AC01C70164
:103A8000B6010E948D576B017C0120E030E040E8D8
:103A900050E469817A818B819C810E94735A9B01D9
:103AA000AC01C701B6010E94695803C060E070E034
:103AB000CB010E9453580E94D1582B013C0197FF23
:103AC00003C0412C512C3201481459046A047B0470
:103AD00010F024013501C12CD12C76018FB7F89458
:103AE000F101E45BFF4F9081911125C0D101549603
:103AF0004D925D926D927C925797C40CD51CE61C3A
:103B0000F71CF101C08ED18EE28EF38E29853A85A5
:103B10004B855C85DC962D933D934D935C93DF97AD
:103B2000A05CBF4F2D853E854F8558892D933D93D1
:103B30004D935C9313978FBF68960FB6F894DEBFD2
:103B40000FBECDBFDF91CF911F910F91FF90EF90EE
:103B5000DF90CF90BF90AF909F908F907F906F90AD
:103B60005F904F903F902F9008951F920F920FB645
:103B70000F9211240BB60F922F933F934F936F9395
:103B80007F938F939F93EF93FF934091C600209173
:103B9000E2063091E306C90101968F77992760917B
:103BA000E4067091E5068617970741F0F901EE5992
:103BB000F94F40839093E3068093E206FF91EF91E3
:103BC0009F918F917F916F914F913F912F910F9086
:103BD0000BBE0F900FBE0F901F9018952F923F9223
:103BE0004F925F926F927F928F929F92AF92BF920D
:103BF000CF92DF92EF92FF920F931F93CF93DF93B9
:103C000000D000D0CDB7DEB76C018330910541F014
:103C1000FC01EA54F74F6491062F660F110B02C0A6
:103C200001E010E0C601880F991F880F991F9E833D
:103C30008D83805B934F9A838983FC01108211826C
:103C40001282138248E55CE064E57CE080E59CE05C
:103C5000A5D38D819E818655974F0E9423394B01B4
:103C60005C01B801110F880B990B0E94245E2B0197
:103C70003C012D813E812B5E394F3C832B8320E01C
:103C800030E040EC5FE3C501B4010E94735AA30128
:103C900092010E94735AEB81FC816083718382835D
:103CA0009383ED81FE81E254FD4F80809180A2805C
:103CB000B38080924E0290924F02A0925002B09236
:103CC000510220E030E040E752E4C501B4010E9417
:103CD00069587B018C0121E236E04DE156E069E153
:103CE00076E085E196E08FD50E9480351092000243
:103CF000E981FA81108211821282138248E55CE028
:103D000064E57CE080E59CE049D32D813E8122562C
:103D1000374F1901C9010E9423399058A30192011C
:103D20000E94735AEB81FC81608371838283938349
:103D300020E030E040E752E460914E0270914F0283
:103D400080915002909151020E9469587B018C0130
:103D500021E236E04DE156E069E176E085E196E06A
:103D600052D50E94803581E080930002C1010E94FB
:103D700023399B01AC010E948D57A30192010E943F
:103D8000735AEB81FC81608371838283938320E08B
:103D900030E040E05FE3C501B4010E94735A6093D4
:103DA0004E0270934F02809350029093510220E094
:103DB00030E040E752E40E9469587B018C0121E227
:103DC00036E04DE156E069E176E085E196E01BD50D
:103DD0000E948035F3E0CF16D10449F410925C0CB8
:103DE00010925D0C10925E0C10925F0C45C08D819C
:103DF0009E818E56974F0E9423390D811E810F5050
:103E00001A4FF80120813181428153810E948D57E0
:103E1000E981FA8160837183828393838D819E819E
:103E20008A57974F0E9423392D813E812A51394F5D
:103E30005901F80120813181428153810E948D57BF
:103E4000F50160837183828393838D819E8186587F
:103E5000974F0E9423392D813E812E5A3D4F5901A3
:103E6000F80120813181428153810E948D57F501F3
:103E70006083718382839383ED81FE81EB5EF94FD2
:103E8000AD81BE81A05BB34F8D919D910D90BC9192
:103E9000A02D80839183A283B38310924E0210924F
:103EA0004F021092500210925102F601E05DF34F62
:103EB00081E0808326960FB6F894DEBF0FBECDBF9B
:103EC000DF91CF911F910F91FF90EF90DF90CF90F6
:103ED000BF90AF909F908F907F906F905F904F902A
:103EE0003F902F900895CF92DF92EF92FF926091D2
:103EF0004702709148028091490290914A022091B4
:103F0000E3052223F1F020E030E040E05FE30E948F
:103F1000735A6B017C0120E030E0A9010E941E5E13
:103F2000882379F0A7019601C701B6010E94735A50
:103F30002BED3FE049E450E40E94735A9B01AC0131
:103F400004C020E030E040E85FE360E070E080E83B
:103F50009FE30E94695860936402709365028093A6
:103F6000660290936702FF90EF90DF90CF900895E4
:103F70001F93CF93DF93EC0180915A078093F00554
:103F800084E50E942939182F811102C010E074C005
:103F90000E9444390E94D6586093F0056623B1F31D
:103FA000E1E5F4E09491992341F08091C00085FF10
:103FB000FCCF9093C6003196F5CFCD36D105B9F040
:103FC00054F4C836D105B1F0C936D10509F045C061
:103FD000EDE0F4E021C0CA3DD10531F0CD3DD10581
:103FE000E1F5E8ECF3E036C0EFEDF3E029C0E6EFF1
:103FF000F3E01CC0E4E2F4E08191882371F1909138
:10400000C00095FFFCCF8093C600F6CF9091C00012
:1040100095FFFCCF8093C60081918111F7CF1DC021
:104020009091C00095FFFCCF8093C60081918111D3
:10403000F7CF13C09091C00095FFFCCF8093C600CE
:1040400081918111F7CF09C09091C00095FFFCCFFD
:104050008093C60081918111F7CF8091F0059091F6
:10406000C00095FFFCCF8093C6008091C00085FF03
:10407000FCCF8AE08093C600812FDF91CF911F9102
:1040800008950E94AB3180912506811134C081E0F2
:10409000809325068091C7059091C805A091C90518
:1040A000B091CA058093CB059093CC05A093CD0524
:1040B000B093CE05E3E1F1E18491882341F0909142
:1040C000C00095FFFCCF8093C6003196F5CFE4E0A9
:1040D000F8E08491882341F09091C00095FFFCCFD7
:1040E0008093C6003196F5CF8091C00085FFFCCF4C
:1040F0008AE08093C6000895F8940E94AB315F98DF
:104100001092300C8A981092310C9FB7F8948091DD
:1041100008018E7F809308019FBF1092320C129A83
:1041200060E08CE00E941A30E3E1F1E184918823A1
:1041300041F09091C00095FFFCCF8093C60031966E
:10414000F5CFE5EEF7E08491882341F09091C0002F
:1041500095FFFCCF8093C6003196F5CF8091C000CB
:1041600085FFFCCF8AE08093C6007894C6E0D0E05B
:10417000219739F068EC70E080E090E00E941D31FA
:10418000F7CFF894FFCF4F925F926F927F928F920A
:104190009F92AF92BF92EF92FF920F931F93CF9394
:1041A000DF93CDB7DEB7A0970FB6F894DEBF0FBE92
:1041B000CDBF611571058105910541F48091C00065
:1041C00085FFFCCF80E38093C6003DC09E012F5F3A
:1041D0003F4F7901812C912C54018901442E512C9F
:1041E000612C712C3FEF831A930AA30AB30AA3012F
:1041F00092010E944561F70161937F01B901CA01F3
:10420000611571058105910569F7A40120E030E091
:10421000F1E08F1A9108A108B108F401E21BF30B39
:10422000E00FF11F80818A3010F4805D01C0895C4D
:104230009091C00095FFFCCF8093C6002F5F3F4F49
:104240002417350751F7A0960FB6F894DEBF0FBEBE
:10425000CDBFDF91CF911F910F91FF90EF90BF9055
:10426000AF909F908F907F906F905F904F90089548
:1042700097FF0EC02091C00025FFFCCF2DE22093B8
:10428000C60090958095709561957F4F8F4F9F4F99
:104290004AE079CF8F929F92AF92BF92CF92DF92F6
:1042A000EF92FF92CF93DF936B017C01C42F20E04C
:1042B00030E0A9010E941E5E87FF0BC08091C00004
:1042C00085FFFCCF8DE28093C600F7FAF094F7F8F3
:1042D000F094D0E060E070E080E09FE3DC1741F014
:1042E00020E030E040E251E40E946958DF5FF6CF01
:1042F0009B01AC01C701B6010E948D576B017C0187
:104300000E94D6584B015C010E94225E9B01AC01C9
:10431000C701B6010E948C576B017C014AE0C501C0
:10432000B40131DFCC2361F0EDE8F3E08191882323
:1043300039F09091C00095FFFCCF8093C600F6CF76
:10434000CC2309F120E030E040E251E4C701B6019E
:104350000E94735A4B015C010E94D1586B01770F88
:10436000EE08FF08C701B60183DFC701B6010E944E
:10437000245E9B01AC01C501B4010E948C576B0106
:104380007C01C150DDCFDF91CF91FF90EF90DF90A6
:10439000CF90BF90AF909F908F900895CF92DF9273
:1043A000EF92FF920F931F93CF93DF936B017A01EC
:1043B00004E81CE0F8012081318142815381FC0135
:1043C00060817181828193810E94735A0E94BE59DB
:1043D000C4E7DCE0688379838A839B83F8012481C6
:1043E000358146815781F601608171818281938197
:1043F0000E94735A0E94BE596C837D838E839F8373
:10440000F8012085318542855385F70160817181EE
:10441000828193810E94735A0E94BE59688779876E
:104420008A879B87F8012485358546855785609165
:104430005C0C70915D0C80915E0C90915F0C0E9401
:10444000735A0E94BE596C877D878E879F878FB76E
:10445000F894488159816A817B81E0E4FCE04083E3
:104460005183628373834C815D816E817F8144833C
:10447000558366837783488559856A857B85408720
:104480005187628773874C855D856E857F854487FC
:104490005587668777878FBF1092700C1092710CCA
:1044A0001092720C1092730CE0E6FCE01082118204
:1044B0001282138214821582168217821086118648
:1044C000128613861486158616861786DF91CF917D
:1044D0001F910F91FF90EF90DF90CF9008954F9232
:1044E0005F926F927F928F929F92AF92BF92CF9284
:1044F000DF92EF92FF920F931F93CF93DF93809100
:104500003E0C90913F0C039714F40E944D390E9489
:104510005531C0903A0CD0903B0CE0903C0CF090A0
:104520003D0C0091360C1091370C2091380C3091D5
:10453000390CDC01CB018C199D09AE09BF090817A4
:1045400019072A073B0728F4012B022B032B09F03C
:10455000D3DD8090740290907502A0907602B090A6
:10456000770281149104A104B104A1F00E94553195
:10457000DC01CB018C199D09AE09BF09881699068B
:10458000AA06BB0638F49091350C8091340C98172C
:1045900009F416C160912E0C9091340C8091350C69
:1045A000981781F08091340C9DE4899FF0011124CB
:1045B000EA55F84F60819091350C891719F08F5F9B
:1045C0008F70F9CF70E089E00E94563080915D07CE
:1045D000882309F407C1C0907002D0907102E09066
:1045E0007202F090730260915B0770915C07072E76
:1045F000000C880B990B0E94245E20E030E040E024
:1046000050E40E948D579601A7010E941E5E87FD0F
:10461000E9C0C091340C912CA12CB12CD0E08DE4D8
:10462000882E8091350CC81709F456C08C2F90E065
:10463000889EF001899EF00D1124E25AF84F4081C6
:10464000518162817381452B462B472B81F4448134
:10465000558166817781452B462B472B41F4408558
:10466000518562857385452B462B472B91F1889E9A
:104670008001899E100D1124025A184FF80164859B
:104680007585868597850E94245E2B013C01F80183
:1046900060897189828993890E94225E9B01AC01A5
:1046A000C301B2010E946958F80122A133A144A1BB
:1046B00055A10E94735A3B018C01292D3A2D4B2D97
:1046C0005D2F0E94B359181624F4962CA72CB02EF7
:1046D000D12FCF5FCF70A5CF20916C0230916D02AA
:1046E00040916E0250916F02692D7A2D8B2D9D2F76
:1046F0000E94735A9B01AC01B601C7010E948D57FD
:104700008B01D82FC92F9601A7010E941E5E87FF3B
:1047100003C08601DE2DCF2DC0906802D0906902C3
:10472000E0906A02F0906B029601A701B8018D2F0C
:104730009C2F0E94B35918161CF48601DE2DCF2D34
:10474000C090980CD090990CE0909A0CF0909B0C33
:1047500098014D2F5C2FC701B6010E94B35918165E
:10476000D4F420E037ED43EA5CE3B8018D2F9C2FB1
:104770000E94735A4B015C0128E431EE4AE75FE383
:10478000C701B6010E94735AA50194010E948D577A
:104790008B01D82FC92FC801AD2FBC2F8093980C47
:1047A0009093990CA0939A0CB0939B0CB8018D2F09
:1047B0009C2F0E94D15870935C0760935B0712C0D6
:1047C0005F981092300C8A981092310C9FB7F89431
:1047D000809108018E7F809308019FBF1092320C58
:1047E000129AD8CEDF91CF911F910F91FF90EF9049
:1047F000DF90CF90BF90AF909F908F907F906F9001
:104800005F904F9008952F923F924F925F926F92D8
:104810007F928F929F92AF92BF92CF92DF92EF9250
:10482000FF920F931F93CF93DF93CDB7DEB7C2579D
:10483000D1090FB6F894DEBF0FBECDBF3C014B01CE
:104840005A016901EBA2FBA60CA71DA78091350CAC
:104850008F5F6B968FAF6B97803119F46B961FAE9D
:104860006B976B962FAD6B97022F220F110B8091D8
:10487000340C90E08017910721F40E94A0332FDEC2
:10488000F6CF2091840C3091850C4091860C50918C
:10489000870CD3016D917D918D919C910E94735AEB
:1048A0000E94BE596F966CAF7DAF8EAF9FAF6F9772
:1048B0002091880C3091890C40918A0C50918B0C7E
:1048C000F40160817181828193810E94735A0E94F8
:1048D000BE59A3966CAF7DAF8EAF9FAFA3974090AC
:1048E0008C0C50908D0C60908E0C70908F0CD501BC
:1048F0002D913D914D915C91C301B2010E94735A7B
:104900000E94BE59A7966CAF7DAF8EAF9FAFA797A1
:104910002091900C3091910C4091920C5091930CFD
:10492000F60160817181828193810E94735A0E9495
:10493000BE59AB966CAF7DAF8EAF9FAFAB97E0919A
:10494000350C2E2E312C2DE4E29FF0011124E6557A
:10495000F84F10828091740C9091750CA091760C98
:10496000B091770C8AAB9BABACABBDAB6F968CAC0C
:104970009DACAEACBFAC6F97881A990AAA0ABB0A65
:10498000B7FE08C0B094A09490948094811C911CB0
:10499000A11CB11C8DE4829DF001839DF00D1124BA
:1049A000E25AF84F80829182A282B3822091780CE1
:1049B0003091790C40917A0C50917B0C2EAB3FAB2F
:1049C00048AF59AFA396CCACDDACEEACFFACA3972F
:1049D000C21AD30AE40AF50AF7FE08C0F094E0947C
:1049E000D094C094C11CD11CE11CF11C8DE4829DAB
:1049F000F001839DF00D1124E25AF84FC482D58254
:104A0000E682F78280917C0C90917D0CA0917E0CC7
:104A1000B0917F0C8EA79FA7A8ABB9ABA7966CAD42
:104A20007DAD8EAD9FADA7972EA53FA548A959A9ED
:104A3000621B730B840B950B97FF07C090958095B5
:104A4000709561957F4F8F4F9F4F0E94245E6FA39B
:104A500078A789A79AA720E030E044E353E4C30194
:104A6000B2010E94735A6AAF7BAF8CAF9DAF9B01BE
:104A7000AC016FA178A589A59AA50E94B359181613
:104A800004F58DE4829D8001839D100D1124025A4E
:104A9000184F20E030E044EB53E4C301B2010E9420
:104AA000735A2FA138A549A55AA50E948C570E9478
:104AB000D158D80118966D937D938D939C931B9735
:104AC00013C08DE4829D8001839D100D1124025A34
:104AD000184F6FA178A589A59AA50E94D158F80111
:104AE00060877187828793874090800C5090810CFB
:104AF0006090820C7090830C10915A07AB966CAD4D
:104B00007DAD8EAD9FADAB97641975098609970988
:104B100097FF07C090958095709561957F4F8F4F57
:104B20009F4F0E94245E24E0129FF0011124EC5953
:104B3000FD4F20813181428153810E94735A0E942E
:104B4000D1589B01AC01A0916202B09163020E9416
:104B5000705724E630E040E050E00E944B57FA01E5
:104B60008DE4829DD001839DB00D1124A25AB84FCF
:104B70001C962C931C971D963C931D971E964C9348
:104B80001E971F96FC931F9718964D915D916D91FE
:104B90007C911B97C901DF0184179507A607B7070A
:104BA00014F4DB01CA01B501A4018C159D05AE0505
:104BB000BF0544F088169906AA06BB0654F4AC015A
:104BC000BD0107C08C149D04AE04BF0414F4B701EA
:104BD000A6018DE4829DF001839DF00D1124E25A1F
:104BE000F84F408B518B628B738B463051056105BA
:104BF000710514F40C94192FDF01A85BBF4F40918D
:104C00002E0C50912F0C052E000C660B770B4D933C
:104C10005D936D937C9313976F968CAD9DADAEAD08
:104C2000BFAD6F972AA93BA94CA95DA9821793072D
:104C3000A407B50714F010A202C081E080A3A396D8
:104C40008CAD9DADAEADBFADA3972EA93FA948AD2C
:104C500059AD82179307A407B5075CF48DE4829DD4
:104C6000F001839DF00D1124E25AF84F80A182607B
:104C700080A36FA178A589A59AA50E94D15897FF16
:104C800007C090958095709561957F4F8F4F9F4F8E
:104C90000E94245E2AAD3BAD4CAD5DAD0E94B35980
:104CA000181684F4A7968CAD9DADAEADBFADA79799
:104CB0002EA53FA548A959A9281739074A075B0718
:104CC000DCF40FC0A7968CAD9DADAEADBFADA79780
:104CD0002EA53FA548A959A982179307A407B50790
:104CE0005CF48DE4829DF001839DF00D1124E25A65
:104CF000F84F80A1846080A3AB968CAD9DADAEAD26
:104D0000BFADAB9784159505A605B7055CF48DE49A
:104D1000829DF001839DF00D1124E25AF84F80A18D
:104D2000886080A38DE4829DF001839DF00D1124A5
:104D3000E25AF84F11A389288A288B2809F05F9A34
:104D40008DE4829DF001839DF00D1124E25AF84F0D
:104D500084819581A681B781892B8A2B8B2B09F0C1
:104D60008A9A8DE4829DF001839DF00D1124E25A10
:104D7000F84F80859185A285B385892B8A2B8B2B53
:104D800041F09FB7F89480910801816080930801F9
:104D90009FBF8DE4829DF001839DF00D1124E25AA6
:104DA000F84F84859585A685B785892B8A2B8B2B13
:104DB00069F18091950C882319F081508093950CAE
:104DC0008091960C882319F081508093960C8091E5
:104DD000970C882319F081508093970C80915A0783
:104DE000813061F030F0823089F480E28093970C5A
:104DF00008C0129880E28093950C08C080E28093EE
:104E0000960C8091950C811101C0129A8DE4829DBF
:104E1000F001839DF00D1124E25AF84F2485358569
:104E20004685578522962CAF3DAF4EAF5FAF229798
:104E3000232B242B252B49F4E0905607F09057079D
:104E4000009158071091590708C0E0905207F09060
:104E5000530700915407109155079701A8016BA1C2
:104E60007BA58CA59DA50E941E5E87FF04C0EBA2BA
:104E7000FBA60CA71DA78091740C9091750CA091B6
:104E8000760CB091770C6F962CAD3DAD4EAD5FAD0D
:104E90006F97281B390B4A0B5B0BCA01B9010E94A3
:104EA000245E2091840C3091850C4091860C5091A9
:104EB000870C0E9469586FA378A789A79AA7698B66
:104EC0007A8B8B8B9C8B8091780C9091790CA09134
:104ED0007A0CB0917B0CA3962CAD3DAD4EAD5FAD81
:104EE000A397281B390B4A0B5B0BCA01B9010E941F
:104EF000245E2091880C3091890C40918A0C50914D
:104F00008B0C0E9469584B015C016D8B7E8B8F8BE3
:104F1000988F8DE4829D8001839D100D1124025A8B
:104F2000184FD80118968D919D910D90BC91A02D90
:104F30008AAB9BABACABBDABBC01CD010E94245E88
:104F400026966CAF7DAF8EAF9FAF269720918C0CCD
:104F500030918D0C40918E0C50918F0C0E946958AD
:104F60006B017C01698F7A8F8B8F9C8F8091800C75
:104F70009091810CA091820CB091830CAB962CADDA
:104F80003DAD4EAD5FADAB97281B390B4A0B5B0BAC
:104F9000CA01B9010E94245E2091900C3091910CBD
:104FA0004091920C5091930C0E946958E0915A07DD
:104FB00034E0E39FF0011124EC59FD4F2081318151
:104FC000428153810E94735A2B013C01609162021D
:104FD00070916302072E000C880B990B0E94245ECF
:104FE0009B01AC01C301B2010E94735A20E030E082
:104FF00048EC52E40E9469586D8F7E8F8F8F98A382
:10500000D8012D913D914D915C9113972EAB3FAB03
:1050100048AF59AF2630310541055105F4F41496D7
:105020004D905D906D907C901797B6E04B165104B3
:105030006104710494F42AA93BA94CA95DA9263006
:105040003105410551054CF4DC01CB01BF77F80176
:1050500086A797A7A0ABB1AB2CC06FA178A589A5F7
:105060009AA50E94705A2B013C01C501B4010E940F
:10507000705A9B01AC01C301B2010E948D574B01D4
:105080005C01C701B6010E94705A9B01AC01C501C9
:10509000B4010E948D570E94F8592DE4229DF00121
:1050A000239DF00D1124E25AF84F66A777A780AB35
:1050B00091AB8DE4829D8001839D100D1124025AD5
:1050C000184FD8019E968D909D90AD90BC90D19731
:1050D000A501940160E070E080E89FE30E946958B8
:1050E0009B01AC016BA17BA58CA59DA50E94735A69
:1050F0002B013C018091350C2091340C90E0821BF7
:105100009109FC01EF70FF27E196FFAFEEAFE19749
:10511000A3019201C501B4010E94735A2A966CAF93
:105120007DAF8EAF9FAF2A97D80192966D937D93F6
:105130008D939C93959750966D917D918D919C91B7
:1051400053970E94225E6BA37CA38DA39EA3A30111
:1051500092010E94735A0E9453580E94D6582E966C
:105160006CAF7DAF8EAF9FAF2E97F80160AF71AF80
:1051700082AF93AF9E012F5E3F4F3BAF2AAFAE0190
:105180004F5F5F4F5FA74EA782E497E068969FAF9F
:105190008EAF6897DE019196BAA3A9A364965FAF1C
:1051A0004EAF64971BA61CA6B0E8BDA7EFE3EFA324
:1051B000AAADBBAD6D917D918D919D91BBAFAAAF15
:1051C000A30192010E94735A6496EEADFFAD6497FD
:1051D00061937193819391936496FFAFEEAF64975F
:1051E0006B017C01E894F7F86896AEADBFAD6897A7
:1051F0002D913D914D915D916896BFAFAEAF68978F
:1052000062962CAF3DAF4EAF5FAF6297C701B6015C
:105210000E94B3591816D4F4A701960162966CAD9A
:105220007DAD8EAD9FAD62970E9469587B018C0168
:105230009B01AC016BA57CA58DA59FA10E941E5E64
:1052400087FD04C0EBA6FCA60DA71FA3EAADFBAD2E
:1052500029A13AA1E217F30709F0AACF20E030E034
:1052600040E85FE36BA57CA58DA59FA10E941E5E13
:1052700087FF4AC08E010F5E1F4F2BA53CA54DA591
:105280005FA1AEA5BFA56D917D918D919C910E946E
:10529000735AEEA5FFA56193719381939193FFA734
:1052A000EEA7E017F10749F78DE4829D8001839D09
:1052B000100D1124025A184F2BA53CA54DA55FA136
:1052C0002A966CAD7DAD8EAD9FAD2A970E94735A24
:1052D000D80192966D937D938D939C9395972E967E
:1052E0006CAD7DAD8EAD9FAD2E970E94225E2BA53D
:1052F0003CA54DA55FA10E94735A0E94D658F801A3
:1053000060AF71AF82AF93AFA50194016BA17CA197
:105310008DA19EA10E9469586B017C012EA93FA915
:1053200048AD59AD232B242B252B91F58DE4829D7F
:105330008001839D100D1124025A184FF8018481B9
:105340009581A681B781892B8A2B8B2B09F52AA9F8
:105350003BA94CA95DA9232B242B252BC9F4209113
:105360003E0730913F074091400750914107C701E8
:10537000B6010E94735A0E9453580C5B1F4F0E9443
:10538000D658D8016D937D938D939C93139718C134
:1053900020913A0730913B0740913C0750913D07DF
:1053A000C701B6010E94735A0E9453580E94D658F2
:1053B0002DE4229D8001239D100D11240E55184FC0
:1053C000F801608371838283938380902A07909091
:1053D0002B07A0902C07B0902D070E94225E2B0176
:1053E0003C016EA97FA988AD99AD0E94245E9B0106
:1053F000AC01C301B2010E94735A2BA13CA14DA183
:105400005EA10E9469582B013C01C501B4010E94B4
:10541000225E9B01AC01C301B2010E94B359181670
:1054200034F4D8018D929D92AD92BC921397409026
:105430002E0750902F0760903007709031072DE4B1
:10544000229DC001239D900D11249C01225A384FAA
:1054500089010C5B1F4FF80160817181828193810A
:10546000E2962FAFE297E3963FAFE3970E94225E6A
:105470004B015C01E2962FADE297E3963FADE397D7
:10548000D90114966D917D918D919C9117970E94F1
:10549000245E9B01AC01C501B4010E94735A2BA18B
:1054A0003CA14DA15EA10E9469584B015C01C30162
:1054B000B2010E94225E9B01AC01C501B4010E94B1
:1054C000B35918162CF4F80140825182628273821B
:1054D0008090360790903707A0903807B090390732
:1054E0008DE4829D8001839D100D11240E55184F6F
:1054F000D8016D917D918D919C910E94225E2B012E
:105500003C0122966CAD7DAD8EAD9FAD22970E9481
:10551000245E9B01AC01C301B2010E94735A2BA10E
:105520003CA14DA15EA10E9469582B013C01C5011F
:10553000B4010E94225E9B01AC01C301B2010E9432
:10554000B35918162CF4F80180829182A282B3829A
:105550008090320790903307A0903407B0903507C1
:105560008DE4829D8001839D100D11240E55184FEE
:10557000D8016D917D918D919C910E94225E26961D
:105580002CAD3DAD4EAD5FAD26970E94735A2BA159
:105590003CA14DA15EA10E9469582B013C01C501AF
:1055A000B4010E94225E9B01AC01C301B2010E94C2
:1055B000B35918162CF4F80180829182A282B3822A
:1055C0008DE4829D8001839D100D1124025A184F95
:1055D000F801EC5BFF4F60817181828193810E94B1
:1055E000225E4B015C01A70196010E9469586696F4
:1055F0006CAF7DAF8EAF9FAF6697D801D2966D939B
:105600007D938D939C93D5972DEB37E346E051E442
:10561000C501B4010E94735A0E94D158F801648FE9
:10562000758F868F978FC0902607D0902707E090C0
:105630002807F090290720E030E040E05FE3C70151
:10564000B6010E94735A6BA37BA78CA79DA72985DF
:105650003A854B855C856A962CAF3DAF4EAF5FAF08
:105660006A978091220790912307A0912407B09117
:1056700025072E968CAF9DAFAEAFBFAF2E9720E023
:1056800030E040E05FE3BC01CD010E94735A5B0152
:105690008C016A966CAD7DAD8EAD9FAD6A979F779C
:1056A0009501A8010E94B359181674F49501A80138
:1056B0006BA17BA58CA59DA50E941E5E87FD04C0E5
:1056C000ABA2BBA60CA71DA72D853E854F8558898B
:1056D000AF962CAF3DAF4EAF5FAFAF9780911E0737
:1056E00090911F07A0912007B091210762968CAF7F
:1056F0009DAFAEAFBFAF629720E030E040E05FE328
:10570000BC01CD010E94735A5B018C01AF966CAD58
:105710007DAD8EAD9FADAF979F779501A8010E949B
:10572000B359181674F49501A8016BA17BA58CA53B
:105730009DA50E941E5E87FD04C0ABA2BBA60CA760
:105740001DA78DE4829DF001839DF00D1124E25A86
:10575000F84F92A19AAFA3A1AEAFB4A12396BFAF69
:10576000239725A127962FAF2797292F3A2F4B2F25
:1057700027965FAD27976BA17BA58CA59DA50E9461
:105780001E5E87FD0CC03AAD3BA34EAD4BA72396E2
:105790005FAD23975CA727968FAD27978DA7E196DE
:1057A000AEADBFADE19712970CF4EDC0B091700CA7
:1057B000BFA3E091710CEEA7F091720CFAAB2091AF
:1057C000730C2EAB27E137EB41ED58E36B2F7E2FA7
:1057D0008F2F9EA90E94B35918160CF0DDC020919E
:1057E000600C3091610C4091620C5091630C6981A6
:1057F0007A818B819C810E948C572B013C012091E6
:10580000640C3091650C4091660C5091670C6D8171
:105810007E818F8198850E948C574B015C01A3018A
:105820009201C301B2010E94735A2B013C01A501F0
:105830009401C501B4010E94735A9B01AC01C301DC
:10584000B2010E948D570E94F8594B015C01A701DB
:1058500096010E94B35918164CF4A5019401C70192
:10586000B6010E9469587B018C0104C0E12CF12C27
:1058700000E81FE32091680C3091690C40916A0C9C
:1058800050916B0C6A966CAD7DAD8EAD9FAD6A97F5
:105890000E948C574B015C01E894B7F82E962CAD12
:1058A0003DAD4EAD5FAD2E97C501B4010E94B35919
:1058B0001816B4F4A50194012E966CAD7DAD8EAD95
:1058C0009FAD2E970E9469585B016C019B01AC0152
:1058D000B701C8010E941E5E87FD02C075018601E6
:1058E00020916C0C30916D0C40916E0C50916F0CAE
:1058F000AF966CAD7DAD8EAD9FADAF970E948C57CE
:105900004B015C01E894B7F862962CAD3DAD4EAD0D
:105910005FAD6297C501B4010E94B3591816B4F483
:10592000A501940162966CAD7DAD8EAD9FAD629781
:105930000E9469585B016C019B01AC01B701C80171
:105940000E941E5E87FD02C0750186019701A801B5
:105950006AAD7EAD23968FAD239727969FAD27978F
:105960000E94735A7B018C019B01AC016FA17EA543
:105970008AA99EA90E941E5E87FD16C0EFA2FEA600
:105980000AAB1EAB11C03BA13FA34BA54EA75CA524
:105990005AAB8DA58EAB08C09BA19FA3ABA5AEA7AC
:1059A000BCA5BAABEDA5EEAB8DE4829D8001839DD5
:1059B000100D1124025A184F8FA19EA5AAA9BEA9A5
:1059C000F80182A793A7A4A7B5A766966CAD7DAD95
:1059D0008EAD9FAD669790589B01AC010E948D578C
:1059E000D8019E962D913D914D915C91D1970E9449
:1059F000735A9B01AC016BE077ED83E29BE30E945D
:105A00008C570E94F859B62EC72E7C01262F372FAF
:105A1000AC016FA17EA58AA99EA90E941E5E87FD8A
:105A200005C0DB2C8C2CAE2C9F2C04C0DFA08EA4D8
:105A3000AAA89EA88DE4829D8001839D100D11244B
:105A4000025A184F8D2D982DAA2DB92DF80186A335
:105A500097A3A0A7B1A72B2D3C2DA7016AAD7EADC2
:105A600023968FAD239727969FAD27970E941E5EA2
:105A700018162CF081E0D801D7968C9302C0F8015B
:105A800017AA2DE4229DC001239D900D11249C0195
:105A9000225A384F790181E0D901D6968C9380E162
:105AA000FE013196A0E6BCE001900D928A95E1F7E7
:105AB0008AAD9EAD2396AFAD23972796BFAD2797AE
:105AC0008093700C9093710CA093720CB093730C34
:105AD0009C01AD016BA17BA58CA59DA50E94695879
